:100200000C9448010C9465010C9465010C946501F3
:100210000C9465010C9465010C9465010C946501C6
:100220000C9465010C9465010C9465010C946501B6
:100230000C9465010C9465010C9465010C946501A6
:100240000C9465010C9465010C9465010C94650196
:100250000C9465010C9465010C9465010C94650186
:100260000C9465010C9465010C9465010C94650176
:100270000C9465010C9465010C9465010C94650166
:100280000C9465010C9465010C9465010C94650156
:1002900011241FBECFEFCDBFDFE3DEBF19E2A0E028
:1002A000B8E2E5EAFAE202C005900D92A833B10780
:1002B000D9F72AE2A8E3B9E201C01D92A532B2073C
:1002C000E1F70E9429070C9444130C94000188E084
:1002D0008093670480E0089588E08093650480E05F
:1002E000089588E08093660480E00895E0E0FAE0F5
:1002F00081818064818380E00895E0E0FAE081817B
:100300008F7B818384E08093050480E0089580E4FE
:100310008093050480E0089580E48093060480E0E3
:10032000089580E28093050480E0089580E2809340
:10033000060480E0089580E18093050480E008953C
:1003400080E18093060480E00895E0E0F4E080E43A
:10035000858380E2858380E1858380E00895E0E005
:10036000F4E080E4868380E2868380E1868380E017
:10037000089580E88093050484E08093450480E03C
:10038000089588E08093050480E0089588E08093D4
:10039000060480E0089581E08093060680930806B5
:1003A00080910B0680FFFCCF809110069091110682
:1003B00080931B2A90931C2A21E020930B06853DF5
:1003C00033E0930720F020931A2A80E008959C01DF
:1003D0002D5533402633310520F482E080931A2ACC
:1003E000F4CF9C01215D32402F34310510F483E0BD
:1003F000F5CF4A978534910510F484E0EFCF109241
:100400001A2AE3CF1092060681E0809308068091B5
:100410000B0680FFFCCF809110069091110680930F
:100420001D2A90931E2A21E020930B069C01255043
:1004300031402B3D310568F484E18093052A809199
:10044000072A882321F080911F298093052A80E0C4
:1004500008959C01275931092534310510F480E2B3
:10046000ECCF8C5491098C9710F08DE0E6CF8FE3A0
:10047000E4CF85E08093060681E0809308068091B2
:100480000B0680FFFCCF809110069091110680939F
:1004900024299093252981E080930B0696E0909380
:1004A00006068093080680910B0680FFFCCF8091A2
:1004B000100690911106809326299093272981E0B8
:1004C00080930B0697E09093060680930806809130
:1004D0000B0680FFFCCF809110069091110680934F
:1004E00028299093292981E080930B0680E00895C4
:1004F00080E88093050484E0809346042FE382E43F
:100500009FE0215080409040E1F700C000000E9431
:10051000B90190916804292F247092FB882780F9F3
:1005200080930A2A211102C08EEF089580E0089579
:1005300080E88093060484E0809345042FEB87E2F3
:1005400099E0215080409040E1F700C000000E94F7
:10055000B90190916804292F247092FB882780F9B3
:1005600080930A2A222311F08EEF089580E00895E7
:10057000CF93DF9300D000D0CDB7DEB780910006D7
:100580008E7F8093000680910206809302068EE1A2
:10059000809306068091030680668093030680910F
:1005A000000681608093000689EF90E00197F1F7E3
:1005B00000C0000081E08093080680910B0680FF58
:1005C000FCCF20911006309111068091FC29281B48
:1005D000310987FD3395A091FB29B0E00E94830E7D
:1005E00069837A838B839C83DC01CB0180589F4F86
:1005F000AF4FBF4F892F9A2FAB2FBB278093182A5D
:100600009093192A809100068E7F80930006809136
:1006100002068061809302068091030680930306A0
:100620008091000681608093000681E080930B0634
:1006300080E02496CDBFDEBFDF91CF9108952F9249
:100640003F924F925F926F927F928F929F92AF9262
:10065000BF92CF92DF92EF92FF920F931F93CF93AF
:10066000DF93CDB7DEB76097CDBFDEBF24E239E2BE
:100670002F87388BF4E8CF2EF9E2DF2E4AEA59E2D1
:100680004D875E874A0119861A861B861C86AF85B0
:10069000B8898D919D91AF87B88B8093A62990934F
:1006A000A729F60181919191A191B1916F01809358
:1006B000A0299093A129A093A229B093A329A12CAA
:1006C000E2E0BE2E2F843888F2E02F1A31080E9413
:1006D00039028091A6299091A7298093A829909307
:1006E000A929D1014D905C904092A6295092A7294A
:1006F000481A590A4092A4295092A529052C000CA9
:1007000066087708762C652C542C44248091A02907
:100710009091A129A091A229B091A329840D951DA2
:10072000A61DB71D8093982990939929A0939A2983
:10073000B0939B29492F5A2F6B2F772767FD7A9506
:100740002C013D01441A550A660A770A4092A029F5
:100750005092A1296092A2297092A329A30192012B
:1007600062E055954795379527956A95D1F720937F
:100770009C2930939D2940939E2950939F29CA011B
:10078000B9010E945F0E69837A838B839C837B010E
:100790008C01110FEE08FE2C870129813A814B81D3
:1007A0005C816E2D7E2D8E2D9E2D0CE00E949D0E67
:1007B00029833A834B835C836D837E838F83988701
:1007C000209390294A81409391295B8150939229EB
:1007D0008C81809393296093942970939529BF818C
:1007E000B0939629E885E093972929853A854B852A
:1007F0005C8589819A81AB81BC81280F391F4A1F92
:100800005B1F29873A874B875C8791E0A91AB1085B
:1008100009F05DCFF6013497408251826282738283
:10082000CA01B9010E940B0D20E030E040E05BE31B
:1008300069837A838B839C8369817A818B819C8194
:100840000E94970D69837A838B839C8369817A8167
:100850008B819C810E940A0E69837A838B839C839F
:10086000D4016D937D938D939D934D01EF85F88910
:10087000EA52F94209F00BCF0FE11AE2ED85FE854D
:1008800081919191A191B191ED87FE8789839A839E
:10089000AB83BC8320E030E040E251E4BC01CD01F9
:1008A0000E94970D69837A838B839C8369817A8107
:1008B0008B819C810E94DA0C462F572FD8014D93D3
:1008C0005D938D01E6EBF9E22D853E85E217F30796
:1008D000A9F680E06096CDBFDEBFDF91CF911F917A
:1008E0000F91FF90EF90DF90CF90BF90AF909F90CF
:1008F0008F907F906F905F904F903F902F900895D2
:10090000CF92DF92EF92FF920F931F93CF93DF93DB
:10091000CDB7DEB72697CDBFDEBF0E940202809121
:100920001D2A90911E2A9C0150E040E029833A83C1
:100930004B835C83CA01B9010E94090D20E030E0BD
:1009400040E85AE369837A838B839C8369817A8147
:100950008B819C810E94970D8B018E839D8320E06B
:1009600030E04AE754E469831A838B839C8369816E
:100970007A818B819C810E94970D6B017C0198018B
:100980004E815D8160E070E080E89FE30E94FB0B98
:100990009B01AC01C982DA82EB82FC8269817A8197
:1009A0008B819C810E94680C69837A838B839C83F2
:1009B00069817A818B819C810E94DA0C7F936F938D
:1009C0008CE896E69F938F930E9437100F900F90BC
:1009D0000F900F9080E02696CDBFDEBFDF91CF91C4
:1009E0001F910F91FF90EF90DF90CF900895CF93DC
:1009F000DF9300D000D0CDB7DEB70E94CB0180914D
:100A00001B2A90911C2A9C0150E040E029833A83E4
:100A10004B835C83CA01B9010E94090D20E030E0DC
:100A200040E85AE369837A838B839C8369817A8166
:100A30008B819C810E94970D20E030E040EC51E4D6
:100A400069837A838B839C8369817A818B819C8182
:100A50000E94970D20E030E040E451E469837A83FE
:100A60008B839C8369817A818B819C810E94FB0BA3
:100A700069837A838B839C8369817A818B819C8152
:100A80000E94DA0C7F936F9388E996E69F938F9389
:100A90000E9437100F900F900F900F9080E02496D7
:100AA000CDBFDEBFDF91CF910895CF93DF9300D00C
:100AB00000D0CDB7DEB788ED84BF81E080936100C0
:100AC0008091630080FDFCCF88E08093610490E119
:100AD0009093620490917404987F90937404909121
:100AE000740492609093740490917404977F90932F
:100AF000740490E79093010490930604809301049A
:100B00008093060490E8909301049093050484E098
:100B10008093410480934504809362042091720481
:100B20002093720420E22093620420917504287FB0
:100B300020937504209175042460209375042091FE
:100B40007504277F2093750420E42093620420918C
:100B50007604287F209376042091760424602093E5
:100B6000760420917604277F209376049093620484
:100B700090917704987F9093770490917704946094
:100B80009093770490917704977F9093770491E006
:100B90009093620490917004987F90937004909168
:100BA000700494609093700490917004977F909378
:100BB000700492E09093620490917104987F9093F6
:100BC00071049091710494609093710490917104F8
:100BD000977F909371041092E405809301048093B1
:100BE00005048091000A87608093000A8091010AC1
:100BF00087608093010A8091090A8E7F8093090A99
:100C000081E792E08093360A9093370A80912329F6
:100C1000282F30E050E040E029833A834B835C8307
:100C2000CA01B9010E940B0D2AE037ED43E25CE3F3
:100C300069837A838B839C8369817A818B819C8190
:100C40000E94970D20E030E44CE154E469837A83FC
:100C50008B839C8369817A818B819C810E94970D13
:100C600069837A838B839C8369817A818B819C8160
:100C70000E94DA0C462F572F40933C0A50933D0AAE
:100C80008091010A8F7B8093010A809147018160E6
:100C9000809347018091520181608093520180913D
:100CA000500188648093500180915001816080934D
:100CB00050018091800A84608093800A8091810A2B
:100CC0008093810A8091840A8E7F8093840A809128
:100CD000850A81608093850A8FEF9FEF80938C0A4D
:100CE00090938D0A8091800A81608093800A809120
:100CF00021118093FC29809120118093FB29809100
:100D0000A00080618093A0008091A1008260809308
:100D1000A100809102068261809302068091030601
:100D20008093030630E430930506809102068064C8
:100D300080930206809100068160809300060E94E5
:100D4000B30B10928229109283292496CDBFDEBF67
:100D5000DF91CF910895CF93DF9300D000D0CDB72E
:100D6000DEB7853608F03FC0282F30E050E040E085
:100D700029833A834B835C83CA01B9010E940B0D1E
:100D80002AE037ED43E25CE369837A838B839C83BB
:100D900069817A818B819C810E94970D20E030E4EB
:100DA0004CE154E469837A838B839C8369817A81E3
:100DB0008B819C810E94970D69837A838B839C83AE
:100DC00069817A818B819C810E94DA0C462F572F92
:100DD00040933C0A50933D0A80E02496CDBFDEBF8D
:100DE000DF91CF9108958FEFF8CF9C012C533109FB
:100DF000233C314060F466E070E00E946F0E609327
:100E00002329809123290E94AB0680E008959C014C
:100E10002F5F31402232314030F469E170E00E94AE
:100E20006F0E605CECCF8AE080932329EACF80913B
:100E3000FA29811107C08091FE29811105C081E046
:100E40008093FE2980E008958130E1F71092FE2919
:100E5000F9CFCDB7DEB72697CDBFDEBF0E945505CF
:100E6000789481E08093FD2984EA96E60E944B10F5
:100E700088EB96E60E944B1088EC96E60E944B1099
:100E80001092FE29D12C1E8210E094E0692E22E0FF
:100E9000C22E3AE0B32EAA24A39443E0742E5BE55D
:100EA000E52E57E6F52E0E94DF0B8091B7298130A1
:100EB00041F488EB99E20E94470A1092B7291092F8
:100EC000B82980911C29813099F40E947D0160929B
:100ED00005040E94AF010E94CB0180911A2A813043
:100EE00049F48091062A8E7F8093062A10921A294F
:100EF0001D8329C08230E1F790911B29923009F0BF
:100F000063C021E0210F2D831A31E8F08091062A79
:100F100090911A29892BB9F40E94020280911F290D
:100F20009091052A981708F04DC09B9DC00111248F
:100F30008093032A9093042AC0921C298DED96E693
:100F40000E944B101E820E94DF0B8091B7298130D6
:100F500041F488EB99E20E94470A1092B729109257
:100F6000B82980911C29823009F05AC08091032A47
:100F70009091042A0E94F5060E9476018091200A31
:100F80009091210A029738F18091200A9091210ACC
:100F90004E9708F50E94CB0190911A2A80911B2947
:100FA000913009F078C0813099F41D811F5F3D8137
:100FB0003A3130F080931C298BEE96E60E944B105C
:100FC0001D8309C090E0B4CF80931B291D82BBCF45
:100FD00090931B291D828091200A9091210A8732CB
:100FE0009240F0F08091200A9091210A8835924039
:100FF000C8F38091200A9091210A8935924080F0AF
:101000008091200A9091210A8C36924048F40E94E7
:10101000CB0151E05E8380911A2A843009F01E8250
:101020000E94DF0B8091B729813041F488EB99E26F
:101030000E94470A1092B7291092B82980911C2962
:10104000833009F072C08091200A9091210A0297A2
:1010500008F46BC08091200A9091210A4E9708F005
:1010600064C00E94CB0180911A2A823008F045C0EA
:1010700000911B290130E9F51D811F5F8D818A31A7
:1010800040F00E94AF0100931C2987E097E60E9480
:101090004B101D834AC0933019F58330F1F44E8113
:1010A0004130D9F48091FE298130B9F41D811F5F50
:1010B0005D815A3108F484CF8091062A898380911A
:1010C0001A299981982B9E83911110C00E94A50125
:1010D00070921C2989EF96E671CF70921B297ACF06
:1010E000823009F478CF10921B2975CFE1E0EE83AE
:1010F00067CFA0921B291D8218C0823009F006C15B
:1011000000911B29023009F0FEC01D811F5F9D81E7
:101110009A3108F4BECF0E94AF0100931C2985E1EB
:1011200097E60E944B101D831E820E94DF0B809168
:10113000B729813041F488EB99E20E94470A109266
:10114000B7291092B82980918A0A90918B0A823E21
:10115000944008F18091F8299091F9294091142A3E
:101160005091152A6091162A7091172A4F5F5F4F90
:101170006F4F7F4F4093142A5093152A6093162A7D
:101180007093172A01968093F8299093F929109269
:101190008A0A10928B0A8091F8299091F929883E49
:1011A000934008F487C01092F8291092F929809191
:1011B000102A9091112AA091122AB091132A019617
:1011C000A11DB11D8093102A9093112AA093122A79
:1011D000B093132A0E94B8028091182A9091192A7C
:1011E0008435914058F08091062A84608093062AC5
:1011F000A0921C2983E297E60E944B108091182A46
:101200009091192A8A34914038F48091062A82FFFD
:1012100003C08B7F8093062A8091032A9091042A31
:1012200020911F292817190669F02091052A2817EF
:10123000190640F0FC01BE9EC001BF9E900D112416
:101240000E94F5060E941F038FE1882E8AE2982EE5
:1012500010E000E0F401819191914F019C0150E078
:1012600040E029833A834B835C83CA01B9010E9421
:10127000090D20E030E040E251E469837A838B83FA
:101280009C8369817A818B819C810E94680C9F93E9
:101290008F937F936F931F930F93FF92EF920E9410
:1012A00037100F5F1F4FCDBFDEBF0330110591F622
:1012B0001092FA29809168048295817080930B2A9C
:1012C00080910B2AD816D9F05FEF80E792E0515059
:1012D00080409040E1F700C0000080916804829552
:1012E000817080930B2A80910B2AD81641F01091BF
:1012F0000B2A113021F40E9417071093FA29D0907D
:101300000B2A1D81D0CD80931B29F5CE8091FE291B
:10131000813071F000911B29023039F41D811F5F6B
:10132000ED81EA3108F4B5CEF6CEC0921B29E3CEAA
:1013300010921B29FACE94E0899FF0011124E65502
:10134000F74D0280F381E02D309709F009948EEF7C
:101350000895BF92CF92DF92EF92FF920F931F9367
:10136000CF93DF93082FD92E7B0110E08CEFB82E9E
:1013700095E0C92EC19EE0011124C050D84D68816E
:101380007981802F9D2D0E940710892BB1F4F8944C
:101390008C81803101F1803219F1883059F4EA8171
:1013A000FB81808190E0B0E0A0E0F7018083918331
:1013B000A283B383789412E2B12C1F5F1232D0F271
:1013C0008B2DDF91CF911F910F91FF90EF90DF90C8
:1013D000CF90BF900895EA81FB8180819181E3CF16
:1013E000EA81FB8180819181A281B381DECFBF92AE
:1013F000CF92DF92EF92FF920F931F93CF93DF93E1
:10140000D82EC92E7B0100E01CEF85E0B82EB09EDF
:10141000E0011124C050D84D688179818D2D9C2D1B
:101420000E940710892B89F4F8948C818031D9F0BF
:10143000803209F11DEF883031F4EA81FB81D70158
:101440008C91808310E0789402E20F5F0232F8F210
:10145000812FDF91CF911F910F91FF90EF90DF903F
:10146000CF90BF900895F70180819181EA81FB813F
:1014700080839183E7CFF70180819181A281B3813D
:10148000EA81FB8180839183A283B383DBCFDF92E8
:10149000EF92FF920F931F93CF93DF93CDB7DEB7F9
:1014A0002897CDBFDEBF7C0162E879E60E94071075
:1014B000892B09F4B9C06FE370E0C7010E94FC0FEB
:1014C000892B09F441C063E879E6C7010E94F70F50
:1014D000082FD92E19821A821B821C82BE016F5FCF
:1014E0007F4F0E94A909182F811112C08C818F9300
:1014F0008B818F938A818F9389818F93DF920F9352
:1015000082E89AE69F938F930E943710CDBFDEBF8B
:1015100022E9E22E28E6F22E1E3F09F476C01F3F94
:101520000CF05DC01C3F09F47AC01D3F09F472C085
:10153000812F2896CDBFDEBFDF91CF911F910F91F4
:10154000FF90EF90DF9008956DE370E0C7010E9477
:10155000FC0F892B09F46CC065E879E6C7010E948D
:10156000F70F082FD92E65E879E690E080E00E9419
:10157000F70F50E040E070E060E00E94BA0E6D832B
:101580007E838F839887BE016B5F7F4F802F9D2D59
:101590000E94F709182F81111DC019821A821B821F
:1015A0001C82BE016F5F7F4F802F9D2D0E94A90975
:1015B0008C818F938B818F938A818F9389818F9375
:1015C000DF920F9382E89AE69F938F930E943710E1
:1015D000CDBFDEBF9CE9E92E98E6F92E9DCF1F3FD7
:1015E00039F01111A5CF82E49AE60E944B10A0CFEA
:1015F000FF92EF9287E899E69F938F930E943710AE
:101600000F900F900F900F9093CFFF92EF9286EB79
:1016100099E6F2CFFF92EF928CED99E6EDCFDF9253
:101620000F938FE09AE6E8CF8BE8E82E88E6F82E55
:1016300000E01FEFB4E00B9FF0011124E655F74DD9
:1016400060817181C7010E940710892B29F4802FC6
:101650000E949B09182F0CE10F5F0C3158F300E03A
:10166000D12C5ACFCF92DF92EF92FF920F931F931C
:10167000CF93DF9300D000D0CDB7DEB787E49AE6F2
:101680000E944B100AEA18E22EE5E22E2AE6F22E1C
:10169000D801ED91FC918081882351F0FF93EF9365
:1016A000FF92EF920E9437100F900F900F900F90C3
:1016B0000C5F1F4FB9E20A311B0751F785E69AE626
:1016C0000E944B1080E0E82E88E2F82E10E000E047
:1016D0009CE7C92E9AE6D92E19821A821B821C8297
:1016E000F70180819181DC012C912223D1F0BE0190
:1016F0006F5F7F4F0E94A9098C818F938B818F939D
:101700008A818F9389818F93F70181818F93808163
:101710008F931F930F93DF92CF920E943710CDBF0C
:10172000DEBF0F5F1F4F95E0E90EF11C023211057D
:1017300099F68DE89AE60E944B1080E02496CDBF82
:10174000DEBFDF91CF911F910F91FF90EF90DF905F
:10175000CF9008959091040895FFFCCF80930208E4
:1017600090E080E008958AE299E280933C2990938A
:101770003D29E0E0F8E08BE591E080879187858165
:10178000806E85838681806C8683E0E0F4E021E0D2
:10179000218392E09283E0E2F8E047E450E1408761
:1017A00051878581816E85838681806C8683E0E4A4
:1017B000F4E02183928388E0818386830895809179
:1017C000040887FF17C0909100089D3099F0809120
:1017D000B629E82FF0E0E854F64D9A3029F08F5FF3
:1017E0008093B6299083089510821092B62981E0E3
:1017F0008093B72908955058BB27AA270E94130C3D
:101800000C945D0D0E944F0D38F00E94560D20F093
:1018100039F49F3F19F426F40C944C0D0EF4E09526
:10182000E7FB0C94460DE92F0E946E0D58F3BA1792
:10183000620773078407950720F079F4A6F50C94E6
:10184000900D0EF4E0950B2EBA2FA02D0B01B901CF
:1018500090010C01CA01A0011124FF27591B99F026
:10186000593F50F4503E68F11A16F040A22F232F32
:10187000342F4427585FF3CF469537952795A79582
:10188000F0405395C9F77EF41F16BA0B620B730B29
:10189000840BBAF09150A1F0FF0FBB1F661F771F9A
:1018A000881FC2F70EC0BA0F621F731F841F48F44F
:1018B000879577956795B795F7959E3F08F0B0CFD8
:1018C0009395880F08F09927EE0F979587950895BF
:1018D0000E947C0C0C945D0D0E94560D58F00E94E5
:1018E0004F0D40F029F45F3F29F00C94460D511143
:1018F0000C94910D0C944C0D0E946E0D68F399237D
:10190000B1F3552391F3951B550BBB27AA276217FB
:101910007307840738F09F5F5F4F220F331F441F08
:10192000AA1FA9F335D00E2E3AF0E0E832D091503C
:101930005040E695001CCAF72BD0FE2F29D0660F29
:10194000771F881FBB1F261737074807AB07B0E86C
:1019500009F0BB0B802DBF01FF2793585F4F3AF072
:101960009E3F510578F00C94460D0C94910D5F3F0D
:10197000E4F3983ED4F3869577956795B795F795F8
:101980009F5FC9F7880F911D9695879597F90895E0
:10199000E1E0660F771F881FBB1F6217730784077C
:1019A000BA0720F0621B730B840BBA0BEE1F88F78B
:1019B000E09508950E94760D88F09F5798F0B92F12
:1019C0009927B751B0F0E1F0660F771F881F991F74
:1019D0001AF0BA95C9F714C0B13091F00E94900D79
:1019E000B1E008950C94900D672F782F8827B85F89
:1019F00039F0B93FCCF3869577956795B395D9F7CC
:101A00003EF490958095709561957F4F8F4F9F4FD5
:101A10000895E89409C097FB3EF4909580957095E1
:101A200061957F4F8F4F9F4F9923A9F0F92F96E92A
:101A3000BB279395F695879577956795B795F1119F
:101A4000F8CFFAF4BB0F11F460FF1BC06F5F7F4F3C
:101A50008F4F9F4F16C0882311F096E911C077234E
:101A600021F09EE8872F762F05C0662371F096E857
:101A7000862F70E060E02AF09A95660F771F881F26
:101A8000DAF7880F9695879597F9089597F99F67E4
:101A900080E870E060E008959FEF80EC08950024F6
:101AA0000A941616170618060906089500240A94C3
:101AB00012161306140605060895092E0394000C49
:101AC00011F4882352F0BB0F40F4BF2B11F460FFD8
:101AD00004C06F5F7F4F8F4F9F4F089557FD905801
:101AE000440F551F59F05F3F71F04795880F97FBE2
:101AF000991F61F09F3F79F087950895121613069C
:101B00001406551FF2CF4695F1DF08C016161706CA
:101B10001806991FF1CF86957105610508940895FF
:101B2000E894BB2766277727CB0197F908950E9491
:101B3000AA0D0C945D0D0E944F0D38F00E94560DB9
:101B400020F0952311F00C94460D0C944C0D1124AB
:101B50000C94910D0E946E0D70F3959FC1F3950F3B
:101B600050E0551F629FF001729FBB27F00DB11D21
:101B7000639FAA27F00DB11DAA1F649F6627B00DB1
:101B8000A11D661F829F2227B00DA11D621F739F9A
:101B9000B00DA11D621F839FA00D611D221F749FA8
:101BA0003327A00D611D231F849F600D211D822FEF
:101BB000762F6A2F11249F5750409AF0F1F0882316
:101BC0004AF0EE0FFF1FBB1F661F771F881F915043
:101BD0005040A9F79E3F510580F00C94460D0C949F
:101BE000910D5F3FE4F3983ED4F386957795679522
:101BF000B795F795E7959F5FC1F7FE2B880F911D6D
:101C00009695879597F9089519F416F40C944C0D50
:101C10000C944A0E0E94760DB8F39923C9F3B6F3DB
:101C20009F57550B87FF0E94580E0024A0E640EAFC
:101C3000900180585695979528F4805C660F771F21
:101C4000881F20F026173707480730F4621B730BF4
:101C5000840B202931294A2BA69517940794202517
:101C600031254A2758F7660F771F881F20F026175F
:101C70003707480730F4620B730B840B200D311DBE
:101C8000411DA09581F7B901842F9158880F969531
:101C9000879508959F3F31F0915020F4879577956F
:101CA0006795B795880F911D9695879597F9089533
:101CB00091505040660F771F881FD2F70895DB01BF
:101CC0008F939F930E94920EBF91AF91A29F800D20
:101CD000911DA39F900DB29F900D11240895AA1BF2
:101CE000BB1B51E107C0AA1FBB1FA617B70710F007
:101CF000A61BB70B881F991F5A95A9F78095909539
:101D0000BC01CD010895A29FB001B39FC001A39F64
:101D1000700D811D1124911DB29F700D811D112424
:101D2000911D08950E94830EA59F900DB49F900D64
:101D3000A49F800D911D1124089597FD1094002EED
:101D4000083098F00850232F342F452F562F672F37
:101D5000782F892F912DF4CF1594979587957795A6
:101D6000679557954795379527950A95AAF71124B2
:101D7000002D0895A6E0B0E0E0ECFEE00C94151311
:101D80008D839E836B017A016115710529F0ED81C8
:101D9000FE81DB01ED93FC93E114F10429F0C7010E
:101DA0000297839708F0E3C0AD80BE8095012F5F56
:101DB0003F4F2D833E83D5011C91812F90E00E94DF
:101DC000EE0F892B89F71D3209F07CC0ED81FE8171
:101DD000108195012E5F3F4F2D833E8301E0E1147A
:101DE000F10409F4E9C0F0E1EF16F10409F0F1C0E3
:101DF000103371F4AD81BE818C918F7D883509F0EF
:101E0000BBC011961C9111971296AD83BE830260E0
:101E100040E1E42EF12C88248A94982CA82C5FE0D1
:101E2000B52E80E019821A821B821C8227010F2C9A
:101E3000000C66087708E0EDE10FEA3060F09FEBF8
:101E4000910FE9EC9A3130F09FE9910F9A3108F047
:101E500051C0E9EAE10FEE151F040CF04BC08F3FB3
:101E600059F129813A814B815C8182169306A4063F
:101E7000B506F0F1A301920169817A818B819C8181
:101E80000E945F0E69837A838B839C838E2F90E000
:101E9000B0E0A0E029813A814B815C81280F391F95
:101EA0004A1F5B1F29833A834B835C8328173907BA
:101EB0004A075B07E8F081E0AD81BE811D91AD83EB
:101EC000BE83B9CF1B3239F4AD81BE811C91F501BF
:101ED0003296ED83FE8300E082CF10E338E0E32EFC
:101EE000F12C88248A94982CA82C2FE1B22E99CF1B
:101EF0008FEFE2CFC114D10449F0882379F12D810D
:101F00003E8121503109F6012083318300FF0FC04B
:101F100029813A814B815C8150954095309521957E
:101F20003F4F4F4F5F4F29833A834B835C838F3FF3
:101F300069F482E290E080934029909341298FEFE9
:101F40009FEFDC0189839A83AB83BC8369817A81AB
:101F50008B819C812696E0E10C942E1301FFD6CF55
:101F6000ED81FE813297D601ED93FC93CFCF19829C
:101F70001A821B821C82EACFE114F10409F4ADCF6E
:101F800010E3BAE0EB16F104E9F0E0E1EE16F1043B
:101F900009F43ECFF8E0EF16F10409F4A2CF6FEF99
:101FA0007FEFCB0197010F2C000C440B550B0E94C7
:101FB000F11249015A0135CF103309F41BCF8AE0E1
:101FC000E82EF12C99E9892E982CA82C99E1B92EAC
:101FD00028CF9AE0E916F104E9F6F4CF91110C94B8
:101FE0004A12803219F089508550C8F7089548E3A5
:101FF00059E20E9410100895FC018191861721F08A
:102000008823D9F7992708953197CF010895FB01C7
:10201000DC018D91019080190110D9F3990B08957D
:10202000FA01A191B081009719F41097E1F0CD0168
:10203000DC01CD010D90002011F4C00113C0FB01A3
:102040002191222319F02015D9F7F3CFFB0121911B
:10205000201519F41E92119606C02223C1F70D9087
:102060000020A1F7D001FA01A193B0830895B0E058
:10207000A0E0EDE3F0E10C942313FE0135966191AD
:102080007191AF0180913C2990913D290E94771078
:10209000E2E00C943C130F931F93CF93DF93E091F6
:1020A0003C29F0913D29238100E010E021FD0EC084
:1020B0000FEF1FEFC801DF91CF911F910F9108958E
:1020C0000995892B11F00FEF1FEFCE01EC018991DB
:1020D00060913C2970913D29DB011896ED91FC91AE
:1020E0008111EECF8AE00995892B21F3E1CFAFE092
:1020F000B0E0EDE7F0E10C9413137C013B018A01A1
:10210000DC0116961D921C92179713968C9181FFF5
:10211000BEC19AE0292EFE0131964F01D7011396D8
:102120009C91F30193FD859193FF81913F01882359
:1021300009F444C1853239F493FD859193FF81916F
:102140003F01853229F4B70190E00E946312E6CF87
:10215000B12C412C512CBFE1B51538F08B3209F16F
:1021600088F4803201F1833221F157FC3AC020ED2E
:10217000280F2A3040F556FE1FC0B29C200D1124B6
:10218000B22E06C08D3291F0803379F7689450F802
:10219000F30193FD859193FF81913F018111DBCF85
:1021A00020C0689451F8689452F8F2CF689453F8BC
:1021B000EFCF689454F8ECCF429C200D1124422EAE
:1021C000689455F8E5CF8E3229F456FCF7C0689430
:1021D00056F8DECF8C3619F4689457F8D9CF883684
:1021E000B9F2982F9F7D95549330C0F08336A1F1BA
:1021F0008337C1F1833509F05BC0D801CD90DD9004
:102200008D016B2D70E056FC02C06FEF7FEFC601B1
:102210000E944D125C01689457F80AC00C5F1F4F72
:10222000EFE3E983AA24A394B12C6401E89457F85E
:1022300053FC04C04A141B0409F018F5342CA114F3
:10224000B10431F5332009F469CFB70180E290E0A1
:102250000E9463123A94F6CFD8018C9189830E5F65
:102260001F4FE0CFF801C190D1908F016B2D70E02E
:1022700056FC02C06FEF7FEFC6010E9458125C014E
:10228000D5CFB70180E290E00E9463124A94D2CF8A
:10229000F60157FC859157FE81916F01B70190E0DF
:1022A0000E94631231103A94B1E0AB1AB108C7CF63
:1022B000843619F0893609F071C0F80157FE67C0FD
:1022C00061917191819191918F01E52DEF76DE2ED3
:1022D00097FF09C090958095709561957F4F8F4FBE
:1022E0009F4F6894D7F82AE030E0A4010E9493122F
:1022F000C82EC818AC2C5D2CD6FE0CC0E89450F843
:10230000CB1440F4D4FE05C0D2FC03C05D2D5E7E2C
:10231000552EAB2C54FE93C0FE01EC0DF11D8081B7
:10232000803309F085C0652D697E562E752D787035
:10233000372E53FC93C050FE8DC0BC2CA41410F457
:10234000B40CBA1854FE90C0B70180E390E00E942C
:10235000631252FE07C088E751FC88E590E0B701A0
:102360000E946312CB1408F48BC0CA94D12C8FEF57
:10237000C81AD80AC80CD91CD6018E916D01B701B4
:1023800090E00E9463128C149D04B1F75BCF6191C1
:102390007191072E000C880B990B96CFD52CE894E1
:1023A000D4F82AE0853729F1F52DF97FDF2E803723
:1023B000A1F058F48835A1F08F36D1F0F70186816D
:1023C00097812F96E2E10C942C138837B9F7D4FE4D
:1023D00002C06894D2F820E10CC06894D4F8F7CF1A
:1023E00054FE03C02F2F2660D22E20E132E002C01F
:1023F00028E030E0F801D7FE15C04191519161917C
:1024000071914C875D876E877F878F01A4016C85F2
:102410007D858E859F850E949312C82EC818E894EA
:10242000D7F868CF81919191AC0170E060E0E9CF7D
:1024300052FC02C0A3947ACFA394A39477CF852DA6
:10244000867809F473CFF6CFB70180E290E00E945E
:102450006312A394A414C0F3312C74CF342C3A1813
:10246000A41408F46FCFF8CF852D867809F47ACFBD
:102470008BE251FE80E257FC8DE2B70190E070CF15
:10248000B70180E390E00E946312BA946BCF8FEFA4
:102490009FEF97CF992788270895FC0105906150F9
:1024A00070400110D8F7809590958E0F9F1F08956A
:1024B000FC016150704001900110D8F78095909513
:1024C0008E0F9F1F08950F931F93CF93DF93182FA5
:1024D000092FEB018B8181FD09C01FEF0FEF812FC9
:1024E000902FDF91CF911F910F91089582FF14C01B
:1024F0002E813F818C819D81281739073CF4E8812A
:10250000F981CF0101968883998310838E819F8101
:1025100001968E839F83E3CFE885F985812F099506
:10252000892BA1F3DACFFA01AA27283051F1203103
:1025300081F1E8946F936E7F6E5F7F4F8F4F9F4F57
:10254000AF4FB1E03ED0B4E03CD0670F781F891F99
:102550009A1FA11D680F791F8A1F911DA11D6A0F67
:10256000711D811D911DA11D20D009F468943F911A
:102570002AE0269F11243019305D3193DEF6CF0119
:102580000895462F4770405D4193B3E00FD0C9F7DF
:10259000F6CF462F4F70405D4A3318F0495D31FD4C
:1025A0004052419302D0A9F7EACFB4E0A69597959F
:1025B000879577956795BA95C9F700976105710575
:1025C00008959B01AC010A2E0694579547953795BF
:1025D0002795BA95C9F7620F731F841F951FA01D19
:1025E0000895A1E21A2EAA1BBB1BFD010DC0AA1F54
:1025F000BB1FEE1FFF1FA217B307E407F50720F06C
:10260000A21BB30BE40BF50B661F771F881F991FE6
:102610001A9469F760957095809590959B01AC012F
:10262000BD01CF0108952F923F924F925F926F921A
:102630007F928F929F92AF92BF92CF92DF92EF9252
:10264000FF920F931F93CF93DF93CDB7DEB7CA1BD3
:10265000DB0BCDBFDEBF09942A88398848885F84A8
:102660006E847D848C849B84AA84B984C884DF8032
:10267000EE80FD800C811B81AA81B981CE0FD11D16
:0C268000CDBFDEBFED010895F894FFCF40
:10268C00525F5050203D2025640D0A00565F435088
:10269C00203D2025640D0A0050524F4455435449A7
:1026AC004F4E204D4F44452E2E2E0D00494E495471
:1026BC0049414C495A45442E2E2E0D004355525239
:1026CC00454E542053544154453A20412E2E2E0D44
:1026DC000053544154452041202D3E20420D0053BF
:1026EC00544154452042202D3E20410D005354416D
:1026FC0054452042202D3E20430D00535441544557
:10270C002043202D3E20410D00535441544520437D
:10271C00202D3E20420D004F76657274656D7065FC
:10272C0072617475726520636F6E646974696F6E23
:10273C002064657465637465642E2E2E73746F70DB
:10274C0070696E67206368617267652E200D0043A7
:10275C00757272656E7420506861736520256420F3
:10276C003D2025660D0A0063743056616C0063745D
:10277C003156616C0063743256616C0049726D7332
:10278C00300049726D73310049726D733200707094
:10279C0056616C00637056616C0070696C6F7400EC
:1027AC0074656D70657261747572650064757479A9
:1027BC004379636C650073797374696D6500736537
:1027CC006374696D650061757854696D657231006B
:1027DC0061757854696D657232006C6F636B7374DC
:1027EC0061746500627574746F6E737461746500E6
:1027FC004963616C006D61784D61696E73006D6148
:10280C007843757272656E74006D696E4375727281
:10281C00656E74006D6F6465006C6F636B00636153
:10282C00626C65436F6E66007377697463684D6F95
:10283C006465006572726F72006E657874537461B2
:10284C007465006D617843617061636974790063CC
:10285C00686172676543757272656E7400496D6567
:10286C00617375726564004973756D00636861729C
:10287C00676544656C6179006163636573730073AC
:10288C00746174757300706172616D5F676574005B
:10289C00706172616D5F736574006C65645F6F6EFF
:1028AC00006C65645F6F6666006C65645F746F676F
:1028BC00676C650070776D5F6F6E0070776D5F6F22
:1028CC00666600737372315F6F6E00737372315F83
:1028DC006F666600737372325F6F6E007373723261
:1028EC005F6F666600737372335F6F6E0073737223
:1028FC00335F6F666600616C6C5F7373725F6F6ED3
:10290C0000616C6C5F7373725F6F666600756E6CE2
:10291C006F636B5F6361626C65006C6F636B5F6FA1
:10292C0066660072656C61795F6F6E0072656C61D2
:10293C00795F6F666600726561645F6370007265D3
:10294C0061645F707000726561645F6374006D65D3
:10295C00617375726543757272656E740072656130
:10296C00645F74656D700070705F6F686D0063708C
:10297C005F766F6C74003F3F003D004641494C2E22
:10298C0020436F6D6D616E64202573206E6F742013
:10299C00666F756E6420696E20636F6D6D616E6419
:1029AC00207461626C65210D0A004641494C2E2051
:1029BC004661696C656420746F2065786563757415
:1029CC006520636F6D6D616E64202573210D0A00A7
:1029DC004641494C2E20496E76616C6964206F70BB
:1029EC0074696F6E732F706172616D65746572734B
:1029FC0020666F7220636F6D6D616E64202573218C
:102A0C000D0A004641494C2E20506172616D65746F
:102A1C006572202573206E6F7420666F756E64204E
:102A2C00696E20706172616D65746572207461628B
:102A3C006C65210D0A004F4B2E0D00242041766150
:102A4C00696C61626C6520636F6D6D616E64733A65
:102A5C000D00242025730D0A002420446566696E40
:102A6C00656420706172616D65746572733A0D00F6
:102A7C00242025643A202573203D20256C750D0AF1
:102A8C00002420537461747573206D6573736167D2
:092A9C006520656E6420230D0025
:102AA50073672429107A67262910816728291088D9
:102AB500671F2A108E67212A109467232A109A67A8
:102AC5001D2A10A0671B2A10A6671A2A08AC6718CA
:102AD5002A10B867232908C267142A20CA67102A52
:102AE50020D2670E2A10DC670C2A10E6670A2A082E
:102AF500F0670B2A08FC6721291001682029080ABC
:102B0500681F290815681E29082068092A082568EC
:102B1500082A082A68072A0834681D2908EA671C54
:102B250029083F68062A0845681B29084F68052AB1
:102B3500085B68032A106968012A107368FF291069
:102B450078681A29088468FE29088B68320B926810
:102B5500A9099C68F709A6686C01AD687101B5689B
:102B65006701C0687601C7687D01CF688701D768AE
:102B75008C01E0689101E8689601F1689B01F968AC
:102B8500A0010269A5010D69AF011B6978021969E8
:102B950098022669B9012F69C1013869C6014269E0
:102BA500CB014A690202526939025A691F036969F0
:102BB500B802736980047A69F7043C0101010620B3
:102BC5002064003200020002000200000002000042
:082BD5000000AA0B0000000043
:0400000300000200F7
:00000001FF
