:100000000C9448000C9452000C9452000C94520032
:100010000C9452000C9452000C9452000C94520018
:100020000C9452000C9452000C9452000C94520008
:100030000C9452000C9452000C9452000C945200F8
:100040000C9452000C9452000C9452000C945200E8
:100050000C9452000C9452000C9452000C945200D8
:100060000C9452000C9452000C9452000C945200C8
:100070000C9452000C9452000C9452000C945200B8
:100080000C9452000C9452000C9452000C945200A8
:1000900011241FBECFEFCDBFDFE3DEBF0E94AC0057
:1000A0000C94B9000C94000088ED84BF87E0809325
:1000B0006100E0E0F8E081EA91E080879187868145
:1000C00080648683868180688683E0E0F4E08081B6
:1000D0008160808380818D7F808380818064808344
:1000E0008581806485830895E0E0F8E0948195FF40
:1000F000FDCF809302080895EF92FF920F931F9314
:10010000CF93DF938C017C01C0E0D0E006C0F70103
:1001100081917F010E9474002196F80101900020D6
:10012000E9F73197E01BF10BCE17DF0780F3DF9182
:10013000CF911F910F91FF90EF900895E0E0F8E0CC
:1001400084818823ECF7809100080895E0E0F4E0D2
:1001500087818064878308950E94540087EB91E42F
:100160000E947C000E949E000E9474000E94A600D3
:06017000F9CFF894FFCF67
:100176004C4544206F6E0A004C4544206F66660A63
:10018600004C454420746F67676C65640A00496ECD
:1001960076616C696420636F6D6D616E64210A001F
:1001A60056616C696420636F6D6D616E64733A0AA3
:0801B6000048656C6C6F0A0043
:00000001FF
