S019000061746D343830385F756172745F746573742E73726563BB
S11300000C9448000C9452000C9452000C9452002E
S11300100C9452000C9452000C9452000C94520014
S11300200C9452000C9452000C9452000C94520004
S11300300C9452000C9452000C9452000C945200F4
S11300400C9452000C9452000C9452000C945200E4
S11300500C9452000C9452000C9452000C945200D4
S11300600C9452000C9452000C9452000C945200C4
S11300700C9452000C9452000C9452000C945200B4
S11300800C9452000C9452000C9452000C945200A4
S113009011241FBECFEFCDBFDFE3DEBF0E9472008D
S11300A00C9480000C940000E0E0F8E087E490E118
S11300B080879187868180648683E0E0F4E0808194
S11300C08160808380818D7F808380818064808350
S11300D08581806485830895E0E0F4E0878180640D
S11300E0878308950E9454000E946C002FE382E4E9
S11300F09FE0215080409040E1F700C00000F4CF21
S1070100F894FFCF9D
S9030000FC
