:100200000C9448010C9465010C9465010C946501F3
:100210000C9465010C9465010C9465010C946501C6
:100220000C9465010C9465010C9465010C946501B6
:100230000C94F3050C9465010C9465010C94650114
:100240000C9465010C9405060C9465010C946501F1
:100250000C94DD050C9465010C9465010C9465010A
:100260000C9465010C9465010C9465010C94650176
:100270000C9465010C9465010C9465010C94650166
:100280000C9465010C9465010C9465010C94650156
:1002900011241FBECFEFCDBFDFE3DEBF19E2A0E028
:1002A000B8E2EFE5F3E202C005900D92A833B10782
:1002B000D9F72AE2A8E3B9E201C01D92A23AB20737
:1002C000E1F70E9433060C94F00F0C94000188E0D3
:1002D0008093670480E0089588E08093650480E05F
:1002E000089588E08093660480E00895E0E0FAE0F5
:1002F00081818064818380E00895E0E0FAE081817B
:100300008F7B818384E08093050480E0089580E4FE
:100310008093050480E0089580E48093060480E0E3
:10032000089580E28093050480E0089580E2809340
:10033000060480E0089580E18093050480E008953C
:1003400080E18093060480E00895E0E0F4E080E43A
:10035000858380E2858380E1858380E00895E0E005
:10036000F4E080E4868380E2868380E1868380E017
:10037000089580E88093050484E08093450480E03C
:10038000089588E08093050480E0089588E08093D4
:10039000060480E0089581E08093060680930806B5
:1003A00080910B0680FFFCCF809110069091110682
:1003B000809364299093652921E020930B06853D65
:1003C00033E0930718F0209363291AC09C012D5540
:1003D00033402633310510F482E007C09C01215DD3
:1003E00032402F34310520F483E08093632908C024
:1003F0004A978534910510F484E0F7CF1092632971
:1004000080E008951092060681E0809308068091AE
:100410000B0680FFFCCF809110069091110680930F
:1004200066299093672921E020930B069C012550B3
:1004300031402B3D310510F484E10FC09C01275958
:1004400031092534310510F480E207C08C5491093C
:100450008C9710F08DE001C08FE380934E2980913E
:100460005029882321F080911F2980934E2980E014
:10047000089585E08093060681E0809308068091C8
:100480000B0680FFFCCF809110069091110680939F
:1004900024299093252981E080930B0696E0909380
:1004A00006068093080680910B0680FFFCCF8091A2
:1004B000100690911106809326299093272981E0B8
:1004C00080930B0697E09093060680930806809130
:1004D0000B0680FFFCCF809110069091110680934F
:1004E00028299093292981E080930B0680E00895C4
:1004F00080E88093050484E0809346042FE382E43F
:100500009FE0215080409040E1F700C000000E9431
:10051000B9019091680481E0292F247092FF80E056
:1005200080935329211102C08EEF089580E0089531
:1005300080E88093060484E0809345042FEB87E2F3
:1005400099E0215080409040E1F700C000000E94F7
:10055000B9019091680481E0292F247092FF80E016
:1005600080935329222311F08EEF089580E008959F
:10057000809100068E7F8093000680910206809312
:1005800002068EE1809306068091030680668093C2
:1005900003068091000681608093000689EF90E059
:1005A0000197F1F700C0000081E080930806809178
:1005B0000B0680FFFCCFA0911006B0911106809130
:1005C0004829A81BB10987FDB3952091472930E040
:1005D0000E941D0BDC01CB0180589F4FAF4FBF4FD6
:1005E000892F9A2FAB2FBB27809361299093622983
:1005F000809100068E7F80930006809102068061C4
:100600008093020680910306809303068091000682
:1006100081608093000681E080930B0680E008955E
:100620002F923F924F925F926F927F928F929F9202
:10063000AF92BF92CF92DF92EF92FF920F93CF9340
:10064000DF93CDB7DEB72C97CDBFDEBF24E239E212
:100650002B873C87AAE3AA2EA9E2BA2EB6EF2B2E4F
:10066000B9E23B2E29863A86412C512C3201AB85CA
:10067000BC858D919C918093442A9093452AF501E5
:1006800080819181A281B3818093F2299093F32993
:10069000A093F429B093F529812CF2E09F2E0E94BB
:1006A00039028091442A9091452A8093982A909308
:1006B000992AAB85BC85CD90DC90C092442AD0921B
:1006C000452AC81AD90AC092B029D092B1290D2C56
:1006D000000CEE08FF08FE2CED2CDC2CCC248091C5
:1006E000F2299091F329A091F429B091F529C80E2F
:1006F000D91EEA1EFB1EC092522AD092532AE092C3
:10070000542AF092552ABB27F7FCBA95AF2D9E2D9F
:100710008D2DC81AD90AEA0AFB0AC092F229D09292
:10072000F329E092F429F092F529C701B60122E0FD
:1007300095958795779567952A95D1F76093462A81
:100740007093472A8093482A9093492A9B01AC01D1
:100750000E940D0B9B01AC01550F220B322FA901FA
:1007600029833A834B835C839B01AC016981762F9B
:10077000862F962F0CE00E94370B29833A834B83F8
:100780005C836D837E838F83988720934A2A4A8176
:1007900040934B2A5B8150934C2A8C8180934D2A45
:1007A00060934E2A70934F2ABF81B093502AE885F8
:1007B000E093512A29813A814B815C81420E531E7C
:1007C000641E751E31E0831A910809F068CFD501C7
:1007D000CD92DD92ED92FD925D01C301B2010E94C6
:1007E000B90920E030E040E05BE30E94450A0E9446
:1007F000B80AE985FA856193719381939193E987AA
:10080000FA872B853C852E5F3F4F2B873C872A52EA
:10081000394209F02CCF88E699E289839A83D10185
:100820006D917D918D919D911D0120E030E040E220
:1008300051E40E94450A0E948809E981FA81619386
:100840007193E983FA83F2E02F16FAE23F0639F753
:1008500080E02C96CDBFDEBFDF91CF910F91FF904E
:10086000EF90DF90CF90BF90AF909F908F907F9050
:100870006F905F904F903F902F9008958F929F922E
:10088000AF92BF92CF92DF92EF92FF920E9402024C
:10089000609166297091672980E090E00E94B70915
:1008A00020E030E040E85AE30E94450A6B017C01F9
:1008B00020E030E04AE754E40E94450A4B015C0125
:1008C000A701960160E070E080E89FE30E94A9081C
:1008D0009B01AC01C501B4010E9416090E94880960
:1008E0007F936F9384EE9FE59F938F930E94930C69
:1008F0000F900F900F900F9080E0FF90EF90DF909F
:10090000CF90BF90AF909F908F9008950E94CB01A1
:10091000609164297091652980E090E00E94B70998
:1009200020E030E040E85AE30E94450A20E030E051
:1009300040EC51E40E94450A20E030E040E451E4FC
:100940000E94A9080E9488097F936F9380EF9FE51A
:100950009F938F930E94930C0F900F900F900F9086
:1009600080E00895CF9388ED84BF81E0809361009B
:100970008091630080FDFCCF88E08093610490E16A
:100980009093620490917404987F90937404909172
:10099000740492609093740490917404977F909380
:1009A000740490E7909301049093060480930104EB
:1009B0008093060490E8909301049093050484E0EA
:1009C00080934104809345048093620420917204D3
:1009D0002093720420E22093620420917504287F02
:1009E0002093750420917504246020937504209150
:1009F0007504277F20937504C0E4C093620420919E
:100A00007604287F20937604209176042460209336
:100A1000760420917604277F2093760490936204D5
:100A200090917704987F90937704909177049460E5
:100A30009093770490917704977F9093770491E057
:100A40009093620490917004987F909370049091B9
:100A5000700494609093700490917004977F9093C9
:100A6000700492E09093620490917104987F909347
:100A70007104909171049460909371049091710449
:100A8000977F909371041092E40580930104809302
:100A900005048091000A87608093000A8091010A12
:100AA00087608093010A8091090A8E7F8093090AEA
:100AB00081E792E08093360A9093370A6091232968
:100AC00070E080E090E00E94B9092AE037ED43E24F
:100AD0005CE30E94450A20E030E44CE154E40E94CB
:100AE000450A0E94880960933C0A70933D0A8091F0
:100AF000010A8F7B8093010A809147018160809376
:100B00004701809152018160809352018091500190
:100B100088648093500180915001816080935001DE
:100B20008091800A84608093800A8091810A8093FA
:100B3000810A8091840A8E7F8093840A8091850A3D
:100B400081608093850A82EE94E080938C0A909372
:100B50008D0A8091800A81608093800A80912111A2
:100B60008093482980912011809347298091A0008B
:100B700080618093A0008091A10082608093A10099
:100B80008091020682618093020680910306809321
:100B90000306C093050680910206806480930206D6
:100BA000809100068160809300060E944B0810929D
:100BB000962A1092972ACF9108951F920F920FB6FE
:100BC0000F9211248F93EF93FF93E0E6F4E088E017
:100BD000878380E18187FF91EF918F910F900FBE06
:100BE0000F901F9018951F920F920FB60F9211241D
:100BF0008F9388E08093670481E08093860A8F91C9
:100C00000F900FBE0F901F9018951F920F920FB666
:100C10000F9211248F939F93EF93FF93809100087D
:100C20008D30C1F0E091972A8A3049F091E09E0F13
:100C30009093972AF0E0EA5AF54D80830BC081E04B
:100C40008E0F8093972AF0E0EA5AF54D108281E0EA
:100C500080934629FF91EF919F918F910F900FBE46
:100C60000F901F9018950E94B20478940E94770804
:100C70000E94E406FBCF24E0829FC0011124FC0106
:100C8000E655F74D0280F381E02D309709F0099485
:100C90008EEF0895BF92CF92DF92EF92FF920F9363
:100CA0001F93CF93DF936C017B0110E08CEFB82E84
:100CB00005E0019FE0011124C050D84D6881798181
:100CC000C6010E94630C892B11F5F8948C81803148
:100CD00049F0803271F08830B9F4EA81FB8180817B
:100CE00090E004C0EA81FB8180819181A0E0B0E0C6
:100CF00006C0EA81FB8180819181A281B381F701E5
:100D000080839183A283B383789412E2B12C1F5F16
:100D1000123278F28B2DDF91CF911F910F91FF90BE
:100D2000EF90DF90CF90BF900895BF92CF92DF9267
:100D3000EF92FF920F931F93CF93DF936C017B0190
:100D400000E01CEF85E0B82EB09EE0011124C050F9
:100D5000D84D68817981C6010E94630C892B31F5D9
:100D6000F8948C81803151F0803281F08830D9F450
:100D7000EA81FB81D7018C91808313C0F7018081C8
:100D80009181EA81FB81808391830BC0F70180818F
:100D90009181A281B381EA81FB8180839183A283C7
:100DA000B38310E001C01DEF789402E20F5F0232BE
:100DB00058F2812FDF91CF911F910F91FF90EF900B
:100DC000DF90CF90BF900895DF92EF92FF920F9344
:100DD0001F93CF93DF93CDB7DEB72897CDBFDEBF8C
:100DE0008C016BE072E60E94630C892B09F478C0D9
:100DF0006FE370E0C8010E94580C892B41F16CE050
:100E000072E6C8010E94530CE82ED92E19821A826C
:100E10001B821C82BE016F5F7F4F0E944A06F82E24
:100E2000811112C08C818F938B818F938A818F93D4
:100E300089818F93DF92EF928BE093E69F938F935C
:100E40000E94930CCDBFDEBF0BE111E667C06DE3DE
:100E500070E0C8010E94580C892B09F443C06EE071
:100E600072E6C8010E94530CE82ED92E6EE072E69D
:100E700080E090E00E94530C40E050E060E070E0C1
:100E80000E94550B6D837E838F839887BE016B5FB5
:100E90007F4F8E2D9D2D0E949506F82E81111DC02D
:100EA00019821A821B821C82BE016F5F7F4F8E2DBA
:100EB0009D2D0E944A068C818F938B818F938A810E
:100EC0008F9389818F93DF92EF928BE093E69F93CC
:100ED0008F930E94930CCDBFDEBF05E211E61EC0CA
:100EE00004E111E6E12CFF24FA9494E0E99EF0017C
:100EF0001124E655F74D60817181C8010E94630C91
:100F0000892B31F48E2D0E943B06F82E8CE1E82EC1
:100F1000E3948BE18E1548F7E12CD12C9EEFF91666
:100F2000E1F09F155CF08CEFF816E1F09DEFF912FF
:100F300025C01F930F9385E692E618C08FEFF81631
:100F400039F0F1101BC08BEC92E60E94A90C16C080
:100F50001F930F9380E192E609C01F930F938FE3D5
:100F600092E604C0DF92EF9288E992E69F938F9316
:100F70000E94930C0F900F900F900F908F2D28963A
:100F8000CDBFDEBFDF91CF911F910F91FF90EF900A
:100F9000DF900895CF92DF92EF92FF920F931F930D
:100FA000CF93DF9300D000D0CDB7DEB780ED92E6CF
:100FB0000E94A90C0AEA18E227EEE22E22E6F22E9F
:100FC000D801ED91FC918081882351F0FF93EF933C
:100FD000FF92EF920E94930C0F900F900F900F9042
:100FE0000C5F1F4FB9E20A311B0751F78EEE92E6F4
:100FF0000E94A90C80E0E82E88E2F82E00E010E0C4
:1010000095E0C92E93E6D92E19821A821B821C8282
:10101000F70180819181DC012C912223D1F0BE0166
:101020006F5F7F4F0E944A068C818F938B818F93D5
:101030008A818F9389818F93F70181818F9380813A
:101040008F931F930F93DF92CF920E94930CCDBF8B
:10105000DEBF0F5F1F4F95E0E90EF11C0232110554
:1010600099F686E193E60E94A90C80E02496CDBF14
:10107000DEBFDF91CF911F910F91FF90EF90DF9036
:10108000CF9008959091040895FFFCCF80930208BB
:1010900080E090E008958AE299E280939C2A909300
:1010A0009D2AE0E0F8E08BE591E0808791878581DB
:1010B000806E85838681806C8683E0E0F4E021E0A9
:1010C000218392E09283E0E2F8E047E450E1408738
:1010D00051878581816E85838681806C8683E0E47B
:1010E000F4E02183928388E0818386830895E0E0A1
:1010F0008091040887FFFCCF909100089A3011F18D
:101100009D30E9F081E08E0F2EE639E2F0E0E25901
:10111000F64D90838134A0F01F9280E48F934EE2CD
:1011200053E65F934F931F928F933F932F930E94A9
:10113000D90C8DB79EB708968DBF9EBF07C08E2F66
:10114000E82FD6CFF0E0E259F64D10828EE699E214
:1011500008955058BB27AA270E94C1080C940B0A77
:101160000E94FD0938F00E94040A20F039F49F3FE4
:1011700019F426F40C94FA090EF4E095E7FB0C94AC
:10118000F409E92F0E941C0A58F3BA176207730783
:101190008407950720F079F4A6F50C943E0A0EF426
:1011A000E0950B2EBA2FA02D0B01B90190010C0177
:1011B000CA01A0011124FF27591B99F0593F50F48F
:1011C000503E68F11A16F040A22F232F342F4427E7
:1011D000585FF3CF469537952795A795F0405395DF
:1011E000C9F77EF41F16BA0B620B730B840BBAF0AF
:1011F0009150A1F0FF0FBB1F661F771F881FC2F71A
:101200000EC0BA0F621F731F841F48F4879577952D
:101210006795B795F7959E3F08F0B0CF9395880FE7
:1012200008F09927EE0F9795879508950E942A094F
:101230000C940B0A0E94040A58F00E94FD0940F029
:1012400029F45F3F29F00C94F40951110C943F0AE2
:101250000C94FA090E941C0A68F39923B1F35523F0
:1012600091F3951B550BBB27AA27621773078407B9
:1012700038F09F5F5F4F220F331F441FAA1FA9F34F
:1012800035D00E2E3AF0E0E832D091505040E6953D
:10129000001CCAF72BD0FE2F29D0660F771F881F9E
:1012A000BB1F261737074807AB07B0E809F0BB0B91
:1012B000802DBF01FF2793585F4F3AF09E3F5105A5
:1012C00078F00C94F4090C943F0A5F3FE4F3983EE5
:1012D000D4F3869577956795B795F7959F5FC9F78E
:1012E000880F911D9695879597F90895E1E0660F0F
:1012F000771F881FBB1F621773078407BA0720F088
:10130000621B730B840BBA0BEE1F88F7E0950895F0
:101310000E94240A88F09F5798F0B92F9927B75157
:10132000B0F0E1F0660F771F881F991F1AF0BA9589
:10133000C9F714C0B13091F00E943E0AB1E008959F
:101340000C943E0A672F782F8827B85F39F0B93F91
:10135000CCF3869577956795B395D9F73EF490953C
:101360008095709561957F4F8F4F9F4F0895E894BA
:1013700009C097FB3EF490958095709561957F4FDD
:101380008F4F9F4F9923A9F0F92F96E9BB2793958B
:10139000F695879577956795B795F111F8CFFAF49B
:1013A000BB0F11F460FF1BC06F5F7F4F8F4F9F4FCC
:1013B00016C0882311F096E911C0772321F09EE82A
:1013C000872F762F05C0662371F096E8862F70E090
:1013D00060E02AF09A95660F771F881FDAF7880F6A
:1013E0009695879597F9089597F99F6780E870E03B
:1013F00060E008959FEF80EC089500240A9416168B
:10140000170618060906089500240A9412161306F2
:10141000140605060895092E0394000C11F4882380
:1014200052F0BB0F40F4BF2B11F460FF04C06F5F9C
:101430007F4F8F4F9F4F089557FD9058440F551F72
:1014400059F05F3F71F04795880F97FB991F61F046
:101450009F3F79F087950895121613061406551FBD
:10146000F2CF4695F1DF08C0161617061806991F29
:10147000F1CF86957105610508940895E894BB271E
:1014800066277727CB0197F908950E94580A0C9494
:101490000B0A0E94FD0938F00E94040A20F09523EF
:1014A00011F00C94F4090C94FA0911240C943F0ADD
:1014B0000E941C0A70F3959FC1F3950F50E0551FD1
:1014C000629FF001729FBB27F00DB11D639FAA2799
:1014D000F00DB11DAA1F649F6627B00DA11D661FE8
:1014E000829F2227B00DA11D621F739FB00DA11D09
:1014F000621F839FA00D611D221F749F3327A00DC3
:10150000611D231F849F600D211D822F762F6A2F5E
:1015100011249F5750409AF0F1F088234AF0EE0FC3
:10152000FF1FBB1F661F771F881F91505040A9F7F0
:101530009E3F510580F00C94F4090C943F0A5F3FE4
:10154000E4F3983ED4F3869577956795B795F7952C
:10155000E7959F5FC1F7FE2B880F911D96958795A4
:1015600097F9089519F416F40C94FA090C94F80AF2
:101570000E94240AB8F39923C9F3B6F39F57550B79
:1015800087FF0E94060B0024A0E640EA90018058E5
:101590005695979528F4805C660F771F881F20F07A
:1015A00026173707480730F4621B730B840B20297A
:1015B00031294A2BA69517940794202531254A27CF
:1015C00058F7660F771F881F20F026173707480740
:1015D00030F4620B730B840B200D311D411DA0955F
:1015E00081F7B901842F9158880F969587950895B2
:1015F0009F3F31F0915020F4879577956795B79587
:10160000880F911D9695879597F9089591505040B0
:10161000660F771F881FD2F70895DB018F939F9382
:101620000E942C0BBF91AF91A29F800D911DA39F93
:10163000900DB29F900D11240895A29FB001B39F09
:10164000C001A39F700D811D1124911DB29F700DCB
:10165000811D1124911D08950E941D0BA59F900DC1
:10166000B49F900DA49F800D911D1124089597FBA8
:1016700010F8169400080F93083098F00850232FA4
:10168000342F452F562F672F782F892F902DF4CF89
:1016900005949795879577956795579547953795CD
:1016A00027950A95AAF70F910895A0E0B0E0EBE521
:1016B000FBE00C94C00F5C016B017A0161157105B0
:1016C00019F0FB0180839183E114F10429F0C70133
:1016D0000297839708F0C9C0E5012196F5011081B2
:1016E000812F90E00E944A0C892B11F05E01F4CF0B
:1016F0001D3229F42196F501118101E007C01B324A
:1017000021F4E5012296F501118100E0E114F104D4
:10171000B1F0F0E1EF16F10429F4B0C010E3E114E8
:10172000F10401F12AE0E216F104B1F180E1E816DA
:10173000F10471F0E8E0EE16F104F1F413C0103397
:1017400041F588818F7D883549F71981229602609D
:10175000F0E1EF2EF12C88248A94982CA82CAFE08D
:10176000BA2E20C078E0E72EF12C88248A94982C99
:10177000A82CEFE1BE2E16C06FEF7FEFCB019701D3
:101780000F2C000C440B550B0E949D0F49015A0170
:1017900009C08AE0E82EF12C69E9862E982CA82C45
:1017A00069E1B62E40E060E070E0CB0127010F2C2C
:1017B000000C66087708FE0150ED352E310E29E049
:1017C000231570F42FEB210F2A3118F439EC332E46
:1017D00006C02FE9210F2A3130F529EA322E310EC9
:1017E000232D30E02E153F05F4F44F3FC9F0861647
:1017F0009706A806B90688F0A30192010E940D0B76
:10180000232D30E040E050E0620F731F841F951FCE
:10181000621773078407950710F44FEF01C041E08A
:1018200021961081C8CFC114D10451F0442311F086
:10183000219703C001FF04C02297F601C083D18322
:1018400000FF07C090958095709561957F4F8F4FF1
:101850009F4F4F3F79F482E290E08093A02A9093CB
:10186000A12A3FEF2FEF9FEF0DC040E030E020E0D6
:1018700090E008C0462F372F282F04C0103309F0FE
:1018800067CF5FCF642F732F822FCDB7DEB7E1E133
:101890000C94D90F91110C94EA0E803219F08950F2
:1018A0008550C8F7089548E359E20E946C0C0895EA
:1018B000FC018191861721F08823D9F79927089593
:1018C0003197CF010895FB01DC018D9101908019C2
:1018D0000110D9F3990B0895FA01A191B0810097F5
:1018E00019F41097E1F0CD01DC01CD010D9000203D
:1018F00011F4C00113C0FB012191222319F020151E
:10190000D9F7F3CFFB012191201519F41E921196FE
:1019100006C02223C1F70D900020A1F7D001FA01E3
:10192000A193B0830895A0E0B0E0E9E9FCE00C9455
:10193000CF0FAE014B5F5F4FFA0161917191AF0123
:1019400080919C2A90919D2A0E94090DE2E00C94BE
:10195000E80F0F931F93CF93DF93E0919C2AF091B0
:101960009D2A238121FF1BC08C01D0E0C0E0F8013B
:1019700081918F0160919C2A70919D2ADB011896BC
:10198000ED91FC911997882331F00995892B79F312
:10199000DFEFCFEFECCF8AE00995892B19F08FEFBD
:1019A0009FEF02C08D2F9C2FDF91CF911F910F9140
:1019B0000895AEE0B0E0EFEDFCE00C94CD0F0D89A2
:1019C0001E898F89988D26E02C8309831A8397FFBF
:1019D00002C080E090E801978D839E83AE01455E52
:1019E0005F4F698D7A8DCE0101960E94090D4D8160
:1019F0005E8157FD0AC02F813885421753070CF4CA
:101A00009A01F801E20FF31F10822E96E4E00C9485
:101A1000E60FABE0B0E0EFE0FDE00C94BF0F6C012F
:101A20007B018A01FC0116821782838181FFCCC170
:101A3000CE0101963C01F6019381F70193FD85915A
:101A400093FF81917F01882309F4BAC1853239F46B
:101A500093FD859193FF81917F01853229F4B60131
:101A600090E00E94030FE7CF912C212C312CFFE155
:101A7000F315D8F08B3279F038F4803279F0833274
:101A8000A1F4232D20611DC08D3261F0803369F4F3
:101A9000232D216016C0832D8260382EE32DE46053
:101AA0003E2E2AC0F32DF8601DC037FC2DC020ED5E
:101AB000280F2A3040F08E32B9F436FC81C1232D34
:101AC0002064322E19C036FE06C08AE0989E200D92
:101AD0001124922E11C0EAE02E9E200D1124222EF8
:101AE000F32DF0623F2E08C08C3621F4832D8068E0
:101AF000382E02C0883641F4F70193FD859193FF9B
:101B000081917F018111B3CF982F9F7D95549330A0
:101B100028F40C5F1F4F9FE399830DC0833631F08B
:101B2000833771F0833509F059C021C0F8018081F5
:101B300089830E5F1F4F88248394912C530113C017
:101B40002801F2E04F0E511CF801A080B18036FE52
:101B500003C0692D70E002C06FEF7FEFC5010E94E6
:101B6000F80E4C018201F32DFF773F2E16C028019D
:101B700022E0420E511CF801A080B18036FE03C065
:101B8000692D70E002C06FEF7FEFC5010E94ED0E7E
:101B90004C01F32DF0683F2E820133FC1BC0822DD7
:101BA00090E088169906B0F4B60180E290E00E94B9
:101BB000030F2A94F4CFF50137FC859137FE81910C
:101BC0005F01B60190E00E94030F21102A9421E0EA
:101BD000821A91088114910471F7E8C0843611F0DB
:101BE000893641F5F80137FE07C060817181828135
:101BF00093810C5F1F4F08C060817181072E000C1C
:101C0000880B990B0E5F1F4FF32DFF763F2E97FF2A
:101C100009C090958095709561957F4F8F4F9F4F2C
:101C2000F0683F2E2AE030E0A3010E943F0F882E8B
:101C3000861845C0853731F4232D2F7EB22E2AE039
:101C400030E025C0932D997FB92E8F36C1F018F45E
:101C5000883579F0B5C0803719F0883721F0B0C0E9
:101C6000E92FE061BE2EB4FE0DC0FB2DF460BF2E47
:101C700009C034FE0AC0292F2660B22E06C028E013
:101C800030E005C020E130E002C020E132E0F801A0
:101C9000B7FE07C060817181828193810C5F1F4F05
:101CA00006C06081718180E090E00E5F1F4FA3014C
:101CB0000E943F0F882E8618FB2DFF773F2E36FEA1
:101CC0000DC0232D2E7FA22E891458F434FE0BC094
:101CD00032FC09C0832D8E7EA82E05C0B82CA32C03
:101CE00003C0B82C01C0B92CA4FE0FC0FE01E80D42
:101CF000F11D8081803321F49A2D997EA92E09C08F
:101D0000A2FE06C0B394B39404C08A2D867809F06D
:101D1000B394A3FC11C0A0FE06C0B21488F4280C32
:101D2000922C9B180EC0B21460F4B60180E290E0D1
:101D30000E94030FB394F7CFB21418F42B1802C00B
:101D4000982C212CA4FE10C0B60180E390E00E94E4
:101D5000030FA2FE17C0A1FC03C088E790E002C0F9
:101D600088E590E0B6010CC08A2D867859F0A1FE76
:101D700002C08BE201C080E2A7FC8DE2B60190E0D8
:101D80000E94030F891438F4B60180E390E00E94AA
:101D9000030F9A94F7CF8A94F301E80DF11D808127
:101DA000B60190E00E94030F8110F5CF222009F4C4
:101DB00042CEB60180E290E00E94030F2A94F6CF53
:101DC000F6018681978102C08FEF9FEF2B96E2E1AB
:101DD0000C94D80F992788270895FC01059061502D
:101DE00070400110D8F7809590958E0F9F1F089531
:101DF000FC016150704001900110D8F780959095DA
:101E00008E0F9F1F08950F931F93CF93DF93FB01B6
:101E1000238121FD03C08FEF9FEF2CC022FF16C04E
:101E200046815781248135814217530744F4A081AC
:101E3000B1819D012F5F3F4F208331838C93268199
:101E400037812F5F3F4F2683378314C08B01EC010E
:101E5000FB010084F185E02D0995892BE1F6D8017D
:101E600016968D919C911797019616968D939C933B
:101E70001797CE01DF91CF911F910F910895FA012D
:101E8000AA27283051F1203181F1E8946F936E7FB9
:101E90006E5F7F4F8F4F9F4FAF4FB1E03ED0B4E0AA
:101EA0003CD0670F781F891F9A1FA11D680F791FEB
:101EB0008A1F911DA11D6A0F711D811D911DA11DFC
:101EC00020D009F468943F912AE0269F112430190C
:101ED000305D3193DEF6CF010895462F4770405DA7
:101EE0004193B3E00FD0C9F7F6CF462F4F70405D56
:101EF0004A3318F0495D31FD4052419302D0A9F7B1
:101F0000EACFB4E0A6959795879577956795BA95AA
:101F1000C9F700976105710508959B01AC010A2E70
:101F200006945795479537952795BA95C9F7620F47
:101F3000731F841F951FA01D0895A1E21A2EAA1BCE
:101F4000BB1BFD010DC0AA1FBB1FEE1FFF1FA21769
:101F5000B307E407F50720F0A21BB30BE40BF50B66
:101F6000661F771F881F991F1A9469F760957095EF
:101F7000809590959B01AC01BD01CF0108952F92F2
:101F80003F924F925F926F927F928F929F92AF9209
:101F9000BF92CF92DF92EF92FF920F931F93CF9356
:101FA000DF93CDB7DEB7CA1BDB0BCDBFDEBF099415
:101FB0002A88398848885F846E847D848C849B84D9
:101FC000AA84B984C884DF80EE80FD800C811B81E7
:101FD000AA81B981CE0FD11DCDBFDEBFED0108951D
:041FE000F894FFCFA3
:101FE400525F5050203D2025640D0A00565F435037
:101FF400203D2025640D0A0063743056616C006333
:10200400743156616C0063743256616C0049726DB0
:1020140073300049726D73310049726D7332007010
:102024007056616C00637056616C0070696C6F74FB
:102034000074656D706572617475726500647574A1
:10204400794379636C650073797374696D650073A2
:10205400656374696D650061757854696D65723185
:102064000061757854696D657232006C6F636B73CF
:102074007461746500627574746F6E7374617465F1
:10208400004963616C006D61784D61696E73006D28
:10209400617843757272656E74006D696E43757212
:1020A40072656E74006D6F6465006C6F636B0063C2
:1020B40061626C65436F6E66007377697463684D23
:1020C4006F6465006572726F72006E657874537424
:1020D400617465006D61784361706163697479004E
:1020E40063686172676543757272656E7400496DE9
:1020F40065617375726564004973756D0063686129
:1021040072676544656C617900616363657373002C
:1021140073746174757300706172616D5F67657467
:1021240000706172616D5F736574006C65645F6FEC
:102134006E006C65645F6F6666006C65645F746FE7
:1021440067676C650070776D5F6F6E0070776D5FA9
:102154006F666600737372315F6F6E0073737231F2
:102164005F6F666600737372325F6F6E00737372B3
:10217400325F6F666600737372335F6F6E007373E2
:1021840072335F6F666600616C6C5F7373725F6F4E
:102194006E00616C6C5F7373725F6F666600756E60
:1021A4006C6F636B5F6361626C65006C6F636B5F24
:1021B4006F66660072656C61795F6F6E0072656C44
:1021C40061795F6F666600726561645F6370007257
:1021D4006561645F707000726561645F6374006D53
:1021E40065617375726543757272656E74007265AC
:1021F40061645F74656D700070705F6F686D00631B
:10220400705F766F6C74003F3F003D004641494C5F
:102214002E20436F6D6D616E64202573206E6F7484
:1022240020666F756E6420696E20636F6D6D616EDC
:1022340064207461626C65210D0A004641494C2E8C
:10224400204661696C656420746F206578656375E8
:10225400746520636F6D6D616E64202573210D0AB2
:10226400004641494C2E20496E76616C6964206FAA
:102274007074696F6E732F706172616D65746572CD
:102284007320666F7220636F6D6D616E64202573B9
:10229400210D0A004641494C2E20506172616D6542
:1022A400746572202573206E6F7420666F756E647A
:1022B40020696E20706172616D657465722074614D
:1022C400626C65210D0A004F4B2E0D0024204176CF
:1022D40061696C61626C6520636F6D6D616E6473BE
:1022E4003A0D00242025730D0A00242044656669F4
:1022F4006E656420706172616D65746572733A0D08
:1023040000242025643A202573203D20256C750D7A
:102314000A002420537461747573206D65737361AE
:10232400676520656E6420230D00496E7075742006
:10233400746F6F206C6F6E672C206D6178696D759A
:102344006D206E6F2E206F6620636861727320614A
:0B2354006C6C6F7765643A2025640014
:10235F00FC5F24291003602629100A602829101118
:10236F006068291017606A29101D606C291023609E
:10237F0066291029606429102F6063290835606170
:10238F00291041602329084B605D2920536059298A
:10239F00205B6057291065605529106F605329081D
:1023AF00796054290885602129108A6020290893B3
:1023BF00601F29089E601E2908A960522908AE6077
:1023CF00512908B360502908BD601D290873601C8E
:1023DF002908C8604F2908CE601B2908D8604E29EC
:1023EF0008E460AE2910F2604C2910FC604A2910F5
:1023FF0001611A29080D614929081461CA071B6177
:10240F004A06256195062F616C01366171013E61A7
:10241F0067014961760150617D01586187016061F3
:10242F008C0169619101716196017A619B018261F1
:10243F00A0018B61A5019661AF01A4617802A26131
:10244F009802AF61B901B861C101C161C601CB6129
:10245F00CB01D3610202DB613902E3611003F26148
:10246F00B802FC613E04036286043C010101060DC3
:10247F00206400320002000200020000000200008F
:08248F000000420800000000FB
:0400000300000200F7
:00000001FF
