:100200000C9448010C9465010C9465010C946501F3
:100210000C9465010C9465010C9465010C946501C6
:100220000C9465010C9465010C9465010C946501B6
:100230000C9445060C9465010C9465010C946501C1
:100240000C9465010C9457060C9465010C9465019F
:100250000C942F060C9465010C9465010C946501B7
:100260000C9465010C9465010C9465010C94650176
:100270000C9465010C9465010C9465010C94650166
:100280000C9465010C9465010C9465010C94650156
:1002900011241FBECFEFCDBFDFE3DEBF19E2A0E028
:1002A000B8E2EFE2F8E202C005900D92A833B10780
:1002B000D9F72AE2A8E3B9E201C01D92A636B20737
:1002C000E1F70E9485060C941F120C94000188E04F
:1002D0008093670480E0089588E08093650480E05F
:1002E000089588E08093660480E00895E0E0FAE0F5
:1002F00081818064818380E00895E0E0FAE081817B
:100300008F7B818384E08093050480E0089580E4FE
:100310008093050480E0089580E48093060480E0E3
:10032000089580E28093050480E0089580E2809340
:10033000060480E0089580E18093050480E008953C
:1003400080E18093060480E00895E0E0F4E080E43A
:10035000858380E2858380E1858380E00895E0E005
:10036000F4E080E4868380E2868380E1868380E017
:10037000089580E88093050484E08093450480E03C
:10038000089588E08093050480E0089588E08093D4
:10039000060480E0089581E08093060680930806B5
:1003A00080910B0680FFFCCF809110069091110682
:1003B000809368299093692921E020930B06853D5D
:1003C00033E0930718F0209367291AC09C012D553C
:1003D00033402633310510F482E007C09C01215DD3
:1003E00032402F34310520F483E08093672908C020
:1003F0004A978534910510F484E0F7CF109267296D
:1004000080E008951092060681E0809308068091AE
:100410000B0680FFFCCF809110069091110680930F
:100420006A2990936B2921E020930B069C012550AB
:1004300031402B3D310510F484E10FC09C01275958
:1004400031092534310510F480E207C08C5491093C
:100450008C9710F08DE001C08FE38093522980913A
:100460005429882321F080911F298093522980E00C
:10047000089585E08093060681E0809308068091C8
:100480000B0680FFFCCF809110069091110680939F
:1004900024299093252981E080930B0696E0909380
:1004A00006068093080680910B0680FFFCCF8091A2
:1004B000100690911106809326299093272981E0B8
:1004C00080930B0697E09093060680930806809130
:1004D0000B0680FFFCCF809110069091110680934F
:1004E00028299093292981E080930B0680E00895C4
:1004F00080E88093050484E0809346042FE382E43F
:100500009FE0215080409040E1F700C000000E9431
:10051000B9019091680481E0292F247092FF80E056
:1005200080935729211102C08EEF089580E008952D
:1005300080E88093060484E0809345042FEB87E2F3
:1005400099E0215080409040E1F700C000000E94F7
:10055000B9019091680481E0292F247092FF80E016
:1005600080935729222311F08EEF089580E008959B
:10057000809100068E7F8093000680910206809312
:1005800002068EE1809306068091030680668093C2
:1005900003068091000681608093000689EF90E059
:1005A0000197F1F700C0000081E080930806809178
:1005B0000B0680FFFCCFA0911006B0911106809130
:1005C0004C29A81BB10987FDB39520914B2930E038
:1005D0000E947C0DDC01CB0180589F4FAF4FBF4F75
:1005E000892F9A2FAB2FBB2780936529909366297B
:1005F000809100068E7F80930006809102068061C4
:100600008093020680910306809303068091000682
:1006100081608093000681E080930B0680E008955E
:100620002F923F924F925F926F927F928F929F9202
:10063000AF92BF92CF92DF92EF92FF920F93CF9340
:10064000DF93CDB7DEB72C97CDBFDEBF24E239E212
:100650002B873C87AAE3AA2EA9E2BA2EBAEB2B2E4F
:10066000B9E23B2E29863A86412C512C3201AB85CA
:10067000BC858D919C918093082A9093092AF5015D
:1006800080819181A281B3818093B6299093B7290B
:10069000A093B829B093B929812CF2E09F2E0E9433
:1006A00039028091082A9091092A80935C2A9093BC
:1006B0005D2AAB85BC85CD90DC90C092082AD09293
:1006C000092AC81AD90AC0927429D09275290D2C0A
:1006D000000CEE08FF08FE2CED2CDC2CCC248091C5
:1006E000B6299091B729A091B829B091B929C80E1F
:1006F000D91EEA1EFB1EC092162AD092172AE0923B
:10070000182AF092192ABB27F7FCBA95AF2D9E2D17
:100710008D2DC81AD90AEA0AFB0AC092B629D092CE
:10072000B729E092B829F092B929C701B60122E0B1
:1007300095958795779567952A95D1F760930A2ABD
:1007400070930B2A80930C2A90930D2A9B01AC0185
:100750000E94580D9B01AC01550F220B322FA901AD
:1007600029833A834B835C839B01AC016981762F9B
:10077000862F962F0CE00E94960D29833A834B8397
:100780005C836D837E838F83988720930E2A4A81B2
:1007900040930F2A5B815093102A8C818093112AF9
:1007A0006093122A7093132ABF81B093142AE885AC
:1007B000E093152A29813A814B815C81420E531EB8
:1007C000641E751E31E0831A910809F068CFD501C7
:1007D000CD92DD92ED92FD925D01C301B2010E94C6
:1007E000040C20E030E040E05BE30E94900C0E94AB
:1007F000030DE985FA856193719381939193E9875C
:10080000FA872B853C852E5F3F4F2B873C872A52EA
:10081000394209F02CCF8CE699E289839A83D10181
:100820006D917D918D919D911D0120E030E040E220
:1008300051E40E94900C0E94D30BE981FA816193EC
:100840007193E983FA83F6EC2F16F9E23F0639F744
:1008500080E02C96CDBFDEBFDF91CF910F91FF904E
:10086000EF90DF90CF90BF90AF909F908F907F9050
:100870006F905F904F903F902F9008958F929F922E
:10088000AF92BF92CF92DF92EF92FF920E9402024C
:1008900060916A2970916B2980E090E00E94020CBF
:1008A00020E030E040E85AE30E94900C6B017C01AC
:1008B00020E030E04AE754E40E94900C4B015C01D8
:1008C000A701960160E070E080E89FE30E94F40ACF
:1008D0009B01AC01C501B4010E94610B0E94D30BC6
:1008E0007F936F9382E494E69F938F930E94F20E1E
:1008F0000F900F900F900F9080E0FF90EF90DF909F
:10090000CF90BF90AF909F908F9008950E94CB01A1
:10091000609168297091692980E090E00E94020C42
:1009200020E030E040E85AE30E94900C20E030E004
:1009300040EC51E40E94900C20E030E040E451E4AF
:100940000E94F40A0E94D30B7F936F938EE494E687
:100950009F938F930E94F20E0F900F900F900F9025
:1009600080E00895CF9388ED84BF81E0809361009B
:100970008091630080FDFCCF88E08093610490E16A
:100980009093620490917404987F90937404909172
:10099000740492609093740490917404977F909380
:1009A000740490E7909301049093060480930104EB
:1009B0008093060490E8909301049093050484E0EA
:1009C00080934104809345048093620420917204D3
:1009D0002093720420E22093620420917504287F02
:1009E0002093750420917504246020937504209150
:1009F0007504277F20937504C0E4C093620420919E
:100A00007604287F20937604209176042460209336
:100A1000760420917604277F2093760490936204D5
:100A200090917704987F90937704909177049460E5
:100A30009093770490917704977F9093770491E057
:100A40009093620490917004987F909370049091B9
:100A5000700494609093700490917004977F9093C9
:100A6000700492E09093620490917104987F909347
:100A70007104909171049460909371049091710449
:100A8000977F909371041092E40580930104809302
:100A900005048091000A87608093000A8091010A12
:100AA00087608093010A8091090A8E7F8093090AEA
:100AB00081E792E08093360A9093370A6091232968
:100AC00070E080E090E00E94040C2AE037ED43E201
:100AD0005CE30E94900C20E030E44CE154E40E947E
:100AE000900C0E94D30B60933C0A70933D0A809156
:100AF000010A8F7B8093010A809147018160809376
:100B00004701809152018160809352018091500190
:100B100088648093500180915001816080935001DE
:100B20008091800A84608093800A8091810A8093FA
:100B3000810A8091840A8E7F8093840A8091850A3D
:100B400081608093850A82EE94E080938C0A909372
:100B50008D0A8091800A81608093800A80912111A2
:100B600080934C298091201180934B298091A00083
:100B700080618093A0008091A10082608093A10099
:100B80008091020682618093020680910306809321
:100B90000306C093050680910206806480930206D6
:100BA000809100068160809300060E94A90A10923D
:100BB0005A2A10925B2ACF9108958536D0F4682F77
:100BC00070E080E090E00E94040C2AE037ED43E200
:100BD0005CE30E94900C20E030E44CE154E40E947D
:100BE000900C0E94D30B60933C0A70933D0A80E006
:100BF00008958FEF08959C012C533109233C314017
:100C000028F466E070E00E94680D0BC09C012F5F25
:100C100031402232314040F469E170E00E94680DB9
:100C2000605C6093232903C08AE08093232980912C
:100C300023290E94DD0580E0089580914A298111D1
:100C40000CC080914D29811104C081E080934D2911
:100C500004C0813011F410924D2980E008951F9254
:100C60000F920FB60F9211248F93EF93FF93E0E64C
:100C7000F4E088E0878380E18187FF91EF918F9195
:100C80000F900FBE0F901F9018951F920F920FB6E6
:100C90000F9211248F9388E08093670481E0809302
:100CA000860A8F910F900FBE0F901F9018951F927C
:100CB0000F920FB60F9211248F939F93EF93FF9390
:100CC000809100088D30C1F0E0915B2A8A3049F0B4
:100CD00091E09E0F90935B2AF0E0E65EF54D8083F5
:100CE0000BC081E08E0F80935B2AF0E0E65EF54D4D
:100CF000108281E080934729FF91EF919F918F911E
:100D00000F900FBE0F901F9018950E94B204789418
:100D10008AE594E60E94080F8AE694E60E94080F8E
:100D200010924D2900E010E0D0E084E0D82E92E04F
:100D3000F92E23E0E22E0E94D50A809147298130C6
:100D400041F486E799E20E944209109247291092E5
:100D5000762980911C29813009F044C00E947D01D0
:100D6000D09205040E94AF010E94CB0180916729B7
:100D7000813041F4809153298E7F809353291092C2
:100D80001A2930C0823071F590911B29923031F5CB
:100D9000C1E0CD0FDA3138F180915329811123C0A0
:100DA00080911A2981111FC00E94020280911F297F
:100DB00090915229981728F42AE0929FC00111249B
:100DC00001C090E08093722990937329F0921C29BE
:100DD0008FE794E60E94080F10E005C080931B295E
:100DE000C0E001C0CD2F0E94D50A809147298130F3
:100DF00041F486E799E20E94420910924729109235
:100E0000762980911C29823009F07DC08091722959
:100E1000909173290E94FB050E9476018091200A1F
:100E20009091210A029708F44AC08091200A90917B
:100E3000210A4E9708F043C00E94CB019091672988
:100E400080911B29913081F4813059F4D1E0DC0F7D
:100E5000CA31A0F180931C298DE894E60E94080F06
:100E60002DC090931B2923C0933019F58330E9F4EA
:100E70001130D9F480914D298130B9F4D1E0DC0FE3
:100E8000CA31E0F080915329811118C080911A294C
:100E9000811114C00E94A501E0921C298BE994E6FF
:100EA0000E94080FCD2F10E00AC0E0921B29C0E07D
:100EB00006C0823021F010921B2901C0CD2F8091F5
:100EC000200A9091210A87329240E8F08091200A0E
:100ED0009091210A88359240C8F38091200A909120
:100EE000210A8935924078F08091200A9091210A58
:100EF0008C36924040F40E94CB0111E0809167292A
:100F0000843009F010E00E94D50A80914729813091
:100F100041F486E799E20E94420910924729109213
:100F2000762980911C29833009F04DC08091200AD8
:100F30009091210A029708F446C08091200A90916E
:100F4000210A4E9708F03FC00E94CB01809167298B
:100F50008230A0F4C0901B2981E0C8120DC0D1E0FE
:100F6000DC0FCA3178F10E94AF01C0921C2989EAD6
:100F700094E60E94080F26C081E016C08230B9F4C2
:100F8000C0901B2992E0C9120FC0D1E0DC0FCA311A
:100F9000C8F00E94AF01C0921C2987EB94E60E9422
:100FA000080FCD2F10E00FC080931B2906C0809141
:100FB0004D29813021F0F0921B29C0E004C010922D
:100FC0001B2901C0CD2F0E94D50A8091472981306D
:100FD00041F486E799E20E94420910924729109253
:100FE000762980918A0A90918B0A823E944000F182
:100FF0008091612990916229A0916329B09164291F
:101000000196A11DB11D8093612990936229A0933F
:101010006329B093642980914829909149290196C8
:10102000809348299093492910928A0A10928B0A3A
:101030008091482990914929883E934008F450C0F6
:10104000109248291092492980915D2990915E293A
:10105000A0915F29B09160290196A11DB11D8093D7
:101060005D2990935E29A0935F29B09360290E9427
:10107000B80280916529909166298435914060F08D
:101080008091532984608093532981E080931C29A7
:1010900085EC94E60E94080F80916529909166295D
:1010A0008A34914038F48091532982FF03C08B7FAA
:1010B00080935329809172299091732920911F293F
:1010C00030E02817390741F02091522930E02817E5
:1010D000390710F00E94FB050E94100310924A2964
:1010E0008091680482958170809358298091582955
:1010F0000817D9F08FEF90E722E081509040204010
:10110000E1F700C0000080916804829581708093AF
:10111000582980915829081741F0D0915829D13089
:1011200021F40E941D06D0934A2900915829DC2FF2
:1011300002CE24E0829FC0011124FC01E655F74D48
:101140000280F381E02D309709F009948EEF089525
:10115000BF92CF92DF92EF92FF920F931F93CF93A4
:10116000DF936C017B0110E08CEFB82E05E0019F4E
:10117000E0011124C050D84D68817981C6010E94D8
:10118000C20E892B11F5F8948C81803149F08032A0
:1011900071F08830B9F4EA81FB81808190E004C06D
:1011A000EA81FB8180819181A0E0B0E006C0EA8104
:1011B000FB8180819181A281B381F701808391833A
:1011C000A283B383789412E2B12C1F5F123278F2BB
:1011D0008B2DDF91CF911F910F91FF90EF90DF90BA
:1011E000CF90BF900895BF92CF92DF92EF92FF927F
:1011F0000F931F93CF93DF936C017B0100E01CEFF3
:1012000085E0B82EB09EE0011124C050D84D688111
:101210007981C6010E94C20E892B31F5F8948C8128
:10122000803151F0803281F08830D9F4EA81FB813D
:10123000D7018C91808313C0F70180819181EA816D
:10124000FB81808391830BC0F70180819181A28112
:10125000B381EA81FB8180839183A283B38310E011
:1012600001C01DEF789402E20F5F023258F2812F25
:10127000DF91CF911F910F91FF90EF90DF90CF9072
:10128000BF900895DF92EF92FF920F931F93CF9339
:10129000DF93CDB7DEB72897CDBFDEBF8C016CE002
:1012A00077E60E94C20E892B09F478C06FE370E0E4
:1012B000C8010E94B70E892B41F16DE077E6C801A5
:1012C0000E94B20EE82ED92E19821A821B821C822D
:1012D000BE016F5F7F4F0E94A808F82E811112C0D7
:1012E0008C818F938B818F938A818F9389818F9348
:1012F000DF92EF928CE098E69F938F930E94F20E1C
:10130000CDBFDEBF0CE116E667C06DE370E0C8013B
:101310000E94B70E892B09F443C06FE077E6C8013D
:101320000E94B20EE82ED92E6FE077E680E090E0C2
:101330000E94B20E40E050E060E070E00E94B40D08
:101340006D837E838F839887BE016B5F7F4F8E2D69
:101350009D2D0E94F308F82E81111DC019821A825A
:101360001B821C82BE016F5F7F4F8E2D9D2D0E94C0
:10137000A8088C818F938B818F938A818F93898129
:101380008F93DF92EF928CE098E69F938F930E9469
:10139000F20ECDBFDEBF06E216E61EC005E116E680
:1013A000E12CFF24FA9494E0E99EF0011124E65523
:1013B000F74D60817181C8010E94C20E892B31F402
:1013C0008E2D0E949908F82E8CE1E82EE3948BE193
:1013D0008E1548F7E12CD12C9EEFF916E1F09F1500
:1013E0005CF08CEFF816E1F09DEFF91225C01F9329
:1013F0000F9386E697E618C08FEFF81639F0F110D4
:101400001BC08CEC97E60E94080F16C01F930F9329
:1014100081E197E609C01F930F9380E497E604C02B
:10142000DF92EF9289E997E69F938F930E94F20EE5
:101430000F900F900F900F908F2D2896CDBFDEBF8D
:10144000DF91CF911F910F91FF90EF90DF90089562
:10145000CF92DF92EF92FF920F931F93CF93DF9380
:1014600000D000D0CDB7DEB781ED97E60E94080F1F
:101470000AEA18E228EEE22E27E6F22ED801ED91D4
:10148000FC918081882351F0FF93EF93FF92EF92BC
:101490000E94F20E0F900F900F900F900C5F1F4F55
:1014A000B9E20A311B0751F78FEE97E60E94080F49
:1014B00080E0E82E88E2F82E00E010E096E0C92EE9
:1014C00098E6D92E19821A821B821C82F70180812C
:1014D0009181DC012C912223D1F0BE016F5F7F4FFF
:1014E0000E94A8088C818F938B818F938A818F9320
:1014F00089818F93F70181818F9380818F931F93CF
:101500000F93DF92CF920E94F20ECDBFDEBF0F5F2E
:101510001F4F95E0E90EF11C0232110599F687E1A3
:1015200098E60E94080F80E02496CDBFDEBFDF91D1
:10153000CF911F910F91FF90EF90DF90CF90089582
:101540009091040895FFFCCF8093020880E090E022
:1015500008958AE299E28093602A9093612AE0E0FC
:10156000F8E08BE591E0808791878581806E8583A7
:101570008681806C8683E0E0F4E021E0218392E0C4
:101580009283E0E2F8E047E450E1408751878581AB
:10159000816E85838681806C8683E0E4F4E021831C
:1015A000928388E08183868308958091040887FF71
:1015B0001AC0809100088D30B1F0E09146298A3040
:1015C00049F091E09E0F90934629F0E0EA58F64DDD
:1015D00080830895F0E0EA58F64D10821092462973
:1015E00081E08093472908955058BB27AA270E947D
:1015F0000C0B0C94560C0E94480C38F00E944F0CB7
:1016000020F039F49F3F19F426F40C94450C0EF4A5
:10161000E095E7FB0C943F0CE92F0E94670C58F310
:10162000BA17620773078407950720F079F4A6F5C7
:101630000C94890C0EF4E0950B2EBA2FA02D0B0103
:10164000B90190010C01CA01A0011124FF27591B07
:1016500099F0593F50F4503E68F11A16F040A22F0D
:10166000232F342F4427585FF3CF4695379527957E
:10167000A795F0405395C9F77EF41F16BA0B620B7D
:10168000730B840BBAF09150A1F0FF0FBB1F661FC4
:10169000771F881FC2F70EC0BA0F621F731F841F07
:1016A00048F4879577956795B795F7959E3F08F02D
:1016B000B0CF9395880F08F09927EE0F97958795EF
:1016C00008950E94750B0C94560C0E944F0C58F014
:1016D0000E94480C40F029F45F3F29F00C943F0C25
:1016E00051110C948A0C0C94450C0E94670C68F301
:1016F0009923B1F3552391F3951B550BBB27AA27CB
:1017000062177307840738F09F5F5F4F220F331F04
:10171000441FAA1FA9F335D00E2E3AF0E0E832D0CC
:1017200091505040E695001CCAF72BD0FE2F29D0CF
:10173000660F771F881FBB1F261737074807AB07A1
:10174000B0E809F0BB0B802DBF01FF2793585F4F16
:101750003AF09E3F510578F00C943F0C0C948A0CA3
:101760005F3FE4F3983ED4F3869577956795B795F8
:10177000F7959F5FC9F7880F911D9695879597F903
:101780000895E1E0660F771F881FBB1F621773077C
:101790008407BA0720F0621B730B840BBA0BEE1F91
:1017A00088F7E09508950E946F0C88F09F5798F095
:1017B000B92F9927B751B0F0E1F0660F771F881F56
:1017C000991F1AF0BA95C9F714C0B13091F00E9470
:1017D000890CB1E008950C94890C672F782F882725
:1017E000B85F39F0B93FCCF3869577956795B39597
:1017F000D9F73EF490958095709561957F4F8F4F06
:101800009F4F0895E89409C097FB3EF4909580950A
:10181000709561957F4F8F4F9F4F9923A9F0F92FB6
:1018200096E9BB279395F695879577956795B79534
:10183000F111F8CFFAF4BB0F11F460FF1BC06F5F1A
:101840007F4F8F4F9F4F16C0882311F096E911C02C
:10185000772321F09EE8872F762F05C0662371F04D
:1018600096E8862F70E060E02AF09A95660F771F61
:10187000881FDAF7880F9695879597F9089597F955
:101880009F6780E870E060E008959FEF80EC089526
:1018900000240A941616170618060906089500244F
:1018A0000A9412161306140605060895092E0394C9
:1018B000000C11F4882352F0BB0F40F4BF2B11F43D
:1018C00060FF04C06F5F7F4F8F4F9F4F089557FD9C
:1018D0009058440F551F59F05F3F71F04795880F9E
:1018E00097FB991F61F09F3F79F087950895121635
:1018F00013061406551FF2CF4695F1DF08C01616E1
:1019000017061806991FF1CF869571056105089491
:101910000895E894BB2766277727CB0197F90895A8
:101920000E94A30C0C94560C0E94480C38F00E94A4
:101930004F0C20F0952311F00C943F0C0C94450CA7
:1019400011240C948A0C0E94670C70F3959FC1F3CC
:10195000950F50E0551F629FF001729FBB27F00D5D
:10196000B11D639FAA27F00DB11DAA1F649F6627B2
:10197000B00DA11D661F829F2227B00DA11D621F01
:10198000739FB00DA11D621F839FA00D611D221FBB
:10199000749F3327A00D611D231F849F600D211D9F
:1019A000822F762F6A2F11249F5750409AF0F1F022
:1019B00088234AF0EE0FFF1FBB1F661F771F881F8B
:1019C00091505040A9F79E3F510580F00C943F0C78
:1019D0000C948A0C5F3FE4F3983ED4F38695779598
:1019E0006795B795F795E7959F5FC1F7FE2B880F31
:1019F000911D9695879597F9089519F416F40C940E
:101A0000450C0C94430D0E946F0CB8F39923C9F355
:101A1000B6F39F57550B87FF0E94510D0024A0E697
:101A200040EA900180585695979528F4805C660F9F
:101A3000771F881F20F026173707480730F4621BEE
:101A4000730B840B202931294A2BA69517940794F0
:101A5000202531254A2758F7660F771F881F20F069
:101A600026173707480730F4620B730B840B200DE1
:101A7000311D411DA09581F7B901842F9158880F20
:101A80009695879508959F3F31F0915020F4879562
:101A900077956795B795880F911D9695879597F9D6
:101AA000089591505040660F771F881FD2F7089510
:101AB000DB018F939F930E948B0DBF91AF91A29FEB
:101AC000800D911DA39F900DB29F900D112408953C
:101AD000AA1BBB1B51E107C0AA1FBB1FA617B70754
:101AE00010F0A61BB70B881F991F5A95A9F7809570
:101AF0009095BC01CD010895A29FB001B39FC00194
:101B0000A39F700D811D1124911DB29F700D811D29
:101B10001124911D08950E947C0DA59F900DB49FE6
:101B2000900DA49F800D911D1124089597FB10F82E
:101B3000169400080F93083098F00850232F342F84
:101B4000452F562F672F782F892F902DF4CF05948E
:101B500097958795779567955795479537952795E5
:101B60000A95AAF70F910895A0E0B0E0EAEBFDE036
:101B70000C94EF115C016B017A016115710519F08C
:101B8000FB0180839183E114F10429F0C7010297DE
:101B9000839708F0C9C0E5012196F5011081812FD6
:101BA00090E00E94A90E892B11F05E01F4CF1D3246
:101BB00029F42196F501118101E007C01B3221F4BF
:101BC000E5012296F501118100E0E114F104B1F084
:101BD000F0E1EF16F10429F4B0C010E3E114F104D0
:101BE00001F12AE0E216F104B1F180E1E816F10416
:101BF00071F0E8E0EE16F104F1F413C0103341F592
:101C000088818F7D883549F7198122960260F0E13D
:101C1000EF2EF12C88248A94982CA82CAFE0BA2EB1
:101C200020C078E0E72EF12C88248A94982CA82CE8
:101C3000EFE1BE2E16C06FEF7FEFCB0197010F2CA7
:101C4000000C440B550B0E94CC1149015A0109C0EC
:101C50008AE0E82EF12C69E9862E982CA82C69E1FF
:101C6000B62E40E060E070E0CB0127010F2C000CA5
:101C700066087708FE0150ED352E310E29E0231558
:101C800070F42FEB210F2A3118F439EC332E06C0F3
:101C90002FE9210F2A3130F529EA322E310E232D7A
:101CA00030E02E153F05F4F44F3FC9F08616970635
:101CB000A806B90688F0A30192010E94580D232DB1
:101CC00030E040E050E0620F731F841F951F6217E1
:101CD00073078407950710F44FEF01C041E0219688
:101CE0001081C8CFC114D10451F0442311F02197C1
:101CF00003C001FF04C02297F601C083D18300FF17
:101D000007C090958095709561957F4F8F4F9F4F3D
:101D10004F3F79F482E290E08093642A9093652AA1
:101D20003FEF2FEF9FEF0DC040E030E020E090E06C
:101D300008C0462F372F282F04C0103309F067CF73
:101D40005FCF642F732F822FCDB7DEB7E1E10C9404
:101D5000081291110C941911803219F08950855094
:101D6000C8F7089548E359E20E94CB0E0895FC019C
:101D70008191861721F08823D9F799270895319703
:101D8000CF010895FB01DC018D91019080190110B4
:101D9000D9F3990B0895FA01A191B081009719F434
:101DA0001097E1F0CD01DC01CD010D90002011F480
:101DB000C00113C0FB012191222319F02015D9F78E
:101DC000F3CFFB012191201519F41E92119606C044
:101DD0002223C1F70D900020A1F7D001FA01A193B1
:101DE000B0830895A0E0B0E0E8EFFEE00C94FE11AF
:101DF000AE014B5F5F4FFA0161917191AF0180912C
:101E0000602A9091612A0E94380FE2E00C94171228
:101E10000F931F93CF93DF93E091602AF091612A93
:101E2000238121FF1BC08C01D0E0C0E0F80181912B
:101E30008F016091602A7091612ADB011896ED9103
:101E4000FC911997882331F00995892B79F3DFEFFD
:101E5000CFEFECCF8AE00995892B19F08FEF9FEF38
:101E600002C08D2F9C2FDF91CF911F910F9108956C
:101E7000ABE0B0E0EEE3FFE00C94EE116C017B010F
:101E80008A01FC0116821782838181FFCCC1CE01B9
:101E900001963C01F6019381F70193FD859193FF33
:101EA00081917F01882309F4BAC1853239F493FD09
:101EB000859193FF81917F01853229F4B60190E0ED
:101EC0000E943211E7CF912C212C312CFFE1F31528
:101ED000D8F08B3279F038F4803279F08332A1F483
:101EE000232D20611DC08D3261F0803369F4232DD4
:101EF000216016C0832D8260382EE32DE4603E2ED3
:101F00002AC0F32DF8601DC037FC2DC020ED280F2E
:101F10002A3040F08E32B9F436FC81C1232D206482
:101F2000322E19C036FE06C08AE0989E200D11247C
:101F3000922E11C0EAE02E9E200D1124222EF32DA8
:101F4000F0623F2E08C08C3621F4832D8068382E35
:101F500002C0883641F4F70193FD859193FF81918A
:101F60007F018111B3CF982F9F7D9554933028F432
:101F70000C5F1F4F9FE399830DC0833631F0833789
:101F800071F0833509F059C021C0F801808189833F
:101F90000E5F1F4F88248394912C530113C0280196
:101FA000F2E04F0E511CF801A080B18036FE03C054
:101FB000692D70E002C06FEF7FEFC5010E9427110D
:101FC0004C018201F32DFF773F2E16C0280122E03D
:101FD000420E511CF801A080B18036FE03C0692D6D
:101FE00070E002C06FEF7FEFC5010E941C114C0131
:101FF000F32DF0683F2E820133FC1BC0822D90E050
:1020000088169906B0F4B60180E290E00E94321181
:102010002A94F4CFF50137FC859137FE81915F0159
:10202000B60190E00E94321121102A9421E0821A18
:1020300091088114910471F7E8C0843611F0893653
:1020400041F5F80137FE07C060817181828193817B
:102050000C5F1F4F08C060817181072E000C880B38
:10206000990B0E5F1F4FF32DFF763F2E97FF09C090
:1020700090958095709561957F4F8F4F9F4FF06839
:102080003F2E2AE030E0A3010E946E11882E8618B0
:1020900045C0853731F4232D2F7EB22E2AE030E063
:1020A00025C0932D997FB92E8F36C1F018F488354D
:1020B00079F0B5C0803719F0883721F0B0C0E92F2A
:1020C000E061BE2EB4FE0DC0FB2DF460BF2E09C032
:1020D00034FE0AC0292F2660B22E06C028E030E068
:1020E00005C020E130E002C020E132E0F801B7FE97
:1020F00007C060817181828193810C5F1F4F06C090
:102100006081718180E090E00E5F1F4FA3010E940B
:102110006E11882E8618FB2DFF773F2E36FE0DC0E0
:10212000232D2E7FA22E891458F434FE0BC032FCCE
:1021300009C0832D8E7EA82E05C0B82CA32C03C009
:10214000B82C01C0B92CA4FE0FC0FE01E80DF11D92
:102150008081803321F49A2D997EA92E09C0A2FE98
:1021600006C0B394B39404C08A2D867809F0B39462
:10217000A3FC11C0A0FE06C0B21488F4280C922C57
:102180009B180EC0B21460F4B60180E290E00E9489
:102190003211B394F7CFB21418F42B1802C0982C54
:1021A000212CA4FE10C0B60180E390E00E94321101
:1021B000A2FE17C0A1FC03C088E790E002C088E53A
:1021C00090E0B6010CC08A2D867859F0A1FE02C0BD
:1021D0008BE201C080E2A7FC8DE2B60190E00E9494
:1021E0003211891438F4B60180E390E00E94321174
:1021F0009A94F7CF8A94F301E80DF11D8081B6011E
:1022000090E00E9432118110F5CF222009F442CED5
:10221000B60180E290E00E9432112A94F6CFF601D6
:102220008681978102C08FEF9FEF2B96E2E10C949D
:102230000712992788270895FC0105906150704086
:102240000110D8F7809590958E0F9F1F0895FC017F
:102250006150704001900110D8F7809590958E0FD5
:102260009F1F08950F931F93CF93DF93FB0123814B
:1022700021FD03C08FEF9FEF2CC022FF16C04681C7
:102280005781248135814217530744F4A081B181DD
:102290009D012F5F3F4F208331838C9326813781AF
:1022A0002F5F3F4F2683378314C08B01EC01FB0166
:1022B0000084F185E02D0995892BE1F6D801169669
:1022C0008D919C911797019616968D939C931797D5
:1022D000CE01DF91CF911F910F910895FA01AA27A6
:1022E000283051F1203181F1E8946F936E7F6E5F59
:1022F0007F4F8F4F9F4FAF4FB1E03ED0B4E03CD007
:10230000670F781F891F9A1FA11D680F791F8A1FE9
:10231000911DA11D6A0F711D811D911DA11D20D050
:1023200009F468943F912AE0269F11243019305D0A
:102330003193DEF6CF010895462F4770405D4193FB
:10234000B3E00FD0C9F7F6CF462F4F70405D4A3348
:1023500018F0495D31FD4052419302D0A9F7EACF10
:10236000B4E0A6959795879577956795BA95C9F73F
:1023700000976105710508959B01AC010A2E069432
:102380005795479537952795BA95C9F7620F731FEB
:10239000841F951FA01D0895A1E21A2EAA1BBB1B26
:1023A000FD010DC0AA1FBB1FEE1FFF1FA217B30721
:1023B000E407F50720F0A21BB30BE40BF50B661F37
:1023C000771F881F991F1A9469F7609570958095FB
:1023D00090959B01AC01BD01CF0108952F923F92D2
:1023E0004F925F926F927F928F929F92AF92BF9225
:1023F000CF92DF92EF92FF920F931F93CF93DF93D1
:10240000CDB7DEB7CA1BDB0BCDBFDEBF09942A8870
:10241000398848885F846E847D848C849B84AA84F8
:10242000B984C884DF80EE80FD800C811B81AA8185
:10243000B981CE0FD11DCDBFDEBFED010895F89457
:02244000FFCFCC
:10244200525F5050203D2025640D0A00565F4350D4
:10245200203D2025640D0A00494E495449414C490A
:102462005A45442E2E2E0D0043555252454E5420AD
:1024720053544154453A20412E2E2E0D00535441BF
:1024820054452041202D3E20420D005354415445D5
:102492002042202D3E20410D0053544154452042FC
:1024A200202D3E20430D0053544154452043202DFE
:1024B2003E20410D0053544154452043202D3E20DF
:1024C200420D004F76657274656D70657261747548
:1024D200726520636F6E646974696F6E20646574DF
:1024E20065637465642E2E2E73746F7070696E67E7
:1024F200206368617267652E200D00637430566137
:102502006C0063743156616C0063743256616C0006
:1025120049726D73300049726D73310049726D7387
:102522003200707056616C00637056616C007069A5
:102532006C6F740074656D7065726174757265009C
:10254200647574794379636C650073797374696D2A
:10255200650073656374696D650061757854696DB2
:102562006572310061757854696D657232006C6F05
:10257200636B737461746500627574746F6E7374E7
:10258200617465004963616C006D61784D61696ECB
:1025920073006D617843757272656E74006D696E59
:1025A20043757272656E74006D6F6465006C6F6363
:1025B2006B006361626C65436F6E6600737769746A
:1025C20063684D6F6465006572726F72006E657844
:1025D200745374617465006D6178436170616369FD
:1025E20074790063686172676543757272656E74AF
:1025F20000496D65617375726564004973756D009C
:1026020063686172676544656C61790061636365E3
:1026120073730073746174757300706172616D5FBE
:1026220067657400706172616D5F736574006C65DB
:10263200645F6F6E006C65645F6F6666006C6564F4
:102642005F746F67676C650070776D5F6F6E0070A7
:10265200776D5F6F666600737372315F6F6E0073C2
:102662007372315F6F666600737372325F6F6E00F2
:10267200737372325F6F666600737372335F6F6E6D
:1026820000737372335F6F666600616C6C5F7373A5
:10269200725F6F6E00616C6C5F7373725F6F666600
:1026A20000756E6C6F636B5F6361626C65006C6F6B
:1026B200636B5F6F66660072656C61795F6F6E0057
:1026C20072656C61795F6F666600726561645F63F3
:1026D2007000726561645F707000726561645F634F
:1026E20074006D65617375726543757272656E749F
:1026F20000726561645F74656D700070705F6F6811
:102702006D0063705F766F6C74003F3F003D004662
:1027120041494C2E20436F6D6D616E6420257320FC
:102722006E6F7420666F756E6420696E20636F6DC4
:102732006D616E64207461626C65210D0A00464110
:10274200494C2E204661696C656420746F2065785F
:10275200656375746520636F6D6D616E64202573AA
:10276200210D0A004641494C2E20496E76616C6962
:1027720064206F7074696F6E732F706172616D6522
:102782007465727320666F7220636F6D6D616E6423
:10279200202573210D0A004641494C2E20506172BA
:1027A200616D65746572202573206E6F7420666F8B
:1027B200756E6420696E20706172616D65746572F8
:1027C200207461626C65210D0A004F4B2E0D0024AE
:1027D20020417661696C61626C6520636F6D6D6129
:1027E2006E64733A0D00242025730D0A00242044E0
:1027F2006566696E656420706172616D657465728B
:10280200733A0D00242025643A202573203D2025AB
:102812006C750D0A002420537461747573206D6504
:0D282200737361676520656E6420230D00EF
:10282F00FD6424291004652629100B652829101230
:10283F00656C291018656E29101E657029102465A6
:10284F006A29102A65682910306567290836656579
:10285F00291042652329084C6561292054655D299B
:10286F00205C655B2910666559291070655729082A
:10287F007A6558290886652129108B6520290894C7
:10288F00651F29089F651E2908AA65562908AF6587
:10289F00552908B465542908BE651D290874651C9F
:1028AF002908C965532908CF651B2908D9655229FD
:1028BF0008E565722910F365502910FD654E291042
:1028CF0002661A29080E664D29081566280A1C6625
:1028DF00A8082666F30830666C01376671013F66FB
:1028EF0067014A66760151667D0159668701616607
:1028FF008C016A669101726696017B669B01836605
:10290F00A0018C66A5019766AF01A5667802A36644
:10291F009802B066B901B966C101C266C601CC663C
:10292F00CB01D4660202DC663902E4661003F3665B
:10293F00B802FD663E04046786043C010101060DE2
:10294F0020640032000200020002000000020000BA
:08295F000000A00A00000000C6
:0400000300000200F7
:00000001FF
