S018000061746D657673655F6669726D776172652E737265635B
S11300000C9448000C9465000C9465000C946500F5
S11300100C9465000C9465000C9465000C946500C8
S11300200C9465000C9465000C9465000C946500B8
S11300300C9465000C9465000C9465000C946500A8
S11300400C9465000C944F040C9463040C945904B0
S11300500C9465000C9465000C9465000C94650088
S11300600C9465000C9465000C9465000C94650078
S11300700C9465000C9465000C9465000C94650068
S11300800C9465000C9465000C9465000C94650058
S113009011241FBECFEFCDBFDFE3DEBF18E2A0E027
S11300A0B8E2EEEBF4E102C005900D92A031B10785
S11300B0D9F729E2A0E1B8E201C01D92AF30B2073E
S11300C0E1F70E947C000C947E090C940000E0E0AF
S11300D0F4E087818064878380E00895E0E0F4E0C1
S11300E084818F7B848380E00895E0E0F4E0848160
S11300F08064848380E00895CF93DF93CDB7DEB727
S11301002797CDBFDEBFE0E0F4E081818064818386
S11301100E946D040E945A0280E1898380E090E18C
S11301208A839B8380EA98E8A1E0B0E08C839D8376
S1130130AE83BF836EE670E082E093E50E94A60280
S113014065E770E089E093E50E94A60267E670E047
S113015081E193E50E94A60248E0BE016F5F7F4FF4
S11301608CE193E50E94290440E1BE016E5F7F4F5C
S113017082E293E50E94290440E2BE016C5F7F4F56
S113018089E293E50E9429040E94CA010E94750035
S11301900E9488040E94BE02FBCFAF92BF92CF920E
S11301A0DF92EF92FF921F93CF93DF935C017B0169
S11301B0142FC12CD12CE601F601EE0FFF1FEE0F18
S11301C0FF1FEC0DFD1DE95EF74D60817181C501D6
S11301D00E94C705892B09F042C0F8941031A1F0A0
S11301E0103221F11830C1F5C601880F991F880F0C
S11301F0991FC80FD91FC95ED74DEA81FB81D7016A
S11302008C91808380E029C0C601880F991F880FD4
S1130210991FC80FD91FC95ED74DEA81FB81E70139
S1130220888199818083918380E017C0C601880FFB
S1130230991F880F991FC80FD91FC95ED74DEA812E
S1130240FB81E70188819981AA81BB8180839183A5
S1130250A283B38380E001C08DEF789409C0DFEFFF
S1130260CD1ADD0A84E1C816D10409F0A4CF8EEFBB
S1130270DF91CF911F91FF90EF90DF90CF90BF90CF
S1130280AF900895CF92DF92EF92FF920F931F9356
S1130290CF93DF938C017B01C12CD12CE601F601B5
S11302A0EE0FFF1FEE0FFF1FEC0DFD1DE95EF74D76
S11302B060817181C8010E94C705892B09F04AC079
S11302C0F894F601EE0FFF1FEE0FFF1FEC0DFD1D5E
S11302D0E95EF74D8481803189F0803221F18830E4
S11302E0B1F50280F381E02D808190E0A0E0B0E0E0
S11302F0F70180839183A283B38329C0C601880F49
S1130300991F880F991FC80FD91FC95ED74DEA815D
S1130310FB8180819181A0E0B0E0F701808391832B
S1130320A283B38314C0C601880F991F880F991F35
S1130330C80FD91FC95ED74DEA81FB8180819181A5
S1130340A281B381F70180839183A283B3837894DC
S113035080E009C0FFEFCF1ADF0A84E1C816D10498
S113036009F09CCF8EEFDF91CF911F910F91FF90F9
S1130370EF90DF90CF9008959F938F9380E393E560
S11303809F938F930E94F7050F900F900F900F90FB
S113039080E00895DF92EF92FF920F931F93CF9323
S11303A0DF9383E393E50E940D06C0E0D0E0F12CD7
S11303B008E413E5FE01EE0FFF1FEE0FFF1FE558E3
S11303C0F74D0190F081E02D8081882359F0FF934F
S11303D0EF931F930F930E94F705F3940F900F90E0
S11303E00F900F902196C431D10521F71F9284E11B
S11303F08F931F92FF928DE493E59F938F930E94B6
S1130400F70581E793E50E940D060F900F900F907A
S11304100F900F900F90C0E0D0E0D12C06E813E5C8
S1130420FE01EE0FFF1FEE0FFF1FEC0FFD1FE95E35
S1130430F74DE080F180F70180818823E9F062E1E3
S113044078E2C7010E944201809115288F93809120
S113045014288F93809113288F93809112288F935F
S1130460FF92EF921F930F930E94F705D3948DB7D9
S11304709EB708968DBF9EBF2196C431D10581F6E3
S11304801F9284E18F931F92DF9282E993E59F93F9
S11304908F930E94F7050F900F900F900F900F907D
S11304A00F9080E0DF91CF911F910F91FF90EF901B
S11304B0DF900895EBE7F8E288EB93E5808391837E
S11304C08CEB91E0828393838DEB93E58483958316
S11304D08AEC91E08683978384EC93E58087918707
S11304E082E491E0828793878EEC93E584879587F5
S11304F08DEC90E08687978784E090E020E033E5F8
S1130500FC01EE0FFF1FEE0FFF1FE558F74D208390
S113051031831282138201968431910589F780E038
S113052090E020E033E5FC01EE0FFF1FEE0FFF1F0C
S1130530E80FF91FE95EF74D20833183128213829D
S1130540148201968431910571F708959C0190916C
S11305500028943188F4E92FF0E0EE0FFF1FEE0F2E
S1130560FF1FE558F74D20833183628373839F5FB8
S11305709093002880E008958FEF0895AF92BF9282
S1130580CF92DF92EF92FF920F931F93CF93DF935B
S113059000D000D0CDB7DEB76C016DE370E00E94EF
S11305A0BC058C016FE370E0C6010E94BC05892B79
S11305B009F44EC068ED73E5C6010E94C705892B96
S11305C009F42FC169ED73E5C6010E94B705F82E41
S11305D0E92E19821A821B821C8200E010E0F801C5
S11305E0EE0FFF1FEE0FFF1FE00FF11FE95EF74D47
S11305F0608171818F2D9E2D0E94C705892BD9F4AE
S1130600BE016F5F7F4F8F2D9E2D0E9442018C8112
S11306108F938B818F938A818F9389818F93EF92AC
S1130620FF9286E893E59F938F930E94F705CDBFD1
S1130630DEBF10E006C00F5F1F4F0431110579F6CD
S11306401FEF0F2EF4ECCF2EF3E5DF2EF02DA9C013
S1130650012B09F4ECC06BED73E5C6010E94B705EC
S11306606C016BED73E580E090E00E94B7055C01DE
S113067000E010E0F801EE0FFF1FEE0FFF1FE00F88
S1130680F11FE95EF74D60817181C6010E94C705C3
S1130690892B09F04BC0F801EE0FFF1FEE0FFF1F6F
S11306A0E00FF11FE95EF74D84818031A1F08032C3
S11306B019F1883099F540E050E060E070E0C50140
S11306C00E94B904698348E0BE016F5F7F4FC60191
S11306D00E94CD0023C040E050E060E070E0C5011E
S11306E00E94B90469837A8340E1BE016F5F7F4F42
S11306F0C6010E94CD0012C040E050E060E070E00E
S1130700C5010E94B90469837A838B839C8340E288
S1130710BE016F5F7F4FC6010E94CD000F2EFEEC1D
S1130720CF2EF3E5DF2EF02D10E06EC00F5F1F4FCC
S11307300431110509F09ECF0F2EFEECCF2EF3E508
S1130740DF2EF02D1FEF38C0F801EE0FFF1FEE0F64
S1130750FF1FE558F74D60817181C6010E94C705EE
S1130760892BC1F4F801EE0FFF1FEE0FFF1FE558B0
S1130770F74D82819381892B61F1F801EE0FFF1F00
S1130780EE0FFF1FE558F74D0280F381E02D099528
S1130790182F07C00F5F1F4F04311105A9F61FEF73
S11307A00BC01E3FB9F01CF41D3F09F143C01F3FAD
S11307B019F011113FC028C0DF92CF928DED93E55F
S11307C09F938F930E94F7050F900F900F900F90B7
S11307D031C01EEFDF92CF928CE094E59F938F930C
S11307E00E94F7050F900F900F900F9023C0DF9297
S11307F0CF9282E394E59F938F930E94F7050F9025
S11308000F900F900F9016C0DF92CF9285E694E57B
S11308109F938F930E94F7050F900F900F900F9066
S113082009C00F2EFDEBCF2EF3E5DF2EF02D00E0F7
S113083010E08ACF812F2496CDBFDEBFDF91CF9108
S11308401F910F91FF90EF90DF90CF90BF90AF90EA
S113085008959C01909116289431A8F4E92FF0E0B2
S1130860DF01AA0FBB1FAA0FBB1FEA0FFB1FE95E24
S1130870F74D208331836283738344839F5F909316
S1130880162880E008958FEF0895E0E0F8E0948161
S113089095FFFDCF8093020880E090E008951F92B9
S11308A00F920FB60F9211240F900FBE0F901F904E
S11308B018951F920F920FB60F9211240F900FBE2E
S11308C00F901F9018951F920F920FB60F9211243C
S11308D00F900FBE0F901F901895E0E0F8E084E7AA
S11308E090E0808791878581806E85838681806C86
S11308F08683E0E0F4E081818160818381818D7F62
S1130900818381E098E28093092990930A290895CC
S1130910A0E0E0E0F8E084818823ECF780818A306D
S113092009F18D30C1F391E09A0FB0E0A553B74DB2
S11309308C939D33A8F01F928CE38F932DE834E5BC
S11309403F932F931F928F938BEC98E29F938F93F7
S11309500E943D068DB79EB708968DBF9EBF06C008
S1130960A92FD9CFB0E0A553B74D1C928BEC98E2D8
S11309700895A0E0B0E0EFEBF4E00C943F095C01D3
S11309806B017A016115710519F0FB018083918374
S1130990E114F10429F0C7010297839708F0C9C054
S11309A0E5012196F5011081812F90E00E94AE05AA
S11309B0892B11F05E01F4CF1D3229F42196F50143
S11309C0118101E007C01B3221F4E5012296F501F3
S11309D0118100E0E114F104B1F0F0E1EF16F1044B
S11309E029F4B0C010E3E114F10401F12AE0E216A5
S11309F0F104B1F180E1E816F10471F0E8E0EE16DB
S1130A00F104F1F413C0103341F588818F7D8835EA
S1130A1049F7198122960260F0E1EF2EF12C882427
S1130A208A94982CA82CAFE0BA2E20C078E0E72E48
S1130A30F12C88248A94982CA82CEFE1BE2E16C0A1
S1130A406FEF7FEFCB0197010F2C000C440B550B7C
S1130A500E94110949015A0109C08AE0E82EF12CCB
S1130A6069E9862E982CA82C69E1B62E40E060E056
S1130A7070E0CB0127010F2C000C66087708FE01FB
S1130A8050ED352E310E29E0231570F42FEB210F94
S1130A902A3118F439EC332E06C02FE9210F2A31FC
S1130AA030F529EA322E310E232D30E02E153F0584
S1130AB0F4F44F3FC9F086169706A806B90688F0E5
S1130AC0A30192010E940109232D30E040E050E08F
S1130AD0620F731F841F951F62177307840795079E
S1130AE010F44FEF01C041E021961081C8CFC1142A
S1130AF0D10451F0442311F0219703C001FF04C035
S1130B002297F601C083D18300FF07C0909580959A
S1130B10709561957F4F8F4F9F4F4F3F79F482E2DD
S1130B2090E080930D2990930E293FEF2FEF9FEFD4
S1130B300DC040E030E020E090E008C0462F372FA1
S1130B40282F04C0103309F067CF5FCF642F732FB1
S1130B50822FCDB7DEB7E1E10C94580991110C94C2
S1130B604E08803219F089508550C8F7089540E145
S1130B7058E20E94D0050895FC018191861721F066
S1130B808823D9F7992708953197CF010895FB0158
S1130B90DC018D91019080190110D9F3990B08950E
S1130BA0FA01A191B081009719F41097E1F0CD01F9
S1130BB0DC01CD010D90002011F4C00113C0FB0134
S1130BC02191222319F02015D9F7F3CFFB012191AC
S1130BD0201519F41E92119606C02223C1F70D9018
S1130BE00020A1F7D001FA01A193B0830895A0E0F9
S1130BF0B0E0EDEFF5E00C944E09AE014B5F5F4FB2
S1130C00FA0161917191AF018091092990910A29AA
S1130C100E946D06E2E00C9467090F931F93CF9333
S1130C20DF93E0910929F0910A29238121FF1BC058
S1130C308C01D0E0C0E0F80181918F016091092915
S1130C4070910A29DB011896ED91FC91199788237C
S1130C5031F00995892B79F3DFEFCFEFECCF8AE000
S1130C600995892B19F08FEF9FEF02C08D2F9C2FD0
S1130C70DF91CF911F910F910895AEE0B0E0E3E4CE
S1130C80F6E00C944C090D891E898F89988D26E015
S1130C902C8309831A8397FF02C080E090E80197B0
S1130CA08D839E83AE01455E5F4F698D7A8DCE0143
S1130CB001960E946D064D815E8157FD0AC02F8109
S1130CC03885421753070CF49A01F801E20FF31F19
S1130CD010822E96E4E00C946509ABE0B0E0E3E703
S1130CE0F6E00C943E096C017B018A01FC0116823A
S1130CF01782838181FFCCC1CE0101963C01F601AC
S1130D009381F70193FD859193FF81917F0188235E
S1130D1009F4BAC1853239F493FD859193FF819129
S1130D207F01853229F4B60190E00E946708E7CF7D
S1130D30912C212C312CFFE1F315D8F08B3279F072
S1130D4038F4803279F08332A1F4232D20611DC060
S1130D508D3261F0803369F4232D216016C0832D18
S1130D608260382EE32DE4603E2E2AC0F32DF86015
S1130D701DC037FC2DC020ED280F2A3040F08E32E4
S1130D80B9F436FC81C1232D2064322E19C036FEFD
S1130D9006C08AE0989E200D1124922E11C0EAE02C
S1130DA02E9E200D1124222EF32DF0623F2E08C01A
S1130DB08C3621F4832D8068382E02C0883641F4A5
S1130DC0F70193FD859193FF81917F018111B3CF49
S1130DD0982F9F7D9554933028F40C5F1F4F9FE309
S1130DE099830DC0833631F0833771F0833509F070
S1130DF059C021C0F801808189830E5F1F4F882468
S1130E008394912C530113C02801F2E04F0E511C1E
S1130E10F801A080B18036FE03C0692D70E002C0E5
S1130E206FEF7FEFC5010E945C084C018201F32D36
S1130E30FF773F2E16C0280122E0420E511CF80114
S1130E40A080B18036FE03C0692D70E002C06FEF50
S1130E507FEFC5010E9451084C01F32DF0683F2E2D
S1130E60820133FC1BC0822D90E088169906B0F4F1
S1130E70B60180E290E00E9467082A94F4CFF5015D
S1130E8037FC859137FE81915F01B60190E00E94A5
S1130E90670821102A9421E0821A91088114910490
S1130EA071F7E8C0843611F0893641F5F80137FE50
S1130EB007C060817181828193810C5F1F4F08C0DC
S1130EC060817181072E000C880B990B0E5F1F4FF8
S1130ED0F32DFF763F2E97FF09C09095809570956E
S1130EE061957F4F8F4F9F4FF0683F2E2AE030E08F
S1130EF0A3010E94A308882E861845C0853731F4C3
S1130F00232D2F7EB22E2AE030E025C0932D997F29
S1130F10B92E8F36C1F018F4883579F0B5C0803712
S1130F2019F0883721F0B0C0E92FE061BE2EB4FE7D
S1130F300DC0FB2DF460BF2E09C034FE0AC0292F5A
S1130F402660B22E06C028E030E005C020E130E083
S1130F5002C020E132E0F801B7FE07C06081718170
S1130F60828193810C5F1F4F06C06081718180E094
S1130F7090E00E5F1F4FA3010E94A308882E8618DD
S1130F80FB2DFF773F2E36FE0DC0232D2E7FA22E84
S1130F90891458F434FE0BC032FC09C0832D8E7EB4
S1130FA0A82E05C0B82CA32C03C0B82C01C0B92CA2
S1130FB0A4FE0FC0FE01E80DF11D8081803321F4F1
S1130FC09A2D997EA92E09C0A2FE06C0B394B394AB
S1130FD004C08A2D867809F0B394A3FC11C0A0FE46
S1130FE006C0B21488F4280C922C9B180EC0B214BC
S1130FF060F4B60180E290E00E946708B394F7CFF2
S1131000B21418F42B1802C0982C212CA4FE10C082
S1131010B60180E390E00E946708A2FE17C0A1FC1D
S113102003C088E790E002C088E590E0B6010CC0F8
S11310308A2D867859F0A1FE02C08BE201C080E2BD
S1131040A7FC8DE2B60190E00E946708891438F489
S1131050B60180E390E00E9467089A94F7CF8A94DF
S1131060F301E80DF11D8081B60190E00E9467084C
S11310708110F5CF222009F442CEB60180E290E03F
S11310800E9467082A94F6CFF6018681978102C0F0
S11310908FEF9FEF2B96E2E10C945709992788274D
S11310A00895FC010590615070400110D8F78095B7
S11310B090958E0F9F1F0895FC0161507040019020
S11310C00110D8F7809590958E0F9F1F08950F9368
S11310D01F93CF93DF93FB01238121FD03C08FEF87
S11310E09FEF2CC022FF16C0468157812481358191
S11310F04217530744F4A081B1819D012F5F3F4FF4
S1131100208331838C93268137812F5F3F4F268341
S1131110378314C08B01EC01FB010084F185E02DC1
S11311200995892BE1F6D80116968D919C91179714
S1131130019616968D939C931797CE01DF91CF91CC
S11311401F910F910895FA01AA27283051F12031F7
S113115081F1E8946F936E7F6E5F7F4F8F4F9F4F47
S1131160AF4FB1E03ED0B4E03CD0670F781F891F89
S11311709A1FA11D680F791F8A1F911DA11D6A0F57
S1131180711D811D911DA11D20D009F468943F910A
S11311902AE0269F11243019305D3193DEF6CF0109
S11311A00895462F4770405D4193B3E00FD0C9F7CF
S11311B0F6CF462F4F70405D4A3318F0495D31FD3C
S11311C04052419302D0A9F7EACFB4E0A69597958F
S11311D0879577956795BA95C9F700976105710565
S11311E008959B01AC010A2E0694579547953795AF
S11311F02795BA95C9F7620F731F841F951FA01D09
S11312000895DB018F939F930E943309BF91AF919F
S1131210A29F800D911DA39F900DB29F900D11244C
S11312200895A1E21A2EAA1BBB1BFD010DC0AA1F23
S1131230BB1FEE1FFF1FA217B307E407F50720F03B
S1131240A21BB30BE40BF50B661F771F881F991FB6
S11312501A9469F760957095809590959B01AC01FF
S1131260BD01CF0108950E946F09A59F900DB49F01
S1131270900DA49F800D911D112408952F923F92EB
S11312804F925F926F927F928F929F92AF92BF9292
S1131290CF92DF92EF92FF920F931F93CF93DF933E
S11312A0CDB7DEB7CA1BDB0BCDBFDEBF09942A88DE
S11312B0398848885F846E847D848C849B84AA8466
S11312C0B984C884DF80EE80FD800C811B81AA81F3
S11312D0B981CE0FD11DCDBFDEBFED010895A29F10
S11312E0B001B39FC001A39F700D811D1124911DF6
S11312F0B29F700D811D1124911D0895F894FFCFA4
S113130000006C65645F6F6E006C65645F6F666699
S1131310006C65645F746F67676C650074657374F3
S11313203800746573743136007465737433320035
S1131330257300417661696C61626C6520636F6D31
S11313406D616E64733A0D0025730D0A004E6F2EA5
S1131350206F6620726567697374657265642063C3
S11313606F6D6D616E64733A2025642F25640D0AD8
S113137000446566696E656420706172616D6574B0
S11313806572733A0D002573203D20252B6C750D75
S11313900A004E6F2E206F6620726567697374654C
S11313A072656420706172616D65746572733A2050
S11313B025642F25640D0A006563686F00737461EA
S11313C074757300706172616D5F6765740070613C
S11313D072616D5F736574003F3F003D0046414993
S11313E04C2E20436F6D6D616E64202573206E6FEB
S11313F07420666F756E6420696E20636F6D6D6115
S11314006E64207461626C65210D0A004641494C8A
S11314102E204661696C656420746F20657865636D
S113142075746520636F6D6D616E64202573210D85
S11314300A004641494C2E20496E76616C6964204D
S11314406F7074696F6E732F706172616D6574650E
S1131450727320666F7220636F6D6D616E642025F8
S113146073210D0A004F4B2E20436F6D6D616E6426
S113147020257320657865637574656420737563CE
S11314806365737366756C6C79210D0A00496E701F
S1131490757420746F6F206C6F6E672C206D61788B
S11314A0696D756D206E6F2E206F662063686172A2
S11114B07320616C6C6F7765643A20256400CC
S11314BE04000000020000000045040000000000CB
S9030000FC
