S018000061746D657673655F6669726D776172652E737265635B
S11302000C9448010C9465010C9465010C946501EF
S11302100C9465010C9465010C9465010C946501C2
S11302200C9465010C9465010C9465010C946501B2
S11302300C945B020C9465010C9465010C946501AB
S11302400C9465010C9487020C9465010C9465016F
S11302500C9445020C9465010C9465010C946501A1
S11302600C9465010C9465010C9465010C94650172
S11302700C9465010C9465010C9465010C94650162
S11302800C9465010C9465010C9465010C94650152
S113029011241FBECFEFCDBFDFE3DEBF18E2A0E025
S11302A0B8E2E1E9FAE002C005900D92A031B1078D
S11302B0D9F728E2A0E1B8E201C01D92AF3DB20730
S11302C0E1F70E94B5020C9448040C940001CF930A
S11302D0DF9398ED94BFE0E1F1E080818064808356
S11302E080818160808394BF31E030936100E0E6D7
S11302F0F4E088E0818390E192839489987F948BE1
S113030094899260948B9489977F948BA0E0B4E055
S113031090E711969C93119716969C9316971196B5
S11303208C93119716968C93169790E811969C933C
S1130330119715969C931597C0E4D4E084E08983C3
S11303408D8382832289228B20E222832589287F40
S1130350258B25892460258B2589277F258B20E4FF
S113036022832689287F268B26892460268B26894A
S1130370277F268B92839789987F978B97899460A0
S1130380978B9789977F978B32839089987F908BEF
S113039090899460908B9089977F908B92E0928360
S11303A09189987F918B91899460918B9189977FA2
S11303B0918B1092E40511968C93119715968C935A
S11303C0C0E0DAE0888187608883898187608983D7
S11303D089858E7F898781E792E08EAB9FAB6091A0
S11303E0002870E080E090E00E941F032AE037EDCF
S11303F043E25CE30E94830320E030E44CE154E4F4
S11304000E9483030E94EE026CAF7DAF89818F7BD3
S11304108983E0E8FAE0808184608083818181833C
S113042084818E7F84838581816085838FEF9FEFB4
S113043084879587808181608083E0E0F1E181A1F8
S11304408093122880A180931128E0EAF0E0808153
S113045080618083818182608183E0E0F6E0828133
S1130460856182838381838385E08583828180643F
S113047082838081816080830E94C2021092D72887
S11304801092D828DF91CF9108951F920F920FB642
S11304900F9211248F93EF93FF93E0E6F4E088E04A
S11304A0878380E18187FF91EF918F910F900FBE39
S11304B00F901F9018951F920F920FB60F92112450
S11304C02F933F934F935F936F937F938F939F9358
S11304D0AF93BF93EF93FF9384E998E40E941804C9
S11304E088E08093670481E08093860AFF91EF910E
S11304F0BF91AF919F918F917F916F915F914F9138
S11305003F912F910F900FBE0F901F9018951F923F
S11305100F920FB60F9211248F939F93EF93FF9333
S1130520809100088D30C1F0E091D8288A3049F0DC
S113053091E09E0F9093D828F0E0E956F74D808320
S11305400BC081E08E0F8093D828F0E0E956F74D78
S1130550108281E080931028FF91EF919F918F91F9
S11305600F900FBE0F901F9018950E94670178940A
S1130570FFCF9091040895FFFCCF8093020880E0A0
S113058090E0089581E098E28093DB289093DC2842
S1130590E0E0F8E08BE591E0808791878581806ECB
S11305A085838681806C8683E0E0F4E021E021830A
S11305B092E09283E0E2F8E047E450E1408751871B
S11305C08581816E85838681806C8683E0E4F4E096
S11305D02183928388E08183868308950E94620345
S11305E088F09F5798F0B92F9927B751B0F0E1F0F0
S11305F0660F771F881F991F1AF0BA95C9F714C0A0
S1130600B13091F00E947C03B1E008950C947C0316
S1130610672F782F8827B85F39F0B93FCCF38695D8
S113062077956795B395D9F73EF490958095709535
S113063061957F4F8F4F9F4F0895E89409C097FBB2
S11306403EF490958095709561957F4F8F4F9F4FA5
S11306509923A9F0F92F96E9BB279395F6958795E9
S113066077956795B795F111F8CFFAF4BB0F11F4AC
S113067060FF1BC06F5F7F4F8F4F9F4F16C0882353
S113068011F096E911C0772321F09EE8872F762F89
S113069005C0662371F096E8862F70E060E02AF0CA
S11306A09A95660F771F881FDAF7880F96958795B6
S11306B097F9089557FD9058440F551F59F05F3F1F
S11306C071F04795880F97FB991F61F09F3F79F070
S11306D087950895121613061406551FF2CF4695F2
S11306E0F1DF08C0161617061806991FF1CF869574
S11306F07105610508940895E894BB276627772758
S1130700CB0197F908950E9496030C9407040E9464
S1130710F90338F00E94000420F0952311F00C94A2
S1130720F0030C94F60311240C947D030E945A03E5
S113073070F3959FC1F3950F50E0551F629FF00130
S1130740729FBB27F00DB11D639FAA27F00DB11D49
S1130750AA1F649F6627B00DA11D661F829F2227D2
S1130760B00DA11D621F739FB00DA11D621F839F59
S1130770A00D611D221F749F3327A00D611D231F2F
S1130780849F600D211D822F762F6A2F11249F577D
S113079050409AF0F1F088234AF0EE0FFF1FBB1F80
S11307A0661F771F881F91505040A9F79E3F51053F
S11307B080F00C94F0030C947D035F3FE4F3983EC7
S11307C0D4F3869577956795B795F795E7959F5FE9
S11307D0C1F7FE2B880F911D9695879597F908957B
S11307E097F99F6780E870E060E008959FEF80ECE0
S11307F0089500240A941616170618060906089583
S113080000240A9412161306140605060895092EE8
S11308100394000C11F4882352F0BB0F40F4BF2B57
S113082011F460FF04C06F5F7F4F8F4F9F4F089597
S11308300F931F93CF93DF93E091DB28F091DC2893
S1130840238121FF1BC08C01D0E0C0E0F80181911D
S11308508F016091DB287091DC28DB011896ED9103
S1130860FC911997882331F00995892B79F3DFEFEF
S1130870CFEFECCF8AE00995892B19F08FEF9FEF2A
S113088002C08D2F9C2FDF91CF911F910F9108955E
S1070890F894FFCF06
S1130894496E74657272757074210D0063743056F8
S11308A4616C0063743156616C0063743256616C1C
S11308B40049726D73300049726D73310049726D71
S11308C4733200707056616C00637056616C007012
S11308D4696C6F740074656D7065726174757265AA
S11308E400647574794379636C650073797374690E
S11308F46D650073656374696D6500617578546929
S11309046D6572310061757854696D657232006C7D
S11309146F636B737461746500627574746F6E7362
S113092474617465004963616C006D61784D61693B
S11309346E73006D617843757272656E74006D69CF
S11309446E43757272656E74006D6F6465006C6FCE
S1130954636B006361626C65436F6E6600737769F1
S11309647463684D6F6465006572726F72006E65BE
S113097478745374617465006D6178436170616364
S11309846974790063686172676543757272656E30
S11309947400496D65617375726564004973756D9E
S11309A40063686172676544656C617900616363BF
S11309B46573730073746174757300706172616D2F
S11309C45F67657400706172616D5F736574006C58
S11309D465645F6F6E006C65645F6F6666006C656A
S11309E4645F746F67676C650070776D5F6F6E002A
S11309F470776D5F6F666600737372315F6F6E003C
S1130A04737372315F6F666600737372325F6F6EF5
S1130A1400737372325F6F666600737372335F6F51
S1130A246E00737372335F6F666600616C6C5F7320
S1130A3473725F6F6E00616C6C5F7373725F6F6669
S1130A446600756E6C6F636B5F6361626C65006CEA
S1130A546F636B5F6F66660072656C61795F6F6E5E
S1130A640072656C61795F6F666600726561645FCC
S1130A74637000726561645F707000726561645FC5
S1100A84637400726561645F74656D7000D9
S1130A91320000000200000000B902000000000062
S9030200FA
