:100000000C9448000C9465000C9465000C946500F9
:100010000C9465000C9465000C9465000C946500CC
:100020000C9465000C9465000C9465000C946500BC
:100030000C9465000C9465000C9465000C946500AC
:100040000C9465000C9465000C9465000C9465009C
:100050000C9465000C9465000C9465000C9465008C
:100060000C9465000C9465000C9465000C9465007C
:100070000C9465000C9465000C9465000C9465006C
:100080000C9465000C9465000C9465000C9465005C
:1000900011241FBECFEFCDBFDFE3DEBF18E2A0E02B
:1000A000B8E2E0E2F8E002C005900D92AE30B10790
:1000B000D9F728E2AEE0B8E201C01D92A439B20738
:1000C000E1F70E9473000C94F3030C940000E0E04D
:1000D000F4E084818F7B84830895E0E0F4E0848100
:1000E000806484830895E0E0F4E08181806481830A
:1000F0000E94A2000E946D00CAEED7E40E94670031
:100100000E94BA00182F092F0E946D000F931F93B1
:10011000DF93CF930E94EB0095E126E185E09150BB
:1001200020408040E1F70F900F900F900F90E6CFA6
:10013000E0E0F8E0948195FFFDCF8093020880E035
:1001400090E00895E0E0F8E084E790E08087918710
:100150008681806C8683E0E0F4E081818160818328
:1001600081818D7F818380E098E2809390289093B5
:1001700091280895A0E0E0E0F8E084818823ECF77E
:1001800080818A3009F18D30C1F391E09A0FB0E09F
:10019000A25FB74D8C939138A8F01F9280E88F939F
:1001A0002FEE37E43F932F931F928F938EE098E2C8
:1001B0009F938F930E9401018DB79EB708968DBFC4
:1001C0009EBF06C0A92FD9CFB0E0A25FB74D1C9249
:1001D0008EE098E20895A0E0B0E0E1EFF0E00C944A
:1001E000D203AE014B5F5F4FFA0161917191AF0194
:1001F00080919028909191280E943101E2E00C9426
:10020000EB03AEE0B0E0E7E0F1E00C94D0030D8941
:100210001E898F89988D26E02C8309831A8397FF86
:1002200002C080E090E801978D839E83AE01455E19
:100230005F4F698D7A8DCE0101960E9431014D810B
:100240005E8157FD0AC02F813885421753070CF491
:100250009A01F801E20FF31F10822E96E4E00C944D
:10026000E903ABE0B0E0E7E3F1E00C94C2036C011A
:100270007B018A01FC0116821782838181FFCCC138
:10028000CE0101963C01F6019381F70193FD859122
:1002900093FF81917F01882309F4BAC1853239F433
:1002A00093FD859193FF81917F01853229F4B601F9
:1002B00090E00E942803E7CF912C212C312CFFE104
:1002C000F315D8F08B3279F038F4803279F083323C
:1002D000A1F4232D20611DC08D3261F0803369F4BB
:1002E000232D216016C0832D8260382EE32DE4601B
:1002F0003E2E2AC0F32DF8601DC037FC2DC020ED26
:10030000280F2A3040F08E32B9F436FC81C1232DFB
:100310002064322E19C036FE06C08AE0989E200D59
:100320001124922E11C0EAE02E9E200D1124222EBF
:10033000F32DF0623F2E08C08C3621F4832D8068A7
:10034000382E02C0883641F4F70193FD859193FF62
:1003500081917F018111B3CF982F9F7D9554933068
:1003600028F40C5F1F4F9FE399830DC0833631F053
:10037000833771F0833509F059C021C0F8018081BD
:1003800089830E5F1F4F88248394912C530113C0DF
:100390002801F2E04F0E511CF801A080B18036FE1A
:1003A00003C0692D70E002C06FEF7FEFC5010E94AE
:1003B0001D034C018201F32DFF773F2E16C028014B
:1003C00022E0420E511CF801A080B18036FE03C02D
:1003D000692D70E002C06FEF7FEFC5010E9412032C
:1003E0004C01F32DF0683F2E820133FC1BC0822D9F
:1003F00090E088169906B0F4B60180E290E00E9481
:1004000028032A94F4CFF50137FC859137FE8191BA
:100410005F01B60190E00E94280321102A9421E098
:10042000821A91088114910471F7E8C0843611F0A2
:10043000893641F5F80137FE07C0608171818281FC
:1004400093810C5F1F4F08C060817181072E000CE3
:10045000880B990B0E5F1F4FF32DFF763F2E97FFF2
:1004600009C090958095709561957F4F8F4F9F4FF4
:10047000F0683F2E2AE030E0A3010E946403882E3A
:10048000861845C0853731F4232D2F7EB22E2AE001
:1004900030E025C0932D997FB92E8F36C1F018F426
:1004A000883579F0B5C0803719F0883721F0B0C0B1
:1004B000E92FE061BE2EB4FE0DC0FB2DF460BF2E0F
:1004C00009C034FE0AC0292F2660B22E06C028E0DB
:1004D00030E005C020E130E002C020E132E0F80168
:1004E000B7FE07C060817181828193810C5F1F4FCD
:1004F00006C06081718180E090E00E5F1F4FA30114
:100500000E946403882E8618FB2DFF773F2E36FE4F
:100510000DC0232D2E7FA22E891458F434FE0BC05B
:1005200032FC09C0832D8E7EA82E05C0B82CA32CCA
:1005300003C0B82C01C0B92CA4FE0FC0FE01E80D09
:10054000F11D8081803321F49A2D997EA92E09C056
:10055000A2FE06C0B394B39404C08A2D867809F035
:10056000B394A3FC11C0A0FE06C0B21488F4280CFA
:10057000922C9B180EC0B21460F4B60180E290E099
:100580000E942803B394F7CFB21418F42B1802C0BA
:10059000982C212CA4FE10C0B60180E390E00E94AC
:1005A0002803A2FE17C0A1FC03C088E790E002C0A8
:1005B00088E590E0B6010CC08A2D867859F0A1FE3E
:1005C00002C08BE201C080E2A7FC8DE2B60190E0A0
:1005D0000E942803891438F4B60180E390E00E9459
:1005E00028039A94F7CF8A94F301E80DF11D8081D6
:1005F000B60190E00E9428038110F5CF222009F473
:1006000042CEB60180E290E00E9428032A94F6CF01
:10061000F6018681978102C08FEF9FEF2B96E2E172
:100620000C94DB03FC010590615070400110D8F779
:10063000809590958E0F9F1F0895FC01615070402A
:1006400001900110D8F7809590958E0F9F1F089507
:100650000F931F93CF93DF93FB01238121FD03C0F1
:100660008FEF9FEF2CC022FF16C046815781248157
:1006700035814217530744F4A081B1819D012F5F5A
:100680003F4F208331838C93268137812F5F3F4FEB
:100690002683378314C08B01EC01FB010084F185B4
:1006A000E02D0995892BE1F6D80116968D919C9144
:1006B0001797019616968D939C931797CE01DF910D
:1006C000CF911F910F910895FA01AA27283051F177
:1006D000203181F1E8946F936E7F6E5F7F4F8F4F73
:1006E0009F4FAF4FB1E03ED0B4E03CD0670F781FD2
:1006F000891F9A1FA11D680F791F8A1F911DA11DB7
:100700006A0F711D811D911DA11D20D009F46894EF
:100710003F912AE0269F11243019305D3193DEF697
:10072000CF010895462F4770405D4193B3E00FD04D
:10073000C9F7F6CF462F4F70405D4A3318F0495D38
:1007400031FD4052419302D0A9F7EACFB4E0A6951B
:100750009795879577956795BA95C9F7009761053D
:10076000710508959B01AC010A2E06945795479593
:1007700037952795BA95C9F7620F731F841F951F88
:10078000A01D08952F923F924F925F926F927F9299
:100790008F929F92AF92BF92CF92DF92EF92FF9291
:1007A0000F931F93CF93DF93CDB7DEB7CA1BDB0B3D
:1007B000CDBFDEBF09942A88398848885F846E845B
:1007C0007D848C849B84AA84B984C884DF80EE8075
:1007D000FD800C811B81AA81B981CE0FD11DCDBFB7
:0A07E000DEBFED010895F894FFCF8D
:1007EA0025730D0A00496E70757420746F6F206C42
:1007FA006F6E672C206D6178696D756D206E6F2E36
:10080A00206F6620636861727320616C6C6F776514
:06081A00643A2025640091
:0E082000000000020000000098000000000030
:00000001FF
