S018000061746D657673655F6669726D776172652E737265635B
S11300000C9448000C9465000C9465000C946500F5
S11300100C9465000C9465000C9465000C946500C8
S11300200C9465000C9465000C9465000C946500B8
S11300300C9465000C9465000C9465000C946500A8
S11300400C9465000C9465000C9465000C94650098
S11300500C9465000C9465000C9465000C94650088
S11300600C9465000C9465000C9465000C94650078
S11300700C9465000C9465000C9465000C94650068
S11300800C9465000C9465000C9465000C94650058
S113009011241FBECFEFCDBFDFE3DEBF18E2A0E027
S11300A0B8E2E7E5FAE002C005900D92AE30B10780
S11300B0D9F728E2AEE0B8E201C01D92A53EB2072E
S11300C0E1F70E947C000C94AB040C940000E0E087
S11300D0F4E087818064878380E00895E0E0F4E0C1
S11300E084818F7B848380E00895E0E0F4E0848160
S11300F08064848380E00895E0E0F4E0818180649A
S113010081830E9451010E949E006EE670E08CE59E
S113011099E40E94B20065E770E083E699E40E94E6
S1130120B20067E670E08BE699E40E94B2000E9498
S113013075000E9469010E94CA00FBCF80E090E034
S11301402AE539E4FC01EE0FFF1FEE0FFF1FE15F0C
S1130150F74D2083318312821382019684319105F5
S113016089F708959C0190910E28943188F4E92F21
S1130170F0E0EE0FFF1FEE0FFF1FE15FF74D20834E
S11301803183628373839F5F90930E2880E0089588
S11301908FEF0895EF92FF920F931F93CF93DF9306
S11301A0F82EE92EC0E0D0E08E01FE01EE0FFF1F15
S11301B0EE0FFF1FE15FF74D608171818F2D9E2D42
S11301C00E949A01892B11F5FE01EE0FFF1FEE0F1D
S11301D0FF1FE15FF74D82819381892B49F1000F65
S11301E0111F000F111FF801E15FF74D0280F38129
S11301F0E02D0995C82F8E3FE1F01CF48D3F31F1BD
S11302003EC08F3F41F0882371F139C02196C4313B
S1130210D10551F6CFEFEF92FF9286E799E49F93D1
S11302208F930E94A3010F900F900F900F9027C0FF
S1130230CEEFEF92FF9285EA99E49F938F930E9409
S1130240A3010F900F900F900F9019C0EF92FF929F
S11302508BEC99E49F938F930E94A3010F900F90CE
S11302600F900F900CC0EF92FF928EEF99E49F9342
S11302708F930E94A3010F900F900F900F908C2FDB
S1130280DF91CF911F910F91FF90EF900895E0E0DF
S1130290F8E0948195FFFDCF8093020880E090E020
S11302A00895E0E0F8E084E790E080879187868114
S11302B0806C8683E0E0F4E08181816081838181C8
S11302C08D7F818380E098E28093E1289093E228F7
S11302D00895A0E0E0E0F8E084818823ECF78081D1
S11302E08A3009F18D30C1F391E09A0FB0E0A15A40
S11302F0B74D8C939138A8F01F9280E88F9326E233
S11303003AE43F932F931F928F938FE598E29F9344
S11303108F930E94B9018DB79EB708968DBF9EBF7B
S113032006C0A92FD9CFB0E0A15AB74D1C928FE5D2
S113033098E20895FB01DC018D9101908019011070
S1130340D9F3990B0895A0E0B0E0E9EAF1E00C9448
S11303508A04AE014B5F5F4FFA0161917191AF0165
S11303608091E1289091E2280E94E901E2E00C9456
S1130370A304AEE0B0E0EFEBF1E00C9488040D8947
S11303801E898F89988D26E02C8309831A8397FF11
S113039002C080E090E801978D839E83AE01455EA4
S11303A05F4F698D7A8DCE0101960E94E9014D81DE
S11303B05E8157FD0AC02F813885421753070CF41C
S11303C09A01F801E20FF31F10822E96E4E00C94D8
S11303D0A104ABE0B0E0EFEEF1E00C947A046C0120
S11303E07B018A01FC0116821782838181FFCCC1C3
S11303F0CE0101963C01F6019381F70193FD8591AD
S113040093FF81917F01882309F4BAC1853239F4BD
S113041093FD859193FF81917F01853229F4B60183
S113042090E00E94E003E7CF912C212C312CFFE1D6
S1130430F315D8F08B3279F038F4803279F08332C6
S1130440A1F4232D20611DC08D3261F0803369F445
S1130450232D216016C0832D8260382EE32DE460A5
S11304603E2E2AC0F32DF8601DC037FC2DC020EDB0
S1130470280F2A3040F08E32B9F436FC81C1232D86
S11304802064322E19C036FE06C08AE0989E200DE4
S11304901124922E11C0EAE02E9E200D1124222E4A
S11304A0F32DF0623F2E08C08C3621F4832D806832
S11304B0382E02C0883641F4F70193FD859193FFED
S11304C081917F018111B3CF982F9F7D95549330F3
S11304D028F40C5F1F4F9FE399830DC0833631F0DE
S11304E0833771F0833509F059C021C0F801808148
S11304F089830E5F1F4F88248394912C530113C06A
S11305002801F2E04F0E511CF801A080B18036FEA4
S113051003C0692D70E002C06FEF7FEFC5010E9438
S1130520D5034C018201F32DFF773F2E16C028011D
S113053022E0420E511CF801A080B18036FE03C0B7
S1130540692D70E002C06FEF7FEFC5010E94CA03FE
S11305504C01F32DF0683F2E820133FC1BC0822D29
S113056090E088169906B0F4B60180E290E00E940B
S1130570E0032A94F4CFF50137FC859137FE81918D
S11305805F01B60190E00E94E00321102A9421E06B
S1130590821A91088114910471F7E8C0843611F02D
S11305A0893641F5F80137FE07C060817181828187
S11305B093810C5F1F4F08C060817181072E000C6E
S11305C0880B990B0E5F1F4FF32DFF763F2E97FF7D
S11305D009C090958095709561957F4F8F4F9F4F7F
S11305E0F0683F2E2AE030E0A3010E941C04882E0C
S11305F0861845C0853731F4232D2F7EB22E2AE08C
S113060030E025C0932D997FB92E8F36C1F018F4B0
S1130610883579F0B5C0803719F0883721F0B0C03B
S1130620E92FE061BE2EB4FE0DC0FB2DF460BF2E99
S113063009C034FE0AC0292F2660B22E06C028E065
S113064030E005C020E130E002C020E132E0F801F2
S1130650B7FE07C060817181828193810C5F1F4F57
S113066006C06081718180E090E00E5F1F4FA3019E
S11306700E941C04882E8618FB2DFF773F2E36FE21
S11306800DC0232D2E7FA22E891458F434FE0BC0E6
S113069032FC09C0832D8E7EA82E05C0B82CA32C55
S11306A003C0B82C01C0B92CA4FE0FC0FE01E80D94
S11306B0F11D8081803321F49A2D997EA92E09C0E1
S11306C0A2FE06C0B394B39404C08A2D867809F0C0
S11306D0B394A3FC11C0A0FE06C0B21488F4280C85
S11306E0922C9B180EC0B21460F4B60180E290E024
S11306F00E94E003B394F7CFB21418F42B1802C08D
S1130700982C212CA4FE10C0B60180E390E00E9436
S1130710E003A2FE17C0A1FC03C088E790E002C07A
S113072088E590E0B6010CC08A2D867859F0A1FEC8
S113073002C08BE201C080E2A7FC8DE2B60190E02A
S11307400E94E003891438F4B60180E390E00E942B
S1130750E0039A94F7CF8A94F301E80DF11D8081A8
S1130760B60190E00E94E0038110F5CF222009F445
S113077042CEB60180E290E00E94E0032A94F6CFD4
S1130780F6018681978102C08FEF9FEF2B96E2E1FD
S11307900C949304FC010590615070400110D8F74B
S11307A0809590958E0F9F1F0895FC0161507040B5
S11307B001900110D8F7809590958E0F9F1F089592
S11307C00F931F93CF93DF93FB01238121FD03C07C
S11307D08FEF9FEF2CC022FF16C0468157812481E2
S11307E035814217530744F4A081B1819D012F5FE5
S11307F03F4F208331838C93268137812F5F3F4F76
S11308002683378314C08B01EC01FB010084F1853E
S1130810E02D0995892BE1F6D80116968D919C91CE
S11308201797019616968D939C931797CE01DF9197
S1130830CF911F910F910895FA01AA27283051F101
S1130840203181F1E8946F936E7F6E5F7F4F8F4FFD
S11308509F4FAF4FB1E03ED0B4E03CD0670F781F5C
S1130860891F9A1FA11D680F791F8A1F911DA11D41
S11308706A0F711D811D911DA11D20D009F468947A
S11308803F912AE0269F11243019305D3193DEF622
S1130890CF010895462F4770405D4193B3E00FD0D8
S11308A0C9F7F6CF462F4F70405D4A3318F0495DC3
S11308B031FD4052419302D0A9F7EACFB4E0A695A6
S11308C09795879577956795BA95C9F700976105C8
S11308D0710508959B01AC010A2E0694579547951E
S11308E037952795BA95C9F7620F731F841F951F13
S11308F0A01D08952F923F924F925F926F927F9224
S11309008F929F92AF92BF92CF92DF92EF92FF921B
S11309100F931F93CF93DF93CDB7DEB7CA1BDB0BC7
S1130920CDBFDEBF09942A88398848885F846E84E5
S11309307D848C849B84AA84B984C884DF80EE80FF
S1130940FD800C811B81AA81B981CE0FD11DCDBF41
S10D0950DEBFED010895F894FFCF17
S113095A00006C65645F6F6E006C65645F6F666649
S113096A006C65645F746F67676C65004641494C47
S113097A2E20436F6D6D616E64202573206E6F7433
S113098A20666F756E6420696E20636F6D6D616E8B
S113099A64207461626C65210D0A004641494C2E3B
S11309AA204661696C656420746F20657865637597
S11309BA746520636F6D6D616E64202573210D0A61
S11309CA004641494C2E20496E76616C6964206F59
S11309DA7074696F6E732F706172616D657465727C
S11309EA7320666F7220636F6D6D616E6420257368
S11309FA210D0A004F4B2E20436F6D6D616E6420EA
S1130A0A25732065786563757465642073756363FB
S1130A1A65737366756C6C79210D0A00496E70757D
S1130A2A7420746F6F206C6F6E672C206D61786907
S1130A3A6D756D206E6F2E206F6620636861727308
S1100A4A20616C6C6F7765643A20256400B0
S1110A57000000020000000047010000000043
S9030000FC
