:100200000C9448010C9465010C9465010C946501F3
:100210000C9465010C9465010C9465010C946501C6
:100220000C9465010C9465010C9465010C946501B6
:100230000C9465010C9465010C9465010C946501A6
:100240000C9465010C9465010C9465010C94650196
:100250000C946D020C9465010C9465010C9465017D
:100260000C9465010C9465010C9465010C94650176
:100270000C9465010C9465010C9465010C94650166
:100280000C9465010C9465010C9465010C94650156
:1002900011241FBECFEFCDBFDFE3DEBF18E2A0E029
:1002A000B8E2ECE1F0E102C005900D92A031B10797
:1002B000D9F728E2A0E1B8E201C01D92AB31B20744
:1002C000E1F70E9484020C9404070C940001E0E022
:1002D000FAE081818064818380E00895E0E0F6E0C7
:1002E00081E086838087838580FFFDCFE0E0F6E0B4
:1002F00080899189809313289093142821E0238783
:10030000853D23E0920720F081E0809312281EC0F3
:100310009C012D5533402633310520F482E0809333
:10032000122814C09C01215D32402F34310520F485
:1003300083E0809312280AC04A978534910520F4FF
:1003400084E08093122802C01092122880E0089561
:10035000CF93DF9398ED94BFE0E1F1E080818F7B54
:10036000808394BF81E0809361008FEF9FEF0197BE
:10037000F1F7E0E6F4E088E0818390E192839489EC
:100380009260948B9489977F948BA0E0B4E090E77F
:1003900011969C93119716969C93169711968C9391
:1003A000119716968C93169790E811969C93119737
:1003B00015969C931597C0E4D4E084E089838D83DF
:1003C00082832289228B20E222832589287F258B24
:1003D00025892460258B2589277F258B20E422838E
:1003E0002689287F268B26892460268B2689277FCD
:1003F000268B92839789987F978B97899460978BA8
:100400009789977F978B91E092839089987F908BC3
:1004100090899460908B9089977F908B92E09283E3
:100420009189987F918B91899460918B9189977F25
:10043000918B1092E40511968C93119715968C93DD
:10044000C0E0DAE08881876088838981876089835A
:1004500089858E7F898781E792E08EAB9FAB609123
:10046000002870E080E090E00E9433032AE037ED3E
:1004700043E25CE30E94970320E030E44CE154E463
:100480000E9497030E9402036CAF7DAF89818F7B2E
:100490008983E0E0F1E181A18093112880A180931C
:1004A0001028E0EAF0E080818061808381818260B1
:1004B0008183E0E0F6E082818561828383818383AA
:1004C00085E08583828180648283808181608083EE
:1004D0000E94D602DF91CF9108951F920F920FB61E
:1004E0000F9211248F93EF93FF93E0E6F4E088E0FE
:1004F0008783818580618187FF91EF918F910F9034
:100500000FBE0F901F9018950E94A80178940E942A
:1005100067018EE390E080933C0A90933D0AC0E02F
:10052000DAE00F2EFCE0EF2EFEE4FF2EF02D00E2CD
:100530001EE488A199A10297A0F088A199A14E97E5
:1005400080F40E946E01809114288F93809113286B
:100550008F93FF92EF920E942C040F900F900F90B8
:100560000F9088A199A18935924018F388A199A18B
:100570008C369240F0F60E946E01809114288F9381
:10058000809113288F931F930F930E942C040F9038
:100590000F900F900F90CDCFE0E0F8E0948195FFA1
:1005A000FDCF8093020880E090E0089581E098E21A
:1005B0008093172890931828E0E0F8E08BE591E00D
:1005C000808791878581806E85838681806C868314
:1005D000E0E0F4E021E0218392E09283E0E2F8E0C1
:1005E00047E450E1408751878581816E858386810C
:1005F000806C8683E0E4F4E02183928388E0818349
:10060000868308950E94760388F09F5798F0B92F4B
:100610009927B751B0F0E1F0660F771F881F991F37
:100620001AF0BA95C9F714C0B13091F00E94900346
:10063000B1E008950C949003672F782F8827B85F56
:1006400039F0B93FCCF3869577956795B395D9F78F
:100650003EF490958095709561957F4F8F4F9F4F99
:100660000895E89409C097FB3EF4909580957095A5
:1006700061957F4F8F4F9F4F9923A9F0F92F96E9EE
:10068000BB279395F695879577956795B795F11163
:10069000F8CFFAF4BB0F11F460FF1BC06F5F7F4F00
:1006A0008F4F9F4F16C0882311F096E911C0772312
:1006B00021F09EE8872F762F05C0662371F096E81B
:1006C000862F70E060E02AF09A95660F771F881FEA
:1006D000DAF7880F9695879597F9089557FD905802
:1006E000440F551F59F05F3F71F04795880F97FBF6
:1006F000991F61F09F3F79F08795089512161306B0
:100700001406551FF2CF4695F1DF08C016161706DE
:100710001806991FF1CF8695710561050894089513
:10072000E894BB2766277727CB0197F908950E94A5
:10073000AA030C941B040E940D0438F00E941404B8
:1007400020F0952311F00C9404040C940A04112455
:100750000C9491030E946E0370F3959FC1F3950F63
:1007600050E0551F629FF001729FBB27F00DB11D35
:10077000639FAA27F00DB11DAA1F649F6627B00DC5
:10078000A11D661F829F2227B00DA11D621F739FAE
:10079000B00DA11D621F839FA00D611D221F749FBC
:1007A0003327A00D611D231F849F600D211D822F03
:1007B000762F6A2F11249F5750409AF0F1F088232A
:1007C0004AF0EE0FFF1FBB1F661F771F881F915057
:1007D0005040A9F79E3F510580F00C9404040C94FE
:1007E00091035F3FE4F3983ED4F386957795679540
:1007F000B795F795E7959F5FC1F7FE2B880F911D81
:100800009695879597F9089597F99F6780E870E026
:1008100060E008959FEF80EC089500240A94161676
:10082000170618060906089500240A9412161306DE
:10083000140605060895092E0394000C11F488236C
:1008400052F0BB0F40F4BF2B11F460FF04C06F5F88
:100850007F4F8F4F9F4F0895A0E0B0E0E2E3F4E0B8
:100860000C94E306AE014B5F5F4FFA016191719109
:10087000AF0180911728909118280E944204E2E06D
:100880000C94FC06ABE0B0E0E8E4F4E00C94D30692
:100890006C017B018A01FC0116821782838181FF32
:1008A000CCC1CE0101963C01F6019381F70193FD85
:1008B000859193FF81917F01882309F4BAC1853224
:1008C00039F493FD859193FF81917F01853229F45D
:1008D000B60190E00E943906E7CF912C212C312CF3
:1008E000FFE1F315D8F08B3279F038F4803279F0EB
:1008F0008332A1F4232D20611DC08D3261F080333D
:1009000069F4232D216016C0832D8260382EE32DDB
:10091000E4603E2E2AC0F32DF8601DC037FC2DC0C8
:1009200020ED280F2A3040F08E32B9F436FC81C118
:10093000232D2064322E19C036FE06C08AE0989E10
:10094000200D1124922E11C0EAE02E9E200D1124BC
:10095000222EF32DF0623F2E08C08C3621F4832D19
:100960008068382E02C0883641F4F70193FD8591E6
:1009700093FF81917F018111B3CF982F9F7D955473
:10098000933028F40C5F1F4F9FE399830DC083368B
:1009900031F0833771F0833509F059C021C0F80177
:1009A000808189830E5F1F4F88248394912C53018B
:1009B00013C02801F2E04F0E511CF801A080B18055
:1009C00036FE03C0692D70E002C06FEF7FEFC501F6
:1009D0000E942E064C018201F32DFF773F2E16C098
:1009E000280122E0420E511CF801A080B18036FEA1
:1009F00003C0692D70E002C06FEF7FEFC5010E9458
:100A000023064C01F32DF0683F2E820133FC1BC0FE
:100A1000822D90E088169906B0F4B60180E290E04D
:100A20000E9439062A94F4CFF50137FC859137FEF0
:100A300081915F01B60190E00E94390621102A944D
:100A400021E0821A91088114910471F7E8C084367C
:100A500011F0893641F5F80137FE07C060817181D8
:100A6000828193810C5F1F4F08C060817181072EC6
:100A7000000C880B990B0E5F1F4FF32DFF763F2E56
:100A800097FF09C090958095709561957F4F8F4F26
:100A90009F4FF0683F2E2AE030E0A3010E947506C8
:100AA000882E861845C0853731F4232D2F7EB22E2F
:100AB0002AE030E025C0932D997FB92E8F36C1F002
:100AC00018F4883579F0B5C0803719F0883721F0EF
:100AD000B0C0E92FE061BE2EB4FE0DC0FB2DF46066
:100AE000BF2E09C034FE0AC0292F2660B22E06C0D0
:100AF00028E030E005C020E130E002C020E132E033
:100B0000F801B7FE07C060817181828193810C5F1B
:100B10001F4F06C06081718180E090E00E5F1F4F23
:100B2000A3010E947506882E8618FB2DFF773F2EA5
:100B300036FE0DC0232D2E7FA22E891458F434FECC
:100B40000BC032FC09C0832D8E7EA82E05C0B82CA8
:100B5000A32C03C0B82C01C0B92CA4FE0FC0FE0109
:100B6000E80DF11D8081803321F49A2D997EA92E04
:100B700009C0A2FE06C0B394B39404C08A2D86783F
:100B800009F0B394A3FC11C0A0FE06C0B21488F40F
:100B9000280C922C9B180EC0B21460F4B60180E2AF
:100BA00090E00E943906B394F7CFB21418F42B18D2
:100BB00002C0982C212CA4FE10C0B60180E390E066
:100BC0000E943906A2FE17C0A1FC03C088E790E08E
:100BD00002C088E590E0B6010CC08A2D867859F0F5
:100BE000A1FE02C08BE201C080E2A7FC8DE2B6014B
:100BF00090E00E943906891438F4B60180E390E051
:100C00000E9439069A94F7CF8A94F301E80DF11DFA
:100C10008081B60190E00E9439068110F5CF222034
:100C200009F442CEB60180E290E00E9439062A948F
:100C3000F6CFF6018681978102C08FEF9FEF2B964A
:100C4000E2E10C94EC06FC0105906150704001104B
:100C5000D8F7809590958E0F9F1F0895FC016150E5
:100C6000704001900110D8F7809590958E0F9F1FCE
:100C700008950F931F93CF93DF93FB01238121FDF1
:100C800003C08FEF9FEF2CC022FF16C04681578113
:100C9000248135814217530744F4A081B1819D011D
:100CA0002F5F3F4F208331838C93268137812F5FC5
:100CB0003F4F2683378314C08B01EC01FB01008476
:100CC000F185E02D0995892BE1F6D80116968D91D5
:100CD0009C911797019616968D939C931797CE012A
:100CE000DF91CF911F910F910895FA01AA27283023
:100CF00051F1203181F1E8946F936E7F6E5F7F4FE9
:100D00008F4F9F4FAF4FB1E03ED0B4E03CD0670F64
:100D1000781F891F9A1FA11D680F791F8A1F911DB7
:100D2000A11D6A0F711D811D911DA11D20D009F407
:100D300068943F912AE0269F11243019305D319349
:100D4000DEF6CF010895462F4770405D4193B3E032
:100D50000FD0C9F7F6CF462F4F70405D4A3318F0D9
:100D6000495D31FD4052419302D0A9F7EACFB4E08A
:100D7000A6959795879577956795BA95C9F7009742
:100D80006105710508959B01AC010A2E06945795E3
:100D9000479537952795BA95C9F7620F731F841F3A
:100DA000951FA01D08952F923F924F925F926F92D0
:100DB0007F928F929F92AF92BF92CF92DF92EF92EB
:100DC000FF920F931F93CF93DF93CDB7DEB7CA1B6C
:100DD000DB0BCDBFDEBF09942A88398848885F8441
:100DE0006E847D848C849B84AA84B984C884DF80CB
:100DF000EE80FD800C811B81AA81B981CE0FD11DAF
:0C0E0000CDBFDEBFED010895F894FFCFD8
:100E0C0043502068696768206C6576656C3A2025CC
:100E1C00640D0A004350206C6F77206C6576656C0E
:100E2C003A2025640D0A0063743056616C006374BB
:100E3C003156616C0063743256616C0049726D738B
:100E4C00300049726D73310049726D7332007070ED
:100E5C0056616C00637056616C0070696C6F740045
:100E6C0074656D7065726174757265006475747902
:100E7C004379636C650073797374696D6500617592
:100E8C007854696D6572310061757854696D65725D
:100E9C0032006C6F636B737461746500627574748B
:100EAC006F6E7374617465004963616C006D617879
:100EBC004D61696E73006D617843757272656E7405
:100ECC00006D696E43757272656E74006D6F64654A
:100EDC00006C6F636B006361626C65436F6E6600E0
:100EEC007377697463684D6F6465006572726F72B5
:100EFC00006E6578745374617465006D617843613C
:100F0C0070616369747900636861726765437572B7
:100F1C0072656E7400496D65617375726564004924
:100F2C0073756D0063686172676544656C61790007
:100F3C0061636365737300737461747573007061BE
:100F4C0072616D5F67657400706172616D5F73656E
:100F5C0074006C65645F6F6E006C65645F6F6666D1
:100F6C00006C65645F746F67676C650070776D5FAC
:100F7C006F6E0070776D5F6F666600737372315FB2
:100F8C006F6E00737372315F6F66660073737232CB
:100F9C005F6F6E00737372325F6F6666007373728D
:100FAC00335F6F6E00737372335F6F666600616CD4
:100FBC006C5F7373725F6F6E00616C6C5F737372D6
:100FCC005F6F666600756E6C6F636B5F6361626CFE
:100FDC0065006C6F636B5F6F66660072656C617940
:100FEC005F6F6E0072656C61795F6F66660072652B
:100FFC0061645F637000726561645F70700072653C
:10100C0061645F637400726561645F74656D700028
:10101C00320000000200000000CC020000000000C2
:0400000300000200F7
:00000001FF
