:100200000C9448010C9465010C9465010C946501F3
:100210000C9465010C9465010C9465010C946501C6
:100220000C9465010C9465010C9465010C946501B6
:100230000C9401040C9465010C9465010C94650107
:100240000C9465010C942D040C9465010C946501CB
:100250000C94EB030C9465010C9465010C946501FE
:100260000C9465010C9465010C9465010C94650176
:100270000C9465010C9465010C9465010C94650166
:100280000C9465010C9465010C9465010C94650156
:1002900011241FBECFEFCDBFDFE3DEBF19E2A0E028
:1002A000B8E2E5EDFCE102C005900D92A632B1077F
:1002B000D9F72AE2A6E2B9E201C01D92A436B2073C
:1002C000E1F70E945B040C94C00C0C94000188E0E0
:1002D0008093670480E0089588E08093650480E05F
:1002E000089588E08093660480E00895E0E0FAE0F5
:1002F00081818064818380E00895E0E0FAE081817B
:100300008F7B818384E08093050480E0089580E4FE
:100310008093050480E0089580E48093060480E0E3
:10032000089580E28093050480E0089580E2809340
:10033000060480E0089580E18093050480E008953C
:1003400080E18093060480E00895E0E0F4E080E43A
:10035000858380E2858380E1858380E00895E0E005
:10036000F4E080E4868380E2868380E1868380E017
:10037000089580E88093050484E08093450480E03C
:10038000089588E08093050480E0089588E08093D4
:10039000060480E0089581E08093060680930806B5
:1003A00080910B0680FFFCCF809110069091110682
:1003B000809346299093472921E020930B06853DA1
:1003C00033E0930718F0209345291AC09C012D555E
:1003D00033402633310510F482E007C09C01215DD3
:1003E00032402F34310520F483E08093452908C042
:1003F0004A978534910510F484E0F7CF109245298F
:1004000080E008951092060681E0809308068091AE
:100410000B0680FFFCCF809110069091110680930F
:1004200048299093492921E020930B069C012B58E1
:1004300031402732310510F480E10FC09C01205B70
:1004400031092131310510F480E207C08955910945
:10045000099710F08DE001C08FE3809330298091DF
:100460003229882321F0809113298093302980E05C
:10047000089585E08093060681E0809308068091C8
:100480000B0680FFFCCF809110069091110680939F
:1004900050299093512981E080930B0696E0909328
:1004A00006068093080680910B0680FFFCCF8091A2
:1004B000100690911106809352299093532981E060
:1004C00080930B0697E09093060680930806809130
:1004D0000B0680FFFCCF809110069091110680934F
:1004E00054299093552981E080930B0680E008956C
:1004F00080E88093050484E0809346042FE382E43F
:100500009FE0215080409040E1F700C000000E9431
:10051000B9019091680481E0292F247092FF80E056
:1005200080933529211102C08EEF089580E008954F
:1005300080E88093060484E0809345042FEB87E2F3
:1005400099E0215080409040E1F700C000000E94F7
:10055000B9019091680481E0292F247092FF80E016
:1005600080933529222311F08EEF089580E00895BD
:10057000809100068E7F8093000680910206809312
:1005800002068EE1809306068091030680628093C6
:1005900003068091000681608093000689EF90E059
:1005A0000197F1F700C0000081E080930806809178
:1005B0000B0680FFFCCFA0911006B0911106809130
:1005C0002A29A81BB10987FDB3952091292930E07C
:1005D0000E94FB07DC01CB0180589F4FAF4FBF4FFC
:1005E000892F9A2FAB2FBB278093432990934429BF
:1005F000809100068E7F80930006809102068061C4
:100600008093020680910306809303068091000682
:1006100081608093000681E080930B0680E008955E
:10062000CF93DF9398ED94BFE0E1F1E080818064A7
:10063000808394BF31E030936100E0E6F4E088E02D
:10064000818390E192839489987F948B94899260BE
:10065000948B9489977F948BA0E0B4E090E71196F7
:100660009C93119716969C93169711968C931197BD
:1006700016968C93169790E811969C931197159661
:100680009C931597C0E4D4E084E089838D838283B2
:100690002289228B20E222832589287F258B2589A8
:1006A0002460258B2589277F258B20E422832689BA
:1006B000287F268B26892460268B2689277F268BF8
:1006C00092839789987F978B97899460978B978966
:1006D000977F978B32839089987F908B90899460D5
:1006E000908B9089977F908B92E092839189987FED
:1006F000918B91899460918B9189977F918B1092C6
:10070000E40511968C93119715968C93C0E0DAE06E
:1007100088818760888389818760898389858E7FC6
:10072000898781E792E08EAB9FAB6091172970E0DB
:1007300080E090E00E9402072AE037ED43E25CE3AC
:100740000E94660720E030E44CE154E40E94660712
:100750000E94D1066CAF7DAF89818F7B8983E0E8F1
:10076000FAE08081846080838181818384818E7FAF
:1007700084838581816085838FEF9FEF8487958750
:10078000808181608083E0E0F1E181A180932A296A
:1007900080A180932929E0EAF0E080818061808354
:1007A000818182608183E0E0F6E0828185618283DD
:1007B0008381838385E085838281806482838081D5
:1007C000816080830E94730610925A2A10925B2ADD
:1007D000DF91CF9108951F920F920FB60F921124BF
:1007E0008F93EF93FF93E0E6F4E088E0878380E166
:1007F0008187FF91EF918F910F900FBE0F901F9007
:1008000018951F920F920FB60F9211242F933F93BA
:100810004F935F936F937F938F939F93AF93BF9308
:10082000EF93FF9384E899E50E945E0988E0809346
:10083000670481E08093860AFF91EF91BF91AF91A9
:100840009F918F917F916F915F914F913F912F91E8
:100850000F900FBE0F901F9018951F920F920FB61A
:100860000F9211248F939F93EF93FF938091000831
:100870008D30C1F0E0915B2A8A3049F091E09E0F03
:1008800090935B2AF0E0E65EF54D80830BC081E03B
:100890008E0F80935B2AF0E0E65EF54D108281E0DA
:1008A00080932829FF91EF919F918F910F900FBE18
:1008B0000F901F9018950E94100378940E949F0635
:1008C0000E940C05FBCF24E0829FC0011124FC0193
:1008D000E655F74D0280F381E02D309709F0099439
:1008E0008EEF0895BF92CF92DF92EF92FF920F9317
:1008F0001F93CF93DF936C017B0110E08CEFB82E38
:1009000005E0019FE0011124C050D84D6881798134
:10091000C6010E941809892B11F5F8948C81803149
:1009200049F0803271F08830B9F4EA81FB8180812E
:1009300090E004C0EA81FB8180819181A0E0B0E079
:1009400006C0EA81FB8180819181A281B381F70198
:1009500080839183A283B383789412E2B12C1F5FCA
:10096000123278F28B2DDF91CF911F910F91FF9072
:10097000EF90DF90CF90BF900895BF92CF92DF921B
:10098000EF92FF920F931F93CF93DF936C017B0144
:1009900000E01CEF85E0B82EB09EE0011124C050AD
:1009A000D84D68817981C6010E941809892B31F5DB
:1009B000F8948C81803151F0803281F08830D9F404
:1009C000EA81FB81D7018C91808313C0F70180817C
:1009D0009181EA81FB81808391830BC0F701808143
:1009E0009181A281B381EA81FB8180839183A2837B
:1009F000B38310E001C01DEF789402E20F5F023272
:100A000058F2812FDF91CF911F910F91FF90EF90BE
:100A1000DF90CF90BF900895DF92EF92FF920F93F7
:100A20001F93CF93DF93CDB7DEB72897CDBFDEBF3F
:100A30008C0161E87BE50E941809892B09F478C0D4
:100A40006FE370E0C8010E940D09892B41F162E853
:100A50007BE5C8010E940809E82ED92E19821A8266
:100A60001B821C82BE016F5F7F4F0E947204F82EB2
:100A7000811112C08C818F938B818F938A818F9388
:100A800089818F93DF92EF9281E89CE59F938F930A
:100A90000E944809CDBFDEBF0FEA1AE567C06DE3CB
:100AA00070E0C8010E940D09892B09F443C064E875
:100AB0007BE5C8010E940809E82ED92E64E87BE591
:100AC00080E090E00E94080940E050E060E070E0C3
:100AD0000E940A086D837E838F839887BE016B5FB7
:100AE0007F4F8E2D9D2D0E94BD04F82E81111DC0BB
:100AF00019821A821B821C82BE016F5F7F4F8E2D6E
:100B00009D2D0E9472048C818F938B818F938A819B
:100B10008F9389818F93DF92EF9281E89CE59F9379
:100B20008F930E944809CDBFDEBF09EB1AE51EC0B6
:100B300008EA1AE5E12CFF24FA9494E0E99EF0011A
:100B40001124E655F74D60817181C8010E94180992
:100B5000892B31F48E2D0E946304F82E89E1E82E52
:100B6000E39488E18E1548F7E12CD12C9EEFF9161D
:100B7000E1F09F155CF08CEFF816E1F09DEFF912B3
:100B800025C01F930F938BED9BE518C08FEFF816D0
:100B900039F0F1101BC081E49CE50E945E0916C08B
:100BA0001F930F9386E89BE509C01F930F9385EB76
:100BB0009BE504C0DF92EF928EE09CE59F938F93BC
:100BC0000E9448090F900F900F900F908F2D28963C
:100BD000CDBFDEBFDF91CF911F910F91FF90EF90BE
:100BE000DF900895CF92DF92EF92FF920F931F93C1
:100BF000CF93DF9300D000D0CDB7DEB786E49CE57D
:100C00000E945E090AEA18E22DE5E22E2CE5F22E9A
:100C1000D801ED91FC918081882351F0FF93EF93EF
:100C2000FF92EF920E9448090F900F900F900F9043
:100C30000C5F1F4FB9E20E301B0751F784E69CE5AD
:100C40000E945E0980E0E82E88E2F82E00E010E0C5
:100C50009BE7C92E9CE5D92E19821A821B821C8221
:100C6000F70180819181DC012C912223D1F0BE011A
:100C70006F5F7F4F0E9472048C818F938B818F9363
:100C80008A818F9389818F93F70181818F938081EE
:100C90008F931F930F93DF92CF920E944809CDBF8D
:100CA000DEBF0F5F1F4F95E0E90EF11C0232110508
:100CB00099F68CE89CE50E945E0980E02496CDBF01
:100CC000DEBFDF91CF911F910F91FF90EF90DF90EA
:100CD000CF9008959091040895FFFCCF809302086F
:100CE00080E090E0089588E199E280935E2A9093F5
:100CF0005F2AE0E0F8E08BE591E0808791878581CD
:100D0000806E85838681806C8683E0E0F4E021E05C
:100D1000218392E09283E0E2F8E047E450E14087EB
:100D200051878581816E85838681806C8683E0E42E
:100D3000F4E02183928388E0818386830895E0E054
:100D40008091040887FFFCCF909100089A3011F140
:100D50009D30E9F081E08E0F26E539E2F0E0EA5AB5
:100D6000F64D90838134A0F01F9280E48F9344EA83
:100D70005CE55F934F931F928F933F932F930E9455
:100D80008E098DB79EB708968DBF9EBF07C08E2F68
:100D9000E82FD6CFF0E0EA5AF64D108286E599E2C8
:100DA00008950E94450788F09F5798F0B92F99271A
:100DB000B751B0F0E1F0660F771F881F991F1AF046
:100DC000BA95C9F714C0B13091F00E945F07B1E045
:100DD00008950C945F07672F782F8827B85F39F044
:100DE000B93FCCF3869577956795B395D9F73EF4DF
:100DF00090958095709561957F4F8F4F9F4F089587
:100E0000E89409C097FB3EF49095809570956195A4
:100E10007F4F8F4F9F4F9923A9F0F92F96E9BB275A
:100E20009395F695879577956795B795F111F8CFD6
:100E3000FAF4BB0F11F460FF1BC06F5F7F4F8F4F41
:100E40009F4F16C0882311F096E911C0772321F037
:100E50009EE8872F762F05C0662371F096E8862FCF
:100E600070E060E02AF09A95660F771F881FDAF726
:100E7000880F9695879597F9089557FD9058440FD8
:100E8000551F59F05F3F71F04795880F97FB991FE9
:100E900061F09F3F79F087950895121613061406A6
:100EA000551FF2CF4695F1DF08C016161706180633
:100EB000991FF1CF86957105610508940895E8940E
:100EC000BB2766277727CB0197F908950E947907FA
:100ED0000C94EA070E94DC0738F00E94E30720F038
:100EE000952311F00C94D3070C94D90711240C947A
:100EF00060070E943D0770F3959FC1F3950F50E086
:100F0000551F629FF001729FBB27F00DB11D639FBB
:100F1000AA27F00DB11DAA1F649F6627B00DA11D61
:100F2000661F829F2227B00DA11D621F739FB00D07
:100F3000A11D621F839FA00D611D221F749F332777
:100F4000A00D611D231F849F600D211D822F762F10
:100F50006A2F11249F5750409AF0F1F088234AF0ED
:100F6000EE0FFF1FBB1F661F771F881F9150504059
:100F7000A9F79E3F510580F00C94D3070C946007AD
:100F80005F3FE4F3983ED4F3869577956795B795E0
:100F9000F795E7959F5FC1F7FE2B880F911D9695FA
:100FA000879597F9089597F99F6780E870E060E06A
:100FB00008959FEF80EC089500240A9416161706F2
:100FC00018060906089500240A941216130614063A
:100FD00005060895092E0394000C11F4882352F09D
:100FE000BB0F40F4BF2B11F460FF04C06F5F7F4F55
:100FF0008F4F9F4F0895A29FB001B39FC001A39F41
:10100000700D811D1124911DB29F700D811D112441
:10101000911D0895A0E0B0E0E0E1F8E00C94900CA0
:101020005C016B017A016115710519F0FB01808388
:101030009183E114F10429F0C7010297839708F026
:10104000C9C0E5012196F5011081812F90E00E9431
:10105000FF08892B11F05E01F4CF1D3229F421968F
:10106000F501118101E007C01B3221F4E501229650
:10107000F501118100E0E114F104B1F0F0E1EF16A7
:10108000F10429F4B0C010E3E114F10401F12AE005
:10109000E216F104B1F180E1E816F10471F0E8E044
:1010A000EE16F104F1F413C0103341F588818F7D01
:1010B000883549F7198122960260F0E1EF2EF12C74
:1010C00088248A94982CA82CAFE0BA2E20C078E00F
:1010D000E72EF12C88248A94982CA82CEFE1BE2EC0
:1010E00016C06FEF7FEFCB0197010F2C000C440B64
:1010F000550B0E94620C49015A0109C08AE0E82E92
:10110000F12C69E9862E982CA82C69E1B62E40E0D6
:1011100060E070E0CB0127010F2C000C6608770817
:10112000FE0150ED352E310E29E0231570F42FEB22
:10113000210F2A3118F439EC332E06C02FE9210F84
:101140002A3130F529EA322E310E232D30E02E15CA
:101150003F05F4F44F3FC9F086169706A806B90676
:1011600088F0A30192010E94520C232D30E040E050
:1011700050E0620F731F841F951F62177307840767
:10118000950710F44FEF01C041E021961081C8CFC0
:10119000C114D10451F0442311F0219703C001FF81
:1011A00004C02297F601C083D18300FF07C0909549
:1011B0008095709561957F4F8F4F9F4F4F3F79F48A
:1011C00082E290E08093622A9093632A3FEF2FEFB0
:1011D0009FEF0DC040E030E020E090E008C0462FD7
:1011E000372F282F04C0103309F067CF5FCF642F4B
:1011F000732F822FCDB7DEB7E1E10C94A90C9111CA
:101200000C949F0B803219F089508550C8F70895CF
:1012100046E259E20E9421090895FC018191861756
:1012200021F08823D9F7992708953197CF010895A0
:10123000FB01DC018D91019080190110D9F3990B0C
:101240000895FA01A191B081009719F41097E1F087
:10125000CD01DC01CD010D90002011F4C00113C0BF
:10126000FB012191222319F02015D9F7F3CFFB01BF
:101270002191201519F41E92119606C02223C1F760
:101280000D900020A1F7D001FA01A193B083089539
:10129000A0E0B0E0EEE4F9E00C949F0CAE014B5FEF
:1012A0005F4FFA0161917191AF0180915E2A909137
:1012B0005F2A0E94BE09E2E00C94B80C0F931F93C2
:1012C000CF93DF93E0915E2AF0915F2A238121FF83
:1012D0001BC08C01D0E0C0E0F80181918F016091CA
:1012E0005E2A70915F2ADB011896ED91FC911997A7
:1012F000882331F00995892B79F3DFEFCFEFECCF1D
:101300008AE00995892B19F08FEF9FEF02C08D2F8E
:101310009C2FDF91CF911F910F910895AEE0B0E027
:10132000E4E9F9E00C949D0C0D891E898F89988D54
:1013300026E02C8309831A8397FF02C080E090E89F
:1013400001978D839E83AE01455E5F4F698D7A8DD7
:10135000CE0101960E94BE094D815E8157FD0AC0F3
:101360002F813885421753070CF49A01F801E20FD8
:10137000F31F10822E96E4E00C94B60CABE0B0E0C4
:10138000E4ECF9E00C948F0C6C017B018A01FC0108
:1013900016821782838181FFCCC1CE0101963C0168
:1013A000F6019381F70193FD859193FF81917F0170
:1013B000882309F4BAC1853239F493FD859193FFEE
:1013C00081917F01853229F4B60190E00E94B80B2B
:1013D000E7CF912C212C312CFFE1F315D8F08B3283
:1013E00079F038F4803279F08332A1F4232D206132
:1013F0001DC08D3261F0803369F4232D216016C049
:10140000832D8260382EE32DE4603E2E2AC0F32D1A
:10141000F8601DC037FC2DC020ED280F2A3040F0A9
:101420008E32B9F436FC81C1232D2064322E19C0CE
:1014300036FE06C08AE0989E200D1124922E11C01F
:10144000EAE02E9E200D1124222EF32DF0623F2E75
:1014500008C08C3621F4832D8068382E02C088366F
:1014600041F4F70193FD859193FF81917F018111F3
:10147000B3CF982F9F7D9554933028F40C5F1F4F66
:101480009FE399830DC0833631F0833771F0833544
:1014900009F059C021C0F801808189830E5F1F4F78
:1014A00088248394912C530113C02801F2E04F0E3D
:1014B000511CF801A080B18036FE03C0692D70E098
:1014C00002C06FEF7FEFC5010E94AD0B4C0182019E
:1014D000F32DFF773F2E16C0280122E0420E511C4B
:1014E000F801A080B18036FE03C0692D70E002C013
:1014F0006FEF7FEFC5010E94A20B4C01F32DF06846
:101500003F2E820133FC1BC0822D90E08816990685
:10151000B0F4B60180E290E00E94B80B2A94F4CFB8
:10152000F50137FC859137FE81915F01B60190E0AE
:101530000E94B80B21102A9421E0821A910881148C
:10154000910471F7E8C0843611F0893641F5F8014D
:1015500037FE07C060817181828193810C5F1F4FCC
:1015600008C060817181072E000C880B990B0E5FFB
:101570001F4FF32DFF763F2E97FF09C09095809562
:10158000709561957F4F8F4F9F4FF0683F2E2AE0F7
:1015900030E0A3010E94F40B882E861845C08537E1
:1015A00031F4232D2F7EB22E2AE030E025C0932D7A
:1015B000997FB92E8F36C1F018F4883579F0B5C00F
:1015C000803719F0883721F0B0C0E92FE061BE2ED6
:1015D000B4FE0DC0FB2DF460BF2E09C034FE0AC05E
:1015E000292F2660B22E06C028E030E005C020E199
:1015F00030E002C020E132E0F801B7FE07C06081B0
:101600007181828193810C5F1F4F06C0608171815F
:1016100080E090E00E5F1F4FA3010E94F40B882E24
:101620008618FB2DFF773F2E36FE0DC0232D2E7F13
:10163000A22E891458F434FE0BC032FC09C0832D4D
:101640008E7EA82E05C0B82CA32C03C0B82C01C0D8
:10165000B92CA4FE0FC0FE01E80DF11D808180337E
:1016600021F49A2D997EA92E09C0A2FE06C0B3943A
:10167000B39404C08A2D867809F0B394A3FC11C0FA
:10168000A0FE06C0B21488F4280C922C9B180EC041
:10169000B21460F4B60180E290E00E94B80BB394FB
:1016A000F7CFB21418F42B1802C0982C212CA4FEEA
:1016B00010C0B60180E390E00E94B80BA2FE17C0F4
:1016C000A1FC03C088E790E002C088E590E0B60185
:1016D0000CC08A2D867859F0A1FE02C08BE201C0B1
:1016E00080E2A7FC8DE2B60190E00E94B80B89145D
:1016F00038F4B60180E390E00E94B80B9A94F7CFDB
:101700008A94F301E80DF11D8081B60190E00E94FA
:10171000B80B8110F5CF222009F442CEB60180E249
:1017200090E00E94B80B2A94F6CFF601868197814B
:1017300002C08FEF9FEF2B96E2E10C94A80C992743
:1017400088270895FC010590615070400110D8F77A
:10175000809590958E0F9F1F0895FC0161507040F9
:1017600001900110D8F7809590958E0F9F1F0895D6
:101770000F931F93CF93DF93FB01238121FD03C0C0
:101780008FEF9FEF2CC022FF16C046815781248126
:1017900035814217530744F4A081B1819D012F5F29
:1017A0003F4F208331838C93268137812F5F3F4FBA
:1017B0002683378314C08B01EC01FB010084F18583
:1017C000E02D0995892BE1F6D80116968D919C9113
:1017D0001797019616968D939C931797CE01DF91DC
:1017E000CF911F910F910895FA01AA27283051F146
:1017F000203181F1E8946F936E7F6E5F7F4F8F4F42
:101800009F4FAF4FB1E03ED0B4E03CD0670F781FA0
:10181000891F9A1FA11D680F791F8A1F911DA11D85
:101820006A0F711D811D911DA11D20D009F46894BE
:101830003F912AE0269F11243019305D3193DEF666
:10184000CF010895462F4770405D4193B3E00FD01C
:10185000C9F7F6CF462F4F70405D4A3318F0495D07
:1018600031FD4052419302D0A9F7EACFB4E0A695EA
:101870009795879577956795BA95C9F7009761050C
:10188000710508959B01AC010A2E06945795479562
:1018900037952795BA95C9F7620F731F841F951F57
:1018A000A01D0895DB018F939F930E94840CBF912C
:1018B000AF91A29F800D911DA39F900DB29F900D9F
:1018C00011240895A1E21A2EAA1BBB1BFD010DC015
:1018D000AA1FBB1FEE1FFF1FA217B307E407F507E0
:1018E00020F0A21BB30BE40BF50B661F771F881FBC
:1018F000991F1A9469F760957095809590959B0152
:10190000AC01BD01CF0108950E94FB07A59F900D7A
:10191000B49F900DA49F800D911D112408952F92C6
:101920003F924F925F926F927F928F929F92AF926F
:10193000BF92CF92DF92EF92FF920F931F93CF93BC
:10194000DF93CDB7DEB7CA1BDB0BCDBFDEBF09947B
:101950002A88398848885F846E847D848C849B843F
:10196000AA84B984C884DF80EE80FD800C811B814D
:10197000AA81B981CE0FD11DCDBFDEBFED01089583
:04198000F894FFCF09
:10198400496E74657272757074210D0063743056FB
:10199400616C0063743156616C0063743256616C1F
:1019A4000049726D73300049726D73310049726D74
:1019B400733200707056616C00637056616C007015
:1019C400696C6F740074656D7065726174757265AD
:1019D40000647574794379636C6500737973746911
:1019E4006D650073656374696D650061757854692C
:1019F4006D6572310061757854696D657232006C81
:101A04006F636B737461746500627574746F6E7365
:101A140074617465004963616C006D61784D61693E
:101A24006E73006D617843757272656E74006D69D2
:101A34006E43757272656E74006D6F6465006C6FD1
:101A4400636B006361626C65436F6E6600737769F4
:101A54007463684D6F6465006572726F72006E65C1
:101A640078745374617465006D6178436170616367
:101A74006974790063686172676543757272656E33
:101A84007400496D65617375726564004973756DA1
:101A94000063686172676544656C617900616363C2
:101AA4006573730073746174757300706172616D32
:101AB4005F67657400706172616D5F736574006C5B
:101AC40065645F6F6E006C65645F6F6666006C656D
:101AD400645F746F67676C650070776D5F6F6E002D
:101AE40070776D5F6F666600737372315F6F6E003F
:101AF400737372315F6F666600737372325F6F6EF9
:101B040000737372325F6F666600737372335F6F54
:101B14006E00737372335F6F666600616C6C5F7323
:101B240073725F6F6E00616C6C5F7373725F6F666C
:101B34006600756E6C6F636B5F6361626C65006CED
:101B44006F636B5F6F66660072656C61795F6F6E61
:101B54000072656C61795F6F666600726561645FCF
:101B6400637000726561645F707000726561645FC8
:101B7400637400726561645F74656D70003F3F005B
:101B84003D004641494C2E20436F6D6D616E6420CB
:101B94002573206E6F7420666F756E6420696E20E5
:101BA400636F6D6D616E64207461626C65210D0AF2
:101BB400004641494C2E204661696C656420746F6F
:101BC400206578656375746520636F6D6D616E64FF
:101BD400202573210D0A004641494C2E20496E767A
:101BE400616C6964206F7074696F6E732F706172B9
:101BF400616D657465727320666F7220636F6D6DBD
:101C0400616E64202573210D0A004641494C2E2043
:101C1400506172616D65746572202573206E6F74F6
:101C240020666F756E6420696E20706172616D65E7
:101C3400746572207461626C65210D0A004F4B2E2D
:101C44000D002420417661696C61626C6520636FCC
:101C54006D6D616E64733A0D00242025730D0A00C6
:101C64002420446566696E656420706172616D65E7
:101C7400746572733A0D00242025643A202573207C
:101C84003D20256C750D0A0024205374617475730E
:101C9400206D65737361676520656E6420230D0094
:101CA400496E70757420746F6F206C6F6E672C2092
:101CB4006D6178696D756D206E6F2E206F6620637F
:101CC4006861727320616C6C6F7765643A20256477
:011CD400000F
:101CD500905950291097595229109E59542910A5E9
:101CE500594A2910AB594C2910B1594E2910B759E9
:101CF500482910BD59462910C359452908C95943D2
:101D05002910D559172908DF593F2920E7593B29BB
:101D150020EF59392910F959372910035A3529085F
:101D25000D5A362908195A1529101E5A142908273B
:101D35005A132908325A1229083D5A342908425A99
:101D4500332908475A322908515A112908075A10C8
:101D550029085C5A312908625A0F29086C5A30291A
:101D650008785A962910865A2E2910905A2C29102F
:101D7500955A0E2908A15A2B2908A85AF205AF5AD7
:101D85007204B95ABD04C35A6C01CA5A7101D25AB8
:101D95006701DD5A7601E45A7D01EC5A8701F45A50
:101DA5008C01FD5A9101055B96010E5B9B01165B4B
:101DB500A0011F5BA5012A5BAF01385B7802365B8A
:101DC5009802435BB9014C5BC101555BC6015F5B82
:101DD500CB01675B02026F5B3902775BB8023C019E
:101DE5000101060D20640032000000020000000021
:061DF5006A060000000078
:0400000300000200F7
:00000001FF
