S018000061746D657673655F6669726D776172652E737265635B
S11304000C9448020C9465020C9465020C946502E9
S11304100C9465020C9465020C9465020C946502BC
S11304200C9465020C9465020C9465020C946502AC
S11304300C9465020C9465020C9465020C9465029C
S11304400C9465020C9465020C9465020C9465028C
S11304500C94BD040C9465020C9465020C94650222
S11304600C9465020C9465020C9465020C9465026C
S11304700C9465020C9465020C9465020C9465025C
S11304800C9465020C9465020C9465020C9465024C
S113049011241FBECFEFCDBFDFE3DEBF19E2A0E022
S11304A0B8E2E9ECFEE102C005900D92A232B10778
S11304B0D9F72AE2A2E2B9E201C01D92A631B2073D
S11304C0E1F70E94D4040C94C40D0C94000288E05B
S11304D08093670480E0089588E08093650480E059
S11304E0089588E08093660480E00895E0E0FAE0EF
S11304F081818064818380E00895E0E0FAE0818175
S11305008F7B818380E0089580E48093050480E0FC
S1130510089580E48093060480E0089580E2809347
S1130520050480E0089580E28093060480E0089545
S113053080E18093050480E0089580E180930604BF
S113054080E0089580E88093050484E08093450466
S113055080E0089588E08093050480E0089588E0B1
S11305608093060480E00895E0E0F6E081E086836D
S11305708087838580FFFDCFE0E0F6E08089918964
S113058080933C2990933D2921E02387853D23E0F6
S1130590920720F081E080933B291EC09C012D55D9
S11305A033402633310520F482E080933B2914C084
S11305B09C01215D32402F34310520F483E0809387
S11305C03B290AC04A978534910520F484E080933E
S11305D03B2902C010923B2980E00895E0E0F6E058
S11305E0168281E08087838580FFFDCFE0E0F6E01E
S11305F08089918980933E2990933F2921E0238724
S11306009C012B5831402732310520F480E180933E
S11306102B2915C09C01205B31092131310520F4BF
S113062080E280932B290BC089559109099720F00A
S11306308DE080932B2903C08FE380932B29809135
S11306402D29882321F080910F2980932B2980E084
S11306500895E0E0F6E085E0868381E08087838585
S113066080FFFDCFE0E0F6E0808991898093462900
S11306709093472981E0838796E0968380878385DA
S113068080FFFDCFE0E0F6E08089918980934829DE
S11306909093492981E0838797E0968380878385B7
S11306A080FFFDCFE0E0F6E08089918980934A29BC
S11306B090934B2981E0838780E0089580E88093BC
S11306C0050484E0809346042FEB87E299E02150EF
S11306D080409040E1F700C000000E94A202809197
S11306E0680491E0282F247082FF90E090932F29D2
S11306F0211102C08EEF089580E0089580E8809370
S1130700060484E0809345042FEB87E299E02150AE
S113071080409040E1F700C000000E94A202809156
S1130720680491E0282F247082FF90E090932F2991
S1130730222311F08EEF089580E00895E0E0F6E0C2
S113074080818E7F8083828182838EE18683838110
S11307508062838380818160808389EF90E0019748
S1130760F1F700C0000081E08087838580FFFDCF22
S1130770E0E0F6E02089318980912529281B3109A0
S113078087FD3395A0912429B0E00E94FF08DC0185
S1130790CB0180589F4FAF4FBF4F892F9A2FAB2F5C
S11307A0BB278093392990933A2980818E7F808357
S11307B0828180618283838183838081816080835D
S11307C081E0838780E00895E0E0F4E080E48683BC
S11307D080E2868380E1868380E00895E0E0F4E0AF
S11307E080E4858380E2858380E1858380E00895C9
S11307F0CF93DF9398ED94BFE0E1F1E080818F7BAC
S1130800808394BF81E0809361008FEF9FEF019715
S1130810F1F7E0E6F4E088E0818390E19283948943
S11308209260948B9489977F948BA0E0B4E090E7D6
S113083011969C93119716969C93169711968C93E8
S1130840119716968C93169790E811969C9311978E
S113085015969C931597C0E4D4E084E089838D8336
S113086082832289228B20E222832589287F258B7B
S113087025892460258B2589277F258B20E42283E5
S11308802689287F268B26892460268B2689277F24
S1130890268B92839789987F978B97899460978BFF
S11308A09789977F978B91E092839089987F908B1B
S11308B090899460908B9089977F908B92E092833B
S11308C09189987F918B91899460918B9189977F7D
S11308D0918B1092E40511968C93119716968C9334
S11308E0C0E0DAE0888187608883898187608983B2
S11308F089858E7F898781E792E08EAB9FAB60917B
S1130900132970E080E090E00E9406082AE037EDA9
S113091043E25CE30E946A0820E030E44CE154E4E2
S11309200E946A080E94D5076CAF7DAF89818F7BD6
S11309308983E0E0F1E181A18093252980A180935E
S11309402429E0EAF0E080818061808381818260F3
S11309508183E0E0F6E08281856182838381838301
S113096085E0858382818064828380818160808345
S11309700E947807DF91CF9108951F920F920FB6CE
S11309800F9211248F93EF93FF93E0E6F4E088E055
S11309908783818580618187FF91EF918F910F908B
S11309A00FBE0F901F9018950E94F80378940E9430
S11309B0A4070E94E405FBCF24E0829FC001112418
S11309C0FC01EB55F74D0280F381E02D309711F0D7
S11309D0099508958EEF0895AF92BF92CF92DF925A
S11309E0EF92FF920F931F93CF93DF935C018B01E0
S11309F00F2EF0E0CF2EF8E2DF2EF02DE12CF12CBB
S1130A00E701F60160817181C5010E941C0A892BEE
S1130A1009F04AC0F894F701EE0FFF1FEE0FFF1F15
S1130A20EE0DFF1DE050F84D8481803189F0803255
S1130A3021F18830B1F50280F381E02D808190E0CE
S1130A40A0E0B0E0F80180839183A283B38329C03E
S1130A50C701880F991F880F991FC80FD91FC0504D
S1130A60D84DEA81FB8180819181A0E0B0E0F8015A
S1130A7080839183A283B38314C0C701880F991F15
S1130A80880F991FC80FD91FC050D84DEA81FB8128
S1130A9080819181A281B381F80180839183A283B3
S1130AA0B383789480E00CC0FFEFEF1AFF0A85E06F
S1130AB0C80ED11CE1E2EE16F10409F0A1CF8CEFCF
S1130AC0DF91CF911F910F91FF90EF90DF90CF9026
S1130AD0BF90AF900895AF92BF92CF92DF92EF9202
S1130AE0FF920F931F93CF93DF935C018B010F2E23
S1130AF0F0E0CF2EF8E2DF2EF02DE12CF12CE7010F
S1130B00D6016D917C91C5010E941C0A892B09F0C4
S1130B1044C0F894F701EE0FFF1FEE0FFF1FEE0D18
S1130B20FF1DE050F84D8481803161F08032E1F0A6
S1130B30883081F50280F381E02DE801888180838B
S1130B4080E029C0C701880F991F880F991FC80F1B
S1130B50D91FC050D84DEA81FB81D8018D919C9159
S1130B608083918380E017C0C701880F991F880F85
S1130B70991FC80FD91FC050D84DEA81FB81E801E5
S1130B8088819981AA81BB8180839183A283B38365
S1130B9080E001C08DEF78940CC0DFEFED1AFD0A00
S1130BA0E5E0CE0ED11CF1E2EF16F10409F0A7CF77
S1130BB08CEFDF91CF911F910F91FF90EF90DF9019
S1130BC0CF90BF90AF900895CF92DF92FF920F9392
S1130BD01F93CF93DF93CDB7DEB72897CDBFDEBF8A
S1130BE06C0165E77DE50E941C0A892B09F4DDC0D0
S1130BF06FE370E0C6010E94110A892B61F166E778
S1130C007DE5C6010E940C0A082FF92E19821A826A
S1130C101B821C82BE016F5F7F4F0E94EC04182F61
S1130C20811112C08C818F938B818F938A818F93D2
S1130C3089818F93FF920F9385E79EE59F938F930E
S1130C400E944C0ACDBFDEBF0F2EF3EACF2EFCE587
S1130C50DF2EF02D64C06DE370E0C6010E94110A1E
S1130C60892B09F4A8C068E77DE5C6010E940C0A37
S1130C70082FF92E68E77DE580E090E00E940C0AD9
S1130C8040E050E060E070E00E940E096D837E83D6
S1130C908F839887BE016B5F7F4F802F9F2D0E94AB
S1130CA06B05182F81111DC019821A821B821C82A8
S1130CB0BE016F5F7F4F802F9F2D0E94EC048C81BB
S1130CC08F938B818F938A818F9389818F93FF92E6
S1130CD00F9385E79EE59F938F930E944C0ACDBFA7
S1130CE0DEBF0F2EFDEACF2EFCE5DF2EF02D17C060
S1130CF0F80160817181C6010E941C0A892B39F4B4
S1130D008F2D0E94DC04182F00E0F12C08C0F3940E
S1130D100C5F1F4FF9E1FF12EBCF1FEF0DC01E3F19
S1130D20C1F02CF41C3F79F11D3F01F148C01F3F75
S1130D3019F01123A9F143C0DF92CF928AE79DE510
S1130D409F938F930E944C0A0F900F900F900F90D7
S1130D5036C0DF92CF9289EA9DE59F938F930E94DC
S1130D604C0A0F900F900F900F9029C0DF92CF92F2
S1130D708FEC9DE59F938F930E944C0A0F900F90E8
S1130D800F900F901CC0FF920F9382E09EE59F93FB
S1130D908F930E944C0A0F900F900F900F900FC0EA
S1130DA085E39EE50E94620A0AC00F2EFCE9CF2E5D
S1130DB0FCE5DF2EF02D05EA18E2F12C99CF812F06
S1130DC02896CDBFDEBFDF91CF911F910F91FF9089
S1130DD0DF90CF900895CF92DF92EF92FF920F931E
S1130DE01F93CF93DF9300D000D0CDB7DEB78AE353
S1130DF09EE50E94620A05EA18E20F2EF9E0EF2E42
S1130E00F9E2FF2EF02D0F2EF1E5CF2EFEE5DF2EB9
S1130E10F02DD801ED91FC918081882351F0FF934E
S1130E20EF93DF92CF920E944C0A0F900F900F9095
S1130E300F900C5F1F4F0E151F0559F788E59EE5AF
S1130E400E94620A0F2EF0E0EF2EF8E2FF2EF02D42
S1130E5000E010E00F2EFFE6CF2EFEE5DF2EF02D92
S1130E6019821A821B821C82D701ED91FC91808128
S1130E708823D9F0BE016F5F7F4FCF010E94EC043D
S1130E808C818F938B818F938A818F9389818F93A8
S1130E90F70181818F9380818F931F930F93DF924A
S1130EA0CF920E944C0ACDBFDEBF0F5F1F4F95E06B
S1130EB0E90EF11C0132110599F680E89EE50E94C5
S1130EC0620A80E02496CDBFDEBFDF91CF911F91EF
S1130ED00F91FF90EF90DF90CF900895E0E0F8E05D
S1130EE0948195FFFDCF8093020880E090E00895FF
S1130EF084E199E28093102A9093112AE0E0F8E0CB
S1130F008BE591E0808791878581806E85838681DA
S1130F10806C8683E0E0F4E021E0218392E0928318
S1130F20E0E2F8E047E450E1408751878581816E33
S1130F3085838681806C8683E0E4F4E02183928358
S1130F4088E0818386830895A0E0E0E0F8E084816E
S1130F508823ECF780818A3009F18D30C1F391E068
S1130F609A0FB0E0A45BB64D8C939D33A8F01F920A
S1130F708CE38F9328E93EE53F932F931F928F9341
S1130F808CE499E29F938F930E94920A8DB79EB747
S1130F9008968DBF9EBF06C0A92FD9CFB0E0A45B31
S1130FA0B64D1C928CE499E208950E94490888F099
S1130FB09F5798F0B92F9927B751B0F0E1F0660F19
S1130FC0771F881F991F1AF0BA95C9F714C0B1305A
S1130FD091F00E946308B1E008950C946308672FB0
S1130FE0782F8827B85F39F0B93FCCF38695779589
S1130FF06795B395D9F73EF4909580957095619572
S11310007F4F8F4F9F4F0895E89409C097FB3EF49C
S113101090958095709561957F4F8F4F9F4F992341
S1131020A9F0F92F96E9BB279395F69587957795BF
S11310306795B795F111F8CFFAF4BB0F11F460FF7F
S11310401BC06F5F7F4F8F4F9F4F16C0882311F0D7
S113105096E911C0772321F09EE8872F762F05C0EB
S1131060662371F096E8862F70E060E02AF09A9586
S1131070660F771F881FDAF7880F9695879597F97B
S1131080089557FD9058440F551F59F05F3F71F074
S11310904795880F97FB991F61F09F3F79F08795DB
S11310A00895121613061406551FF2CF4695F1DF64
S11310B008C0161617061806991FF1CF86957105F4
S11310C0610508940895E894BB2766277727CB0128
S11310D097F908950E947D080C94EE080E94E00898
S11310E038F00E94E70820F0952311F00C94D708FB
S11310F00C94DD0811240C9464080E94410870F3D8
S1131100959FC1F3950F50E0551F629FF001729FA8
S1131110BB27F00DB11D639FAA27F00DB11DAA1FB7
S1131120649F6627B00DA11D661F829F2227B00D04
S1131130A11D621F739FB00DA11D621F839FA00D8F
S1131140611D221F749F3327A00D611D231F849FDF
S1131150600D211D822F762F6A2F11249F57504036
S11311609AF0F1F088234AF0EE0FFF1FBB1F661FB1
S1131170771F881F91505040A9F79E3F510580F07A
S11311800C94D7080C9464085F3FE4F3983ED4F3BE
S1131190869577956795B795F795E7959F5FC1F71E
S11311A0FE2B880F911D9695879597F9089597F9C9
S11311B09F6780E870E060E008959FEF80EC0895F9
S11311C000240A9416161706180609060895002422
S11311D00A9412161306140605060895092E03949C
S11311E0000C11F4882352F0BB0F40F4BF2B11F410
S11311F060FF04C06F5F7F4F8F4F9F4F0895A29F82
S1131200B001B39FC001A39F700D811D1124911DD6
S1131210B29F700D811D1124911D0895A0E0B0E0CE
S1131220E4E1F9E00C94940D5C016B017A01611521
S1131230710519F0FB0180839183E114F10429F015
S1131240C7010297839708F0C9C0E5012196F5010B
S11312501081812F90E00E94030A892B11F05E0116
S1131260F4CF1D3229F42196F501118101E007C064
S11312701B3221F4E5012296F501118100E0E1140D
S1131280F104B1F0F0E1EF16F10429F4B0C010E379
S1131290E114F10401F12AE0E216F104B1F180E174
S11312A0E816F10471F0E8E0EE16F104F1F413C06D
S11312B0103341F588818F7D883549F7198122964D
S11312C00260F0E1EF2EF12C88248A94982CA82C4B
S11312D0AFE0BA2E20C078E0E72EF12C88248A945F
S11312E0982CA82CEFE1BE2E16C06FEF7FEFCB0138
S11312F097010F2C000C440B550B0E94660D4901FD
S11313005A0109C08AE0E82EF12C69E9862E982C4E
S1131310A82C69E1B62E40E060E070E0CB01270123
S11313200F2C000C66087708FE0150ED352E310EA7
S113133029E0231570F42FEB210F2A3118F439EC2E
S1131340332E06C02FE9210F2A3130F529EA322E37
S1131350310E232D30E02E153F05F4F44F3FC9F034
S113136086169706A806B90688F0A30192010E9482
S1131370560D232D30E040E050E0620F731F841FB0
S1131380951F621773078407950710F44FEF01C088
S113139041E021961081C8CFC114D10451F04423F7
S11313A011F0219703C001FF04C02297F601C08306
S11313B0D18300FF07C090958095709561957F4F0C
S11313C08F4F9F4F4F3F79F482E290E08093142A2D
S11313D09093152A3FEF2FEF9FEF0DC040E030E0D0
S11313E020E090E008C0462F372F282F04C0103388
S11313F009F067CF5FCF642F732F822FCDB7DEB78D
S1131400E1E10C94AD0D91110C94A30C803219F010
S113141089508550C8F7089542E259E20E94250A8E
S11314200895FC018191861721F08823D9F7992723
S113143008953197CF010895FB01DC018D9101904E
S113144080190110D9F3990B0895FA01A191B08183
S1131450009719F41097E1F0CD01DC01CD010D9056
S1131460002011F4C00113C0FB012191222319F0C3
S11314702015D9F7F3CFFB012191201519F41E9201
S1131480119606C02223C1F70D900020A1F7D001C8
S1131490FA01A193B0830895A0E0B0E0E2E5FAE098
S11314A00C94A30DAE014B5F5F4FFA0161917191F2
S11314B0AF018091102A9091112A0E94C20AE2E0A1
S11314C00C94BC0D0F931F93CF93DF93E091102ADC
S11314D0F091112A238121FF1BC08C01D0E0C0E0D0
S11314E0F80181918F016091102A7091112ADB011A
S11314F01896ED91FC911997882331F00995892B61
S113150079F3DFEFCFEFECCF8AE00995892B19F05F
S11315108FEF9FEF02C08D2F9C2FDF91CF911F91F2
S11315200F910895AEE0B0E0E8E9FAE00C94A10D63
S11315300D891E898F89988D26E02C8309831A834F
S113154097FF02C080E090E801978D839E83AE01EF
S1131550455E5F4F698D7A8DCE0101960E94C20A65
S11315604D815E8157FD0AC02F813885421753078C
S11315700CF49A01F801E20FF31F10822E96E4E0B6
S11315800C94BA0DABE0B0E0E8ECFAE00C94930DE7
S11315906C017B018A01FC0116821782838181FF21
S11315A0CCC1CE0101963C01F6019381F70193FD74
S11315B0859193FF81917F01882309F4BAC1853213
S11315C039F493FD859193FF81917F01853229F44C
S11315D0B60190E00E94BC0CE7CF912C212C312C59
S11315E0FFE1F315D8F08B3279F038F4803279F0DA
S11315F08332A1F4232D20611DC08D3261F080332C
S113160069F4232D216016C0832D8260382EE32DCA
S1131610E4603E2E2AC0F32DF8601DC037FC2DC0B7
S113162020ED280F2A3040F08E32B9F436FC81C107
S1131630232D2064322E19C036FE06C08AE0989EFF
S1131640200D1124922E11C0EAE02E9E200D1124AB
S1131650222EF32DF0623F2E08C08C3621F4832D08
S11316608068382E02C0883641F4F70193FD8591D5
S113167093FF81917F018111B3CF982F9F7D955462
S1131680933028F40C5F1F4F9FE399830DC083367A
S113169031F0833771F0833509F059C021C0F80166
S11316A0808189830E5F1F4F88248394912C53017A
S11316B013C02801F2E04F0E511CF801A080B18044
S11316C036FE03C0692D70E002C06FEF7FEFC501E5
S11316D00E94B10C4C018201F32DFF773F2E16C0FE
S11316E0280122E0420E511CF801A080B18036FE90
S11316F003C0692D70E002C06FEF7FEFC5010E9447
S1131700A60C4C01F32DF0683F2E820133FC1BC064
S1131710822D90E088169906B0F4B60180E290E03C
S11317200E94BC0C2A94F4CFF50137FC859137FE56
S113173081915F01B60190E00E94BC0C21102A94B3
S113174021E0821A91088114910471F7E8C084366B
S113175011F0893641F5F80137FE07C060817181C7
S1131760828193810C5F1F4F08C060817181072EB5
S1131770000C880B990B0E5F1F4FF32DFF763F2E45
S113178097FF09C090958095709561957F4F8F4F15
S11317909F4FF0683F2E2AE030E0A3010E94F80C2E
S11317A0882E861845C0853731F4232D2F7EB22E1E
S11317B02AE030E025C0932D997FB92E8F36C1F0F1
S11317C018F4883579F0B5C0803719F0883721F0DE
S11317D0B0C0E92FE061BE2EB4FE0DC0FB2DF46055
S11317E0BF2E09C034FE0AC0292F2660B22E06C0BF
S11317F028E030E005C020E130E002C020E132E022
S1131800F801B7FE07C060817181828193810C5F0A
S11318101F4F06C06081718180E090E00E5F1F4F12
S1131820A3010E94F80C882E8618FB2DFF773F2E0B
S113183036FE0DC0232D2E7FA22E891458F434FEBB
S11318400BC032FC09C0832D8E7EA82E05C0B82C97
S1131850A32C03C0B82C01C0B92CA4FE0FC0FE01F8
S1131860E80DF11D8081803321F49A2D997EA92EF3
S113187009C0A2FE06C0B394B39404C08A2D86782E
S113188009F0B394A3FC11C0A0FE06C0B21488F4FE
S1131890280C922C9B180EC0B21460F4B60180E29E
S11318A090E00E94BC0CB394F7CFB21418F42B1838
S11318B002C0982C212CA4FE10C0B60180E390E055
S11318C00E94BC0CA2FE17C0A1FC03C088E790E0F4
S11318D002C088E590E0B6010CC08A2D867859F0E4
S11318E0A1FE02C08BE201C080E2A7FC8DE2B6013A
S11318F090E00E94BC0C891438F4B60180E390E0B7
S11319000E94BC0C9A94F7CF8A94F301E80DF11D60
S11319108081B60190E00E94BC0C8110F5CF22209A
S113192009F442CEB60180E290E00E94BC0C2A94F5
S1131930F6CFF6018681978102C08FEF9FEF2B9639
S1131940E2E10C94AC0D992788270895FC010590D9
S1131950615070400110D8F7809590958E0F9F1FAD
S11319600895FC016150704001900110D8F78095F2
S113197090958E0F9F1F08950F931F93CF93DF931E
S1131980FB01238121FD03C08FEF9FEF2CC022FFB9
S113199016C046815781248135814217530744F488
S11319A0A081B1819D012F5F3F4F208331838C93B0
S11319B0268137812F5F3F4F2683378314C08B01E5
S11319C0EC01FB010084F185E02D0995892BE1F6FA
S11319D0D80116968D919C911797019616968D9322
S11319E09C931797CE01DF91CF911F910F9108958A
S11319F0FA01AA27283051F1203181F1E8946F933C
S1131A006E7F6E5F7F4F8F4F9F4FAF4FB1E03ED0E1
S1131A10B4E03CD0670F781F891F9A1FA11D680F7F
S1131A20791F8A1F911DA11D6A0F711D811D911DB2
S1131A30A11D20D009F468943F912AE0269F112427
S1131A403019305D3193DEF6CF010895462F47708B
S1131A50405D4193B3E00FD0C9F7F6CF462F4F70E6
S1131A60405D4A3318F0495D31FD4052419302D044
S1131A70A9F7EACFB4E0A6959795879577956795EA
S1131A80BA95C9F700976105710508959B01AC01EA
S1131A900A2E06945795479537952795BA95C9F711
S1131AA0620F731F841F951FA01D0895DB018F9380
S1131AB09F930E94880DBF91AF91A29F800D911DAD
S1131AC0A39F900DB29F900D11240895A1E21A2EA8
S1131AD0AA1BBB1BFD010DC0AA1FBB1FEE1FFF1FCE
S1131AE0A217B307E407F50720F0A21BB30BE40B1E
S1131AF0F50B661F771F881F991F1A9469F7609565
S1131B007095809590959B01AC01BD01CF0108951E
S1131B100E94FF08A59F900DB49F900DA49F800D77
S1131B20911D112408952F923F924F925F926F92CC
S1131B307F928F929F92AF92BF92CF92DF92EF9259
S1131B40FF920F931F93CF93DF93CDB7DEB7CA1BDA
S1131B50DB0BCDBFDEBF09942A88398848885F84AF
S1131B606E847D848C849B84AA84B984C884DF8039
S1131B70EE80FD800C811B81AA81B981CE0FD11D1D
S10F1B80CDBFDEBFED010895F894FFCF47
S1131B8C63743056616C0063743156616C00637419
S1131B9C3256616C0049726D73300049726D733149
S1131BAC0049726D733200707056616C006370562C
S1131BBC616C0070696C6F740074656D7065726132
S1131BCC7475726500647574794379636C6500731C
S1131BDC797374696D650061757854696D657231DA
S1131BEC0061757854696D657232006C6F636B7348
S1131BFC7461746500627574746F6E73746174656A
S1131C0C004963616C006D61784D61696E73006DA0
S1131C1C617843757272656E74006D696E4375728A
S1131C2C72656E74006D6F6465006C6F636B00633A
S1131C3C61626C65436F6E66007377697463684D9B
S1131C4C6F6465006572726F72006E65787453749C
S1131C5C617465006D6178436170616369747900C6
S1131C6C63686172676543757272656E7400496D61
S1131C7C65617375726564004973756D00636861A1
S1131C8C72676544656C61790061636365737300A5
S1131C9C73746174757300706172616D5F676574E0
S1131CAC00706172616D5F736574006C65645F6F65
S1131CBC6E006C65645F6F6666006C65645F746F60
S1131CCC67676C650070776D5F6F6E0070776D5F22
S1131CDC6F666600737372315F6F6E00737372316B
S1131CEC5F6F666600737372325F6F6E007373722C
S1131CFC325F6F666600737372335F6F6E0073735B
S1131D0C72335F6F666600616C6C5F7373725F6FC6
S1131D1C6E00616C6C5F7373725F6F666600756ED8
S1131D2C6C6F636B5F6361626C65006C6F636B5F9C
S1131D3C6F66660072656C61795F6F6E0072656CBC
S1131D4C61795F6F666600726561645F63700072CF
S1131D5C6561645F707000726561645F63740072C6
S1131D6C6561645F74656D70003F3F003D004641E2
S1131D7C494C2E20436F6D6D616E64202573206E6B
S1131D8C6F7420666F756E6420696E20636F6D6D61
S1131D9C616E64207461626C65210D0A00464149D0
S1131DAC4C2E204661696C656420746F20657865DF
S1131DBC6375746520636F6D6D616E64202573218A
S1131DCC0D0A004641494C2E20496E76616C6964BB
S1131DDC206F7074696F6E732F706172616D6574AE
S1131DEC65727320666F7220636F6D6D616E642013
S1131DFC2573210D0A004641494C2E205061726115
S1131E0C6D65746572202573206E6F7420666F7512
S1131E1C6E6420696E20706172616D6574657220E8
S1131E2C7461626C65210D0A004F4B2E0D00242049
S1131E3C417661696C61626C6520636F6D6D616E76
S1131E4C64733A0D00242025730D0A002420446584
S1131E5C66696E656420706172616D657465727318
S1131E6C3A0D00242025643A202573203D20256C4E
S1131E7C750D0A002420537461747573206D657399
S1131E8C7361676520656E6420230D00496E70755F
S1131E9C7420746F6F206C6F6E672C206D61786981
S1131EAC6D756D206E6F2E206F6620636861727382
S1101EBC20616C6C6F7765643A202564002A
S1131EC98C5B462910935B4829109A5B4A2910A117
S1131ED95B402910A75B422910AD5B442910B35B11
S1131EE93E2910B95B3C2910BF5B3B2908C55B3906
S1131EF92910D15B132908DB5B352920E35B3329DE
S1131F0910ED5B312910F75B2F2908015C30290892
S1131F190D5C112910125C1029081B5C0F29082675
S1131F295C0E2908315C2E2908365C0D29083B5CB6
S1131F392D2908455C0C2908FB5B0B2908505C2CEE
S1131F492908565C0A2908605C2B29086C5C8829D5
S1131F59107A5C292910845C272910895C092908CD
S1131F69955C2629089C5CEB06A35CEC04AD5C6BD0
S1131F7905B75C6C02BE5C7102C65C6702D15C7613
S1131F8902D85C7D02E05C8402E85C8902F15C8E23
S1131F9902F95C9302025D98020A5D9D02135DEEEB
S1131FA9031E5DE4032C5D5E032A5D7E03375DA297
S1131FB902405DAA02495DAF02535DB4025B5DEE66
S1131FC902635D29036B5D9E033C01010101060D5A
S1131FD92064003200000002000000006E070000C7
S1051FE90000F2
S9030400F8
