:100000000C9448000C9465000C9465000C946500F9
:100010000C9465000C9465000C9465000C946500CC
:100020000C9465000C9465000C9465000C946500BC
:100030000C9465000C9465000C9465000C946500AC
:100040000C9465000C9465000C9465000C9465009C
:100050000C9465000C9465000C9465000C9465008C
:100060000C9465000C9465000C9465000C9465007C
:100070000C9465000C9465000C9465000C9465006C
:100080000C9465000C9465000C9465000C9465005C
:1000900011241FBECFEFCDBFDFE3DEBF18E2A0E02B
:1000A000B8E2E9EFFEE002C005900D92A031B10781
:1000B000D9F729E2A0E1B8E201C01D92AF34B2073E
:1000C000E1F70E947C000C94C3060C940000E0E071
:1000D000F4E087818064878380E00895E0E0F4E0C5
:1000E00084818F7B848380E00895E0E0F4E0848164
:1000F0008064848380E00895CF93DF93CDB7DEB72B
:100100002797CDBFDEBFE0E0F4E08181806481838A
:100110000E9439030E94320280E1898380E090E1ED
:100120008A839B8380EA98E8A1E0B0E08C839D837A
:10013000AE83BF836EE670E08CE89DE40E947E0291
:1001400065E770E083E99DE40E947E0267E670E067
:100150008BE99DE40E947E0248E0BE016F5F7F4F05
:1001600086EA9DE40E94130340E1BE016E5F7F4F6B
:100170008CEA9DE40E94130340E2BE016C5F7F4F56
:1001800083EB9DE40E9413030E94CA010E94750044
:100190000E9451030E949602FBCFAF92BF92CF9272
:1001A000DF92EF92FF921F93CF93DF935C017B016D
:1001B000142FC12CD12CE601F601EE0FFF1FEE0F1C
:1001C000FF1FEC0DFD1DEB5EF74D60817181C501D8
:1001D0000E948203892B09F042C0F8941031A1F0EB
:1001E000103221F11830C1F5C601880F991F880F10
:1001F000991FC80FD91FCB5ED74DEA81FB81D7016C
:100200008C91808380E029C0C601880F991F880FD8
:10021000991FC80FD91FCB5ED74DEA81FB81E7013B
:10022000888199818083918380E017C0C601880FFF
:10023000991F880F991FC80FD91FCB5ED74DEA8130
:10024000FB81E70188819981AA81BB8180839183A9
:10025000A283B38380E001C08DEF789409C0DFEF03
:10026000CD1ADD0A84E1C816D10409F0A4CF8EEFBF
:10027000DF91CF911F91FF90EF90DF90CF90BF90D3
:10028000AF900895CF92DF92EF92FF920F931F935A
:10029000CF93DF938C017B01C12CD12CE601F601B9
:1002A000EE0FFF1FEE0FFF1FEC0DFD1DEB5EF74D78
:1002B00060817181C8010E948203892B09F04AC0C4
:1002C000F894F601EE0FFF1FEE0FFF1FEC0DFD1D62
:1002D000EB5EF74D8481803189F0803221F18830E6
:1002E000B1F50280F381E02D808190E0A0E0B0E0E4
:1002F000F70180839183A283B38329C0C601880F4D
:10030000991F880F991FC80FD91FCB5ED74DEA815F
:10031000FB8180819181A0E0B0E0F701808391832F
:10032000A283B38314C0C601880F991F880F991F39
:10033000C80FD91FCB5ED74DEA81FB8180819181A7
:10034000A281B381F70180839183A283B3837894E0
:1003500080E009C0FFEFCF1ADF0A84E1C816D1049C
:1003600009F09CCF8EEFDF91CF911F910F91FF90FD
:10037000EF90DF90CF9008959F938F938AEB9DE449
:100380009F938F930E948B030F900F900F900F906D
:1003900080E00895EF92FF920F931F93CF93DF9326
:1003A0008DEB9DE40E94A103C0E0D0E002ED1DE4CE
:1003B000FE01EE0FFF1FEE0FFF1FE758F74D0190F4
:1003C000F081E02D8081882351F0FF93EF931F93FC
:1003D0000F930E948B030F900F900F900F90219618
:1003E000C431D10529F787ED9DE40E94A103C0E047
:1003F000D0E00CEE1DE4FE01EE0FFF1FEE0FFF1F1D
:10040000EC0FFD1FEB5EF74DE080F180F70180817E
:100410008823E1F060E178E2C7010E944201809107
:1004200013288F93809112288F93809111288F9396
:10043000809110288F93FF92EF921F930F930E9449
:100440008B038DB79EB708968DBF9EBF2196C43192
:10045000D10589F680E0DF91CF911F910F91FF9038
:10046000EF900895E9E7F8E288EF9DE480839183B7
:100470008CEB91E0828393838DEF9DE4848395835D
:100480008AEC91E08683978384E09EE4808791875D
:1004900082E491E0828793878EE09EE4848795874B
:1004A0008DEC90E08687978784E090E02AE83DE431
:1004B000FC01EE0FFF1FEE0FFF1FE758F74D2083E3
:1004C00031831282138201968431910589F780E08D
:1004D00090E02AE83DE4FC01EE0FFF1FEE0FFF1F46
:1004E000E80FF91FEB5EF74D2083318312821382F0
:1004F000148201968431910571F708959C019091C1
:100500000028943188F4E92FF0E0EE0FFF1FEE0F82
:10051000FF1FE758F74D20833183628373839F5F0A
:100520009093002880E008958FEF0895EF92FF9256
:100530000F931F93CF93DF93F82EE92EC0E0D0E006
:100540008E01FE01EE0FFF1FEE0FFF1FE758F74D64
:10055000608171818F2D9E2D0E948203892B11F560
:10056000FE01EE0FFF1FEE0FFF1FE758F74D8281D0
:100570009381892B49F1000F111F000F111FF80102
:10058000E758F74D0280F381E02D0995C82F8E3F83
:10059000E1F01CF48D3F31F13EC08F3F41F08823E4
:1005A00071F139C02196C431D10551F6CFEFEF92E8
:1005B000FF9288E19EE49F938F930E948B030F909C
:1005C0000F900F900F9027C0CEEFEF92FF9287E42D
:1005D0009EE49F938F930E948B030F900F900F9038
:1005E0000F9019C0EF92FF928DE69EE49F938F9338
:1005F0000E948B030F900F900F900F900CC0EF9202
:10060000FF9280EA9EE49F938F930E948B030F904A
:100610000F900F900F908C2FDF91CF911F910F9122
:10062000FF90EF9008959C01909114289431A8F4C4
:10063000E92FF0E0DF01AA0FBB1FAA0FBB1FEA0FD3
:10064000FB1FEB5EF74D208331836283738344830A
:100650009F5F9093142880E008958FEF0895E0E065
:10066000F8E0948195FFFDCF8093020880E090E050
:100670000895E0E0F8E084E790E080879187868144
:10068000806C8683E0E0F4E08181816081838181F8
:100690008D7F818381E098E280934B2990934C2950
:1006A0000895A0E0E0E0F8E084818823ECF7808101
:1006B0008A3009F18D30C1F391E09A0FB0E0A75371
:1006C000B74D8C939138A8F01F9280E88F9328EC57
:1006D0003EE43F932F931F928F9389EC98E29F9370
:1006E0008F930E94D1038DB79EB708968DBF9EBF92
:1006F00006C0A92FD9CFB0E0A753B74D1C9289EC03
:1007000098E20895FB01DC018D91019080190110A0
:10071000D9F3990B0895A0E0B0E0E1E9F3E00C947F
:10072000A206AE014B5F5F4FFA0161917191AF017B
:1007300080914B2990914C290E940104E2E00C9495
:10074000BB060F931F93CF93DF93E0914B29F0915A
:100750004C29238121FF1BC08C01D0E0C0E0F801AF
:1007600081918F0160914B2970914C29DB01189682
:10077000ED91FC911997882331F00995892B79F334
:10078000DFEFCFEFECCF8AE00995892B19F08FEFDF
:100790009FEF02C08D2F9C2FDF91CF911F910F9162
:1007A0000895AEE0B0E0E7EDF3E00C94A0060D890B
:1007B0001E898F89988D26E02C8309831A8397FFE1
:1007C00002C080E090E801978D839E83AE01455E74
:1007D0005F4F698D7A8DCE0101960E9401044D8193
:1007E0005E8157FD0AC02F813885421753070CF4EC
:1007F0009A01F801E20FF31F10822E96E4E00C94A8
:10080000B906ABE0B0E0E7E0F4E00C9492066C01CE
:100810007B018A01FC0116821782838181FFCCC192
:10082000CE0101963C01F6019381F70193FD85917C
:1008300093FF81917F01882309F4BAC1853239F48D
:1008400093FD859193FF81917F01853229F4B60153
:1008500090E00E94F805E7CF912C212C312CFFE18C
:10086000F315D8F08B3279F038F4803279F0833296
:10087000A1F4232D20611DC08D3261F0803369F415
:10088000232D216016C0832D8260382EE32DE46075
:100890003E2E2AC0F32DF8601DC037FC2DC020ED80
:1008A000280F2A3040F08E32B9F436FC81C1232D56
:1008B0002064322E19C036FE06C08AE0989E200DB4
:1008C0001124922E11C0EAE02E9E200D1124222E1A
:1008D000F32DF0623F2E08C08C3621F4832D806802
:1008E000382E02C0883641F4F70193FD859193FFBD
:1008F00081917F018111B3CF982F9F7D95549330C3
:1009000028F40C5F1F4F9FE399830DC0833631F0AD
:10091000833771F0833509F059C021C0F801808117
:1009200089830E5F1F4F88248394912C530113C039
:100930002801F2E04F0E511CF801A080B18036FE74
:1009400003C0692D70E002C06FEF7FEFC5010E9408
:10095000ED054C018201F32DFF773F2E16C02801D3
:1009600022E0420E511CF801A080B18036FE03C087
:10097000692D70E002C06FEF7FEFC5010E94E205B4
:100980004C01F32DF0683F2E820133FC1BC0822DF9
:1009900090E088169906B0F4B60180E290E00E94DB
:1009A000F8052A94F4CFF50137FC859137FE819143
:1009B0005F01B60190E00E94F80521102A9421E021
:1009C000821A91088114910471F7E8C0843611F0FD
:1009D000893641F5F80137FE07C060817181828157
:1009E00093810C5F1F4F08C060817181072E000C3E
:1009F000880B990B0E5F1F4FF32DFF763F2E97FF4D
:100A000009C090958095709561957F4F8F4F9F4F4E
:100A1000F0683F2E2AE030E0A3010E943406882EC1
:100A2000861845C0853731F4232D2F7EB22E2AE05B
:100A300030E025C0932D997FB92E8F36C1F018F480
:100A4000883579F0B5C0803719F0883721F0B0C00B
:100A5000E92FE061BE2EB4FE0DC0FB2DF460BF2E69
:100A600009C034FE0AC0292F2660B22E06C028E035
:100A700030E005C020E130E002C020E132E0F801C2
:100A8000B7FE07C060817181828193810C5F1F4F27
:100A900006C06081718180E090E00E5F1F4FA3016E
:100AA0000E943406882E8618FB2DFF773F2E36FED7
:100AB0000DC0232D2E7FA22E891458F434FE0BC0B6
:100AC00032FC09C0832D8E7EA82E05C0B82CA32C25
:100AD00003C0B82C01C0B92CA4FE0FC0FE01E80D64
:100AE000F11D8081803321F49A2D997EA92E09C0B1
:100AF000A2FE06C0B394B39404C08A2D867809F090
:100B0000B394A3FC11C0A0FE06C0B21488F4280C54
:100B1000922C9B180EC0B21460F4B60180E290E0F3
:100B20000E94F805B394F7CFB21418F42B1802C042
:100B3000982C212CA4FE10C0B60180E390E00E9406
:100B4000F805A2FE17C0A1FC03C088E790E002C030
:100B500088E590E0B6010CC08A2D867859F0A1FE98
:100B600002C08BE201C080E2A7FC8DE2B60190E0FA
:100B70000E94F805891438F4B60180E390E00E94E1
:100B8000F8059A94F7CF8A94F301E80DF11D80815E
:100B9000B60190E00E94F8058110F5CF222009F4FB
:100BA00042CEB60180E290E00E94F8052A94F6CF8A
:100BB000F6018681978102C08FEF9FEF2B96E2E1CD
:100BC0000C94AB06FC010590615070400110D8F701
:100BD000809590958E0F9F1F0895FC016150704085
:100BE00001900110D8F7809590958E0F9F1F089562
:100BF0000F931F93CF93DF93FB01238121FD03C04C
:100C00008FEF9FEF2CC022FF16C0468157812481B1
:100C100035814217530744F4A081B1819D012F5FB4
:100C20003F4F208331838C93268137812F5F3F4F45
:100C30002683378314C08B01EC01FB010084F1850E
:100C4000E02D0995892BE1F6D80116968D919C919E
:100C50001797019616968D939C931797CE01DF9167
:100C6000CF911F910F910895FA01AA27283051F1D1
:100C7000203181F1E8946F936E7F6E5F7F4F8F4FCD
:100C80009F4FAF4FB1E03ED0B4E03CD0670F781F2C
:100C9000891F9A1FA11D680F791F8A1F911DA11D11
:100CA0006A0F711D811D911DA11D20D009F468944A
:100CB0003F912AE0269F11243019305D3193DEF6F2
:100CC000CF010895462F4770405D4193B3E00FD0A8
:100CD000C9F7F6CF462F4F70405D4A3318F0495D93
:100CE00031FD4052419302D0A9F7EACFB4E0A69576
:100CF0009795879577956795BA95C9F70097610598
:100D0000710508959B01AC010A2E069457954795ED
:100D100037952795BA95C9F7620F731F841F951FE2
:100D2000A01D08952F923F924F925F926F927F92F3
:100D30008F929F92AF92BF92CF92DF92EF92FF92EB
:100D40000F931F93CF93DF93CDB7DEB7CA1BDB0B97
:100D5000CDBFDEBF09942A88398848885F846E84B5
:100D60007D848C849B84AA84B984C884DF80EE80CF
:100D7000FD800C811B81AA81B981CE0FD11DCDBF11
:0A0D8000DEBFED010895F894FFCFE7
:100D8A0000006C65645F6F6E006C65645F6F666619
:100D9A00006C65645F746F67676C65007465737473
:100DAA0038007465737431360074657374333200B5
:100DBA00257300417661696C61626C6520636F6DB1
:100DCA006D616E64733A0D0025730D0A0044656601
:100DDA00696E656420706172616D65746572733ADB
:100DEA000D002573203D20252B6C750D0A006563C7
:100DFA00686F0073746174757300706172616D5FFE
:100E0A0067657400706172616D5F73657400464155
:100E1A00494C2E20436F6D6D616E64202573206EE0
:100E2A006F7420666F756E6420696E20636F6D6DD6
:100E3A00616E64207461626C65210D0A0046414945
:100E4A004C2E204661696C656420746F2065786554
:100E5A006375746520636F6D6D616E6420257321FF
:100E6A000D0A004641494C2E20496E76616C696430
:100E7A00206F7074696F6E732F706172616D657423
:100E8A0065727320666F7220636F6D6D616E642088
:100E9A002573210D0A004F4B2E20436F6D6D616E35
:100EAA00642025732065786563757465642073759D
:100EBA00636365737366756C6C79210D0A00496EFC
:100ECA0070757420746F6F206C6F6E672C206D6163
:100EDA0078696D756D206E6F2E206F66206368616C
:0F0EEA00727320616C6C6F7765643A2025640029
:100EF9000400000002000000002F030000000000B1
:00000001FF
