:100000000C9448000C9465000C9465000C946500F9
:100010000C9499000C9465000C9465000C94650098
:100020000C9465000C9465000C9465000C946500BC
:100030000C9465000C9465000C9465000C946500AC
:100040000C9465000C9465000C9465000C9465009C
:100050000C94AB000C9465000C9465000C94650046
:100060000C9465000C9465000C9465000C9465007C
:100070000C9465000C9465000C9465000C9465006C
:100080000C9465000C9465000C9465000C9465005C
:1000900011241FBECFEFCDBFDFE3DEBF18E2A0E02B
:1000A000B8E2EAE9F1E002C005900D92A030B10794
:1000B000D9F728E2A0E0B8E201C01D92A130B20752
:1000C000E1F70E94C1000C94CB000C94000098ED65
:1000D00094BF809110018F7B8093100194BF81E0C9
:1000E000809361008091630080FDFCCF88E0809365
:1000F000610480E18093620480917404887F80931E
:10010000740482E08093740480917404877F8093E8
:100110007404809141018111FCCF81E080934701FB
:100120008091520181608093520189E48093500153
:1001300008951F920F920FB60F9211248F9381E0B2
:100140008093530188E0809367048F910F900FBED6
:100150000F901F9018951F920F920FB60F921124B7
:100160008F93EF93FF93E0E6F4E088E0878380E1EC
:100170008187FF91EF918F910F900FBE0F901F908D
:1001800018950E9467007894809168048295817028
:0A01900080930028F9CFF894FFCF08
:00000001FF
