S01A000061746D343830385F626C696E6B5F746573742E7372656366
S11300000C9448000C9452000C9452000C9452002E
S11300100C9452000C9452000C9452000C94520014
S11300200C9452000C9452000C9452000C94520004
S11300300C9452000C9452000C9452000C945200F4
S11300400C9452000C9452000C9452000C945200E4
S11300500C9452000C9452000C9452000C945200D4
S11300600C9452000C9452000C9452000C945200C4
S11300700C9452000C9452000C9452000C945200B4
S11300800C9452000C9452000C9452000C945200A4
S113009011241FBECFEFCDBFDFE3DEBF0E945400AB
S11300A00C9464000C94000080E480930104E0E06C
S11300B0F4E087832FE33DE093E02150304090400B
S10F00C0E1F700C00000F5CFF894FFCF7A
S9030000FC
