S01B000061746D343830385F626C696E6B5F74657374312E7372656334
S11302000C9448010C9452010C9452010C94520128
S11302100C9452010C9452010C9452010C9452010E
S11302200C9452010C9452010C9452010C945201FE
S11302300C9452010C9452010C9452010C945201EE
S11302400C9452010C9452010C9452010C945201DE
S11302500C946D010C9452010C9452010C945201B3
S11302600C9452010C9452010C9452010C945201BE
S11302700C9452010C9452010C9452010C945201AE
S11302800C9452010C9452010C9452010C9452019E
S113029011241FBECFEFCDBFDFE3DEBF0E94830179
S11302A00C9489010C940001E0E0FAE081E082877B
S11302B0118281858E7F818786EB9CE086A397A33C
S11302C08DE080830895E0E6F4E088E0818380E1B6
S11302D0828384898160848B08951F920F920FB664
S11302E00F9211248F93EF93FF93E0E6F4E088E0FC
S11302F0878380E18187FF91EF918F910F900FBEEB
S11303000F901F9018950E9463010E9454017894E5
S1090310FFCFF894FFCFBB
S9030200FA
